BL51 BANKED LINKER/LOCATER V6.22                                                        01/17/2018  23:35:27  PAGE 1


BL51 BANKED LINKER/LOCATER V6.22, INVOKED BY:
D:\KEIL_V5\C51\BIN\BL51.EXE BANK0 {.\Output\Timer.obj}, BANK0 {.\Output\Auto.obj}, BANK0 {.\Output\FrameSync.obj}, BANK0
>>  {.\Output\Main.obj}, BANK0 {.\Output\Mode.obj}, BANK0 {.\Output\Struct.obj}, BANK0 {.\Output\Sync.obj}, BANK0 {.\Out
>> put\Adjust.obj}, BANK0 {.\Output\Adjust_customer.obj}, BANK0 {.\Output\Uart.obj}, BANK0 {.\Output\video.obj}, BANK0 {
>> .\Output\eeprom.obj}, BANK0 {.\Output\Memory.obj}, BANK0 {.\Output\YPbPr.obj}, BANK0 {.\Output\Power.obj}, BANK0 {.\O
>> utput\Scaler.obj}, BANK0 {.\Output\Source.obj}, BANK0 {.\Output\Misc.obj}, BANK0 {.\Output\Hdmi.obj}, BANK0 {.\Output
>> \Key.obj}, BANK0 {.\Output\IR_Nec.obj}, BANK0 {.\Output\Key_PCB2660_001.obj}, BANK0 {.\Output\Key_PCB2660_002.obj}, B
>> ANK0 {.\Output\Key_PCB2660_003.obj}, BANK0 {.\Output\Key_PCB2660_003_5Key.obj}, BANK0 {.\Output\Key_PCB2660_007.obj},
>>  BANK0 {.\Output\Func.obj}, BANK1 {.\Output\OsdProc001.obj}, BANK1 {.\Output\OsdMenuFunc001.obj}, BANK1 {.\Output\Osd
>> Res001.obj}, BANK1 {.\Output\OsdTable001.obj}, BANK1 {.\Output\OsdProc002.obj}, BANK1 {.\Output\OsdMenuFunc002.obj}, 
>> BANK1 {.\Output\OsdRes002.obj}, BANK1 {.\Output\OsdTable002.obj}, BANK1 {.\Output\Osd002Func.obj}, BANK1 {.\Output\Os
>> dMenuFunc003.obj}, BANK1 {.\Output\OsdProc003.obj}, BANK1 {.\Output\OsdRes003.obj}, BANK1 {.\Output\OsdTable003.obj},
>>  BANK1 {.\Output\OSD_FAC.obj}, BANK1 {.\Output\OsdPub007.obj}, BANK1 {.\Output\OsdVga007.obj}, BANK1 {.\Output\OsdAV0
>> 07.obj}, BANK1 {.\Output\OsdTV007.obj}, BANK0 {.\Output\TV.obj}, BANK0 {.\Output\JS_6B1.obj}, BANK0 {.\Output\JS_6B2.
>> obj}, BANK0 {.\Output\TDQ6F6.obj}, BANK0 {.\Output\TN8337.obj}, BANK0 {.\Output\TNJ8355.obj}, BANK0 {.\Lib\GmiFunc.LI
>> B}, BANK1 {.\Output\gmiOSDFunc.obj}, COMMON {.\Output\GUartSend.obj}, COMMON {.\Output\Int.obj}, COMMON {.\Output\Mcu
>> .obj}, COMMON {.\Output\RTDAccess.obj}, COMMON {.\Output\I2c.obj}, COMMON {.\Output\L51_BANK.obj}, COMMON {.\Output\S
>> TARTUP.obj} TO .\Output\RTD2662 BANKAREA (0X1E0C, 0XFFFF) PRINT (.\Output\RTD2662.m51) RAMSIZE (256) BANK0 (?CO?MAIN 
>> (0X1E0C), ?CO?MODE, ?CO?EEPROM, ?CO?SCALER, ?CO?ADJUST_CUSTOMER, ?CO?VIDEO, ?CO?ADJUST) BANK1 (?CO?GMIOSDFUNC (0X1E0C
>> ), ?CO?OSDTABLE003, ?CO?OSDPROC003, ?CO?OSDRES003) OVERLAY (ADJUSTMENUITEM ~ ?PR?OSDPROC003, TEXTOUTCALCWIDTH ~ ?PR?O
>> SDPROC003, DRAW2BIT3X2ICON ~ ?PR?OSDPROC003, GETSHOWINDEX ~ ?PR?OSDPROC003, CSHOWTVNUMBER ~ ?PR?OSDPROC003, GETSHOWCO
>> UNT ~ ?PR?OSDPROC003, LOADCHI_T_FONT ~ ?PR?OSDPROC003, LOADCHI_S_FONT ~ ?PR?OSDPROC003, INITOSDFRAME ~ ?PR?OSDPROC003
>> ) XDATA (0XFB00-0XFEEF)




PROGRAM RECURSIONS REMOVED FROM CALL TREE
=========================================
+--> ?CO?OSDTABLE003
|  | ?PR?MMENUNONEPROC?OSDMENUFUNC003
|  | ?PR?MMENUNONEENTERSUBMENU?OSDMENUFUNC003
|  | ?PR?DRAWMAINMENU?OSDMENUFUNC003
|  | ?PR?INITMAINOSD?OSDMENUFUNC003
<--+ ?PR?OSDMENUFUNC003



MEMORY MODEL: LARGE WITH FLOATING POINT ARITHMETIC


INPUT MODULES INCLUDED:
  .\Output\Timer.obj (TIMER)
  .\Output\Auto.obj (AUTO)
  .\Output\FrameSync.obj (FRAMESYNC)
  .\Output\Main.obj (MAIN)
  .\Output\Mode.obj (MODE)
  .\Output\Struct.obj (STRUCT)
  .\Output\Sync.obj (SYNC)
  .\Output\Adjust.obj (ADJUST)
  .\Output\Adjust_customer.obj (ADJUST_CUSTOMER)
  .\Output\Uart.obj (UART)
  .\Output\video.obj (VIDEO)
  .\Output\eeprom.obj (EEPROM)
  .\Output\Memory.obj (MEMORY)
  .\Output\YPbPr.obj (YPBPR)
  .\Output\Power.obj (POWER)
  .\Output\Scaler.obj (SCALER)
BL51 BANKED LINKER/LOCATER V6.22                                                      01/17/2018  23:35:27  PAGE 2


  .\Output\Source.obj (SOURCE)
  .\Output\Misc.obj (MISC)
  .\Output\Hdmi.obj (HDMI)
  .\Output\Key.obj (KEY)
  .\Output\IR_Nec.obj (IR_NEC)
  .\Output\Key_PCB2660_001.obj (KEY_PCB2660_001)
  .\Output\Key_PCB2660_002.obj (KEY_PCB2660_002)
  .\Output\Key_PCB2660_003.obj (KEY_PCB2660_003)
  .\Output\Key_PCB2660_003_5Key.obj (KEY_PCB2660_003_5KEY)
  .\Output\Key_PCB2660_007.obj (KEY_PCB2660_007)
  .\Output\Func.obj (FUNC)
  .\Output\OsdProc001.obj (OSDPROC001)
  .\Output\OsdMenuFunc001.obj (OSDMENUFUNC001)
  .\Output\OsdRes001.obj (OSDRES001)
  .\Output\OsdTable001.obj (OSDTABLE001)
  .\Output\OsdProc002.obj (OSDPROC002)
  .\Output\OsdMenuFunc002.obj (OSDMENUFUNC002)
  .\Output\OsdRes002.obj (OSDRES002)
  .\Output\OsdTable002.obj (OSDTABLE002)
  .\Output\Osd002Func.obj (OSD002FUNC)
  .\Output\OsdMenuFunc003.obj (OSDMENUFUNC003)
  .\Output\OsdProc003.obj (OSDPROC003)
  .\Output\OsdRes003.obj (OSDRES003)
  .\Output\OsdTable003.obj (OSDTABLE003)
  .\Output\OSD_FAC.obj (OSD_FAC)
  .\Output\OsdPub007.obj (OSDPUB007)
  .\Output\OsdVga007.obj (OSDVGA007)
  .\Output\OsdAV007.obj (OSDAV007)
  .\Output\OsdTV007.obj (OSDTV007)
  .\Output\TV.obj (TV)
  .\Output\JS_6B1.obj (JS_6B1)
  .\Output\JS_6B2.obj (JS_6B2)
  .\Output\TDQ6F6.obj (TDQ6F6)
  .\Output\TN8337.obj (TN8337)
  .\Output\TNJ8355.obj (TNJ8355)
  .\Lib\GmiFunc.LIB (AV_TV)
  .\Lib\GmiFunc.LIB (RTD2662)
  .\Lib\GmiFunc.LIB (GMIBASE)
  .\Output\gmiOSDFunc.obj (GMIOSDFUNC)
  .\Output\GUartSend.obj (GUARTSEND)
  .\Output\Int.obj (INT)
  .\Output\Mcu.obj (MCU)
  .\Output\RTDAccess.obj (RTDACCESS)
  .\Output\I2c.obj (I2C)
  .\Output\L51_BANK.obj (?BANK?SWITCHING)
  .\Output\STARTUP.obj (?C_STARTUP)
  D:\KEIL_V5\C51\LIB\C51FPL.LIB (?C?FPMUL)
  D:\KEIL_V5\C51\LIB\C51FPL.LIB (?C?FCAST)
  D:\KEIL_V5\C51\LIB\C51FPL.LIB (?C?CASTF)
  D:\KEIL_V5\C51\LIB\C51FPL.LIB (?C?FPGETOPN)
  D:\KEIL_V5\C51\LIB\C51L.LIB (?C_INIT)
  D:\KEIL_V5\C51\LIB\C51L.LIB (?C?COPY)
  D:\KEIL_V5\C51\LIB\C51L.LIB (?C?CLDPTR)
  D:\KEIL_V5\C51\LIB\C51L.LIB (?C?CLDOPTR)
  D:\KEIL_V5\C51\LIB\C51L.LIB (?C?CILDPTR)
  D:\KEIL_V5\C51\LIB\C51L.LIB (?C?CSTPTR)
  D:\KEIL_V5\C51\LIB\C51L.LIB (?C?CSTOPTR)
BL51 BANKED LINKER/LOCATER V6.22                                                      01/17/2018  23:35:27  PAGE 3


  D:\KEIL_V5\C51\LIB\C51L.LIB (?C?IMUL)
  D:\KEIL_V5\C51\LIB\C51L.LIB (?C?UIDIV)
  D:\KEIL_V5\C51\LIB\C51L.LIB (?C?SIDIV)
  D:\KEIL_V5\C51\LIB\C51L.LIB (?C?IILDX)
  D:\KEIL_V5\C51\LIB\C51L.LIB (?C?ILDIX)
  D:\KEIL_V5\C51\LIB\C51L.LIB (?C?ILDPTR)
  D:\KEIL_V5\C51\LIB\C51L.LIB (?C?ILDOPTR)
  D:\KEIL_V5\C51\LIB\C51L.LIB (?C?IILDPTR)
  D:\KEIL_V5\C51\LIB\C51L.LIB (?C?ISTPTR)
  D:\KEIL_V5\C51\LIB\C51L.LIB (?C?ISTOPTR)
  D:\KEIL_V5\C51\LIB\C51L.LIB (?C?LMUL)
  D:\KEIL_V5\C51\LIB\C51L.LIB (?C?ULDIV)
  D:\KEIL_V5\C51\LIB\C51L.LIB (?C?SLDIV)
  D:\KEIL_V5\C51\LIB\C51L.LIB (?C?LNEG)
  D:\KEIL_V5\C51\LIB\C51L.LIB (?C?SLCMP)
  D:\KEIL_V5\C51\LIB\C51L.LIB (?C?ULCMP)
  D:\KEIL_V5\C51\LIB\C51L.LIB (?C?ULSHR)
  D:\KEIL_V5\C51\LIB\C51L.LIB (?C?SLSHR)
  D:\KEIL_V5\C51\LIB\C51L.LIB (?C?LSHL)
  D:\KEIL_V5\C51\LIB\C51L.LIB (?C?LLDIDATA)
  D:\KEIL_V5\C51\LIB\C51L.LIB (?C?LLDIDATA0)
  D:\KEIL_V5\C51\LIB\C51L.LIB (?C?LSTIDATA)
  D:\KEIL_V5\C51\LIB\C51L.LIB (?C?LSTXDATA)
  D:\KEIL_V5\C51\LIB\C51L.LIB (?C?LSTKXDATA)
  D:\KEIL_V5\C51\LIB\C51L.LIB (?C?OFFXADD)
  D:\KEIL_V5\C51\LIB\C51L.LIB (?C?CCASE)
  D:\KEIL_V5\C51\LIB\C51L.LIB (?C?ICALL)
  D:\KEIL_V5\C51\LIB\C51L.LIB (?C?LIMUL)
  D:\KEIL_V5\C51\LIB\C51L.LIB (ABS)


LINK MAP OF MODULE:  .\Output\RTD2662 (TIMER)


            TYPE    BASE      LENGTH    RELOCATION   SEGMENT NAME
            -----------------------------------------------------

            * * * * * * *   D A T A   M E M O R Y   * * * * * * *
            REG     0000H     0008H     ABSOLUTE     "REG BANK 0"
            DATA    0008H     0010H     UNIT         ?DT?MAIN
            DATA    0018H     0002H     UNIT         ?DT?SCALER
            DATA    001AH     0002H     UNIT         ?DT?INT
            DATA    001CH     0001H     UNIT         ?BANK?DATA
            IDATA   001DH     0003H     UNIT         ?ID?SYNC
            BIT     0020H.0   0000H.6   UNIT         _BIT_GROUP_
            BIT     0020H.6   0000H.3   UNIT         ?BI?SYNC
            BIT     0021H.1   0000H.2   UNIT         ?BI?TIMER
            BIT     0021H.3   0000H.2   UNIT         ?BI?AUTO
            BIT     0021H.5   0000H.2   UNIT         ?BI?OSDPROC003
            BIT     0021H.7   0000H.2   UNIT         ?BI?AV_TV
            BIT     0022H.1   0000H.1   UNIT         ?BI?MODE
            BIT     0022H.2   0000H.1   UNIT         ?BI?POWER
            BIT     0022H.3   0000H.1   UNIT         ?BI?SOURCE
            BIT     0022H.4   0000H.1   UNIT         ?BI?MISC
            BIT     0022H.5   0000H.1   UNIT         ?BI?GMIOSDFUNC
                    0022H.6   0000H.2                *** GAP ***
            DATA    0023H     000AH     UNIT         _DATA_GROUP_
BL51 BANKED LINKER/LOCATER V6.22                                                      01/17/2018  23:35:27  PAGE 4


            IDATA   002DH     0028H     UNIT         ?ID?TIMER
            IDATA   0055H     001EH     UNIT         ?ID?STRUCT
            IDATA   0073H     000FH     UNIT         ?ID?ADJUST
            IDATA   0082H     0008H     UNIT         ?ID?AUTO
            IDATA   008AH     0007H     UNIT         ?ID?MODE
            IDATA   0091H     0004H     UNIT         ?ID?VIDEO
            IDATA   0095H     0004H     UNIT         ?ID?MISC
            IDATA   0099H     0004H     UNIT         ?ID?KEY
            IDATA   009DH     0002H     UNIT         ?ID?IR_NEC
            IDATA   009FH     0002H     UNIT         ?ID?GMIOSDFUNC
            IDATA   00A1H     0001H     UNIT         ?ID?POWER
            IDATA   00A2H     0001H     UNIT         ?ID?HDMI
            IDATA   00A3H     0001H     UNIT         ?ID?TV
            IDATA   00A4H     0001H     UNIT         ?ID?INT
            IDATA   00A5H     0001H     UNIT         ?ID?RTDACCESS
            IDATA   00A6H     0001H     UNIT         _IDATA_GROUP_
            IDATA   00A7H     0001H     UNIT         ?STACK

            * * * * * * *  X D A T A   M E M O R Y  * * * * * * *
                    0000H     FB00H                  *** GAP ***
            XDATA   FB00H     0080H     ABSOLUTE     
            XDATA   FB80H     0068H     UNIT         _XDATA_GROUP_
            XDATA   FBE8H     0057H     UNIT         ?XD?STRUCT
            XDATA   FC3FH     000AH     UNIT         ?XD?IR_NEC
            XDATA   FC49H     0005H     UNIT         ?XD?GMIOSDFUNC
            XDATA   FC4EH     0004H     UNIT         ?XD?MODE
            XDATA   FC52H     0003H     UNIT         ?XD?VIDEO
            XDATA   FC55H     0003H     UNIT         ?XD?MISC
            XDATA   FC58H     0003H     UNIT         ?XD?HDMI
            XDATA   FC5BH     0003H     UNIT         ?XD?OSDPROC003
            XDATA   FC5EH     0003H     UNIT         ?XD?_GMI_CSELECTINPUTCHANNEL?RTD2662
            XDATA   FC61H     0002H     UNIT         ?XD?SCALER
            XDATA   FC63H     0002H     UNIT         ?XD?AV_TV
            XDATA   FC65H     0001H     UNIT         ?XD?ADJUST
                    FC66H     011AH                  *** GAP ***
            XDATA   FD80H     0100H     ABSOLUTE     
                    FE80H     0080H                  *** GAP ***
            XDATA   FF00H     0001H     ABSOLUTE     
            XDATA   FF01H     0001H     ABSOLUTE     
                    FF02H     0006H                  *** GAP ***
            XDATA   FF08H     0001H     ABSOLUTE     
            XDATA   FF09H     0001H     ABSOLUTE     
            XDATA   FF0AH     0001H     ABSOLUTE     
            XDATA   FF0BH     0001H     ABSOLUTE     
            XDATA   FF0CH     0001H     ABSOLUTE     
            XDATA   FF0DH     0001H     ABSOLUTE     
                    FF0EH     0001H                  *** GAP ***
            XDATA   FF0FH     0001H     ABSOLUTE     
                    FF10H     000BH                  *** GAP ***
            XDATA   FF1BH     0001H     ABSOLUTE     
                    FF1CH     0002H                  *** GAP ***
            XDATA   FF1EH     0001H     ABSOLUTE     
                    FF1FH     0002H                  *** GAP ***
            XDATA   FF21H     0001H     ABSOLUTE     
                    FF22H     0001H                  *** GAP ***
            XDATA   FF23H     0001H     ABSOLUTE     
            XDATA   FF24H     0001H     ABSOLUTE     
BL51 BANKED LINKER/LOCATER V6.22                                                      01/17/2018  23:35:27  PAGE 5


            XDATA   FF25H     0001H     ABSOLUTE     
            XDATA   FF26H     0001H     ABSOLUTE     
            XDATA   FF27H     0001H     ABSOLUTE     
            XDATA   FF28H     0001H     ABSOLUTE     
            XDATA   FF29H     0001H     ABSOLUTE     
            XDATA   FF2AH     0001H     ABSOLUTE     
            XDATA   FF2BH     0001H     ABSOLUTE     
            XDATA   FF2CH     0001H     ABSOLUTE     
                    FF2DH     000DH                  *** GAP ***
            XDATA   FF3AH     0001H     ABSOLUTE     
            XDATA   FF3BH     0001H     ABSOLUTE     
            XDATA   FF3CH     0001H     ABSOLUTE     
            XDATA   FF3DH     0001H     ABSOLUTE     
            XDATA   FF3EH     0001H     ABSOLUTE     
            XDATA   FF3FH     0001H     ABSOLUTE     
            XDATA   FF40H     0001H     ABSOLUTE     
            XDATA   FF41H     0001H     ABSOLUTE     
            XDATA   FF42H     0001H     ABSOLUTE     
            XDATA   FF43H     0001H     ABSOLUTE     
            XDATA   FF44H     0001H     ABSOLUTE     
            XDATA   FF45H     0001H     ABSOLUTE     
            XDATA   FF46H     0001H     ABSOLUTE     
            XDATA   FF47H     0001H     ABSOLUTE     
            XDATA   FF48H     0001H     ABSOLUTE     
            XDATA   FF49H     0001H     ABSOLUTE     
            XDATA   FF4AH     0001H     ABSOLUTE     
            XDATA   FF4BH     0001H     ABSOLUTE     
            XDATA   FF4CH     0001H     ABSOLUTE     
            XDATA   FF4DH     0001H     ABSOLUTE     
            XDATA   FF4EH     0001H     ABSOLUTE     
            XDATA   FF4FH     0001H     ABSOLUTE     
            XDATA   FF50H     0001H     ABSOLUTE     
            XDATA   FF51H     0001H     ABSOLUTE     
            XDATA   FF52H     0001H     ABSOLUTE     
                    FF53H     000DH                  *** GAP ***
            XDATA   FF60H     0001H     ABSOLUTE     
            XDATA   FF61H     0001H     ABSOLUTE     
                    FF62H     0002H                  *** GAP ***
            XDATA   FF64H     0001H     ABSOLUTE     
            XDATA   FF65H     0001H     ABSOLUTE     
            XDATA   FF66H     0001H     ABSOLUTE     
            XDATA   FF67H     0001H     ABSOLUTE     
            XDATA   FF68H     0001H     ABSOLUTE     
            XDATA   FF69H     0001H     ABSOLUTE     
                    FF6AH     0005H                  *** GAP ***
            XDATA   FF6FH     0001H     ABSOLUTE     
                    FF70H     0001H                  *** GAP ***
            XDATA   FF71H     0001H     ABSOLUTE     
                    FF72H     000EH                  *** GAP ***
            XDATA   FF80H     0001H     ABSOLUTE     
            XDATA   FF81H     0001H     ABSOLUTE     
            XDATA   FF82H     0001H     ABSOLUTE     
            XDATA   FF83H     0001H     ABSOLUTE     
            XDATA   FF84H     0001H     ABSOLUTE     
            XDATA   FF85H     0001H     ABSOLUTE     
            XDATA   FF86H     0001H     ABSOLUTE     
            XDATA   FF87H     0001H     ABSOLUTE     
BL51 BANKED LINKER/LOCATER V6.22                                                      01/17/2018  23:35:27  PAGE 6


            XDATA   FF88H     0001H     ABSOLUTE     
            XDATA   FF89H     0001H     ABSOLUTE     
            XDATA   FF8AH     0001H     ABSOLUTE     
            XDATA   FF8BH     0001H     ABSOLUTE     
            XDATA   FF8CH     0001H     ABSOLUTE     
            XDATA   FF8DH     0001H     ABSOLUTE     
            XDATA   FF8EH     0001H     ABSOLUTE     
            XDATA   FF8FH     0001H     ABSOLUTE     
            XDATA   FF90H     0001H     ABSOLUTE     
            XDATA   FF91H     0001H     ABSOLUTE     
            XDATA   FF92H     0001H     ABSOLUTE     
            XDATA   FF93H     0001H     ABSOLUTE     
                    FF94H     0002H                  *** GAP ***
            XDATA   FF96H     0001H     ABSOLUTE     
            XDATA   FF97H     0001H     ABSOLUTE     
            XDATA   FF98H     0001H     ABSOLUTE     
            XDATA   FF99H     0001H     ABSOLUTE     
            XDATA   FF9AH     0001H     ABSOLUTE     
            XDATA   FF9BH     0001H     ABSOLUTE     
            XDATA   FF9CH     0001H     ABSOLUTE     
            XDATA   FF9DH     0001H     ABSOLUTE     
            XDATA   FF9EH     0001H     ABSOLUTE     
            XDATA   FF9FH     0001H     ABSOLUTE     
            XDATA   FFA0H     0001H     ABSOLUTE     
            XDATA   FFA1H     0001H     ABSOLUTE     
            XDATA   FFA2H     0001H     ABSOLUTE     
            XDATA   FFA3H     0001H     ABSOLUTE     
            XDATA   FFA4H     0001H     ABSOLUTE     
                    FFA5H     0001H                  *** GAP ***
            XDATA   FFA6H     0001H     ABSOLUTE     
                    FFA7H     0019H                  *** GAP ***
            XDATA   FFC0H     0001H     ABSOLUTE     
            XDATA   FFC1H     0001H     ABSOLUTE     
            XDATA   FFC2H     0001H     ABSOLUTE     
            XDATA   FFC3H     0001H     ABSOLUTE     
            XDATA   FFC4H     0001H     ABSOLUTE     
            XDATA   FFC5H     0001H     ABSOLUTE     
            XDATA   FFC6H     0001H     ABSOLUTE     
            XDATA   FFC7H     0001H     ABSOLUTE     
            XDATA   FFC8H     0001H     ABSOLUTE     
            XDATA   FFC9H     0001H     ABSOLUTE     
            XDATA   FFCAH     0001H     ABSOLUTE     
            XDATA   FFCBH     0001H     ABSOLUTE     
            XDATA   FFCCH     0001H     ABSOLUTE     
            XDATA   FFCDH     0001H     ABSOLUTE     
            XDATA   FFCEH     0001H     ABSOLUTE     
            XDATA   FFCFH     0001H     ABSOLUTE     
            XDATA   FFD0H     0001H     ABSOLUTE     
            XDATA   FFD1H     0001H     ABSOLUTE     
            XDATA   FFD2H     0001H     ABSOLUTE     
            XDATA   FFD3H     0001H     ABSOLUTE     
            XDATA   FFD4H     0001H     ABSOLUTE     
            XDATA   FFD5H     0001H     ABSOLUTE     
            XDATA   FFD6H     0001H     ABSOLUTE     
            XDATA   FFD7H     0001H     ABSOLUTE     
            XDATA   FFD8H     0001H     ABSOLUTE     
            XDATA   FFD9H     0001H     ABSOLUTE     
BL51 BANKED LINKER/LOCATER V6.22                                                      01/17/2018  23:35:27  PAGE 7


            XDATA   FFDAH     0001H     ABSOLUTE     
            XDATA   FFDBH     0001H     ABSOLUTE     
            XDATA   FFDCH     0001H     ABSOLUTE     
                    FFDDH     000DH                  *** GAP ***
            XDATA   FFEAH     0001H     ABSOLUTE     
                    FFEBH     0002H                  *** GAP ***
            XDATA   FFEDH     0001H     ABSOLUTE     
            XDATA   FFEEH     0001H     ABSOLUTE     
                    FFEFH     0004H                  *** GAP ***
            XDATA   FFF3H     0001H     ABSOLUTE     
            XDATA   FFF4H     0001H     ABSOLUTE     
            XDATA   FFF5H     0001H     ABSOLUTE     
                    FFF6H     0006H                  *** GAP ***
            XDATA   FFFCH     0001H     ABSOLUTE     
            XDATA   FFFDH     0001H     ABSOLUTE     
            XDATA   FFFEH     0001H     ABSOLUTE     

            * * * * * * *   C O D E   M E M O R Y   * * * * * * *
            CODE    0000H     0003H     ABSOLUTE     
            CODE    0003H     0003H     ABSOLUTE     
                    0006H     0005H                  *** GAP ***
            CODE    000BH     0003H     ABSOLUTE     
                    000EH     0005H                  *** GAP ***
            CODE    0013H     0003H     ABSOLUTE     
            CODE    0016H     075AH     UNIT         ?C?LIB_CODE
            CODE    0770H     0090H     UNIT         ?PR?_CSCALERSETDATAPORTBIT?RTDACCESS
            CODE    0800H     0305H     INBLOCK      ?BANK?SELECT
            CODE    0B05H     0167H     UNIT         ?CO?RTDACCESS
            CODE    0C6CH     0113H     UNIT         ?PR?_CSCALERLOADHARDWAREVLCFONT?RTDACCESS
            CODE    0D7FH     0102H     UNIT         ?CO?KEY
            CODE    0E81H     00B5H     UNIT         ?PR?_CI2CWRITE?I2C
            CODE    0F36H     00ADH     UNIT         ?C_INITSEG
            CODE    0FE3H     0095H     UNIT         ?PR?CMCUINITIAL?MCU
            CODE    1078H     0094H     UNIT         ?PR?INTPROCDDCCI?INT
            CODE    110CH     0091H     UNIT         ?C_C51STARTUP
            CODE    119DH     008FH     UNIT         ?PR?CSCALERGETVLD?RTDACCESS
            CODE    122CH     0065H     UNIT         ?PR?_CSCALERCODEW?RTDACCESS
            CODE    1291H     0063H     UNIT         ?PR?INTPROCTIMER0?INT
            CODE    12F4H     005DH     UNIT         ?PR?RTDACCESS
            CODE    1351H     0057H     UNIT         ?PR?_CI2CREAD?I2C
            CODE    13A8H     004CH     UNIT         ?PR?_CSCALERSETDATAPORTBYTE?RTDACCESS
            CODE    13F4H     0044H     UNIT         ?C?LDIV
            CODE    1438H     0039H     UNIT         ?PR?_CI2CWRITESTART?I2C
            CODE    1471H     0031H     UNIT         ?PR?_CSCALERSETBIT?RTDACCESS
            CODE    14A2H     002FH     UNIT         ?PR?_CSCALERREAD?RTDACCESS
            CODE    14D1H     002DH     UNIT         ?CO?RTD2662
            CODE    14FEH     002DH     UNIT         ?PR?_CI2CSENDBYTE?I2C
            CODE    152BH     002CH     UNIT         ?CO?HDMI
            CODE    1557H     0026H     UNIT         ?PR?_CSCALERWRITE?RTDACCESS
            CODE    157DH     0026H     UNIT         ?PR?CSCALERGETBITVLD?RTDACCESS
            CODE    15A3H     0025H     UNIT         ?CO?OSDMENUFUNC003
            CODE    15C8H     0024H     UNIT         ?PR?I2C
            CODE    15ECH     0023H     UNIT         ?PR?DELAY5US?I2C
            CODE    160FH     0021H     UNIT         ?PR?CI2CGETBYTE?I2C
            CODE    1630H     001FH     UNIT         ?PR?_CSCALERWRITEAMOUNT?RTDACCESS
            CODE    164FH     001BH     UNIT         ?PR?_CI2CSTART?I2C
            CODE    166AH     0018H     UNIT         ?CO?IR_NEC
BL51 BANKED LINKER/LOCATER V6.22                                                      01/17/2018  23:35:27  PAGE 8


            CODE    1682H     0018H     UNIT         ?PR?_CSCALERGETBIT?RTDACCESS
            CODE    169AH     0016H     UNIT         ?PR?CI2CGETACK?I2C
            CODE    16B0H     0013H     UNIT         ?PR?_CSCALERSENDADDR?RTDACCESS
            CODE    16C3H     0011H     UNIT         ?PR?_CSCALERSETBYTE?RTDACCESS
            CODE    16D4H     000FH     UNIT         ?PR?MCU
            CODE    16E3H     000CH     UNIT         ?PR?_ABS?ABS
            CODE    16EFH     0009H     UNIT         ?PR?_CSCALERPAGESELECT?RTDACCESS
            CODE    16F8H     0008H     UNIT         ?PR?CI2CSTOP?I2C
            CODE    1700H     001BH     PAGE         ?BANK?SWITCH
            CODE    171BH     0009H     UNIT         ?PR?CI2CSENDNOACK?I2C
            CODE    1724H     0007H     UNIT         ?PR?INTPROCDDCC0?INT
            CODE    172BH     0006H     UNIT         ?PR?CI2CSENDACK?I2C

            * * * * * * *   C O D E   B A N K   0   * * * * * * *
                    0000H     1E0CH                  *** GAP ***
            BANK0   1E0CH     11F3H     UNIT         ?CO?MAIN
            BANK0   2FFFH     07BCH     UNIT         ?CO?MODE
            BANK0   37BBH     009EH     UNIT         ?CO?EEPROM
            BANK0   3859H     03EFH     UNIT         ?CO?SCALER
            BANK0   3C48H     009CH     UNIT         ?CO?ADJUST_CUSTOMER
            BANK0   3CE4H     0292H     UNIT         ?CO?VIDEO
            BANK0   3F76H     000EH     UNIT         ?CO?ADJUST
            BANK0   3F84H     0489H     UNIT         ?PR?CHDMIAUDIOFIRSTTRACKING?HDMI
            BANK0   440DH     03B1H     UNIT         ?PR?ADJUST
            BANK0   47BEH     0381H     UNIT         ?PR?_CADJUSTAPLLFASTLOCK?ADJUST
            BANK0   4B3FH     0376H     UNIT         ?PR?MODE
            BANK0   4EB5H     0354H     UNIT         ?PR?CAUTODOAUTOCLOCK?AUTO
            BANK0   5209H     0335H     UNIT         ?PR?_CADJUSTADCCLOCKYPBPR?ADJUST
            BANK0   553EH     0318H     UNIT         ?PR?AUTO
            BANK0   5856H     030BH     UNIT         ?PR?_CMODESETSCALING?MODE
            BANK0   5B61H     02E5H     UNIT         ?PR?_CADJUSTADCCLOCK?ADJUST
            BANK0   5E46H     02B1H     UNIT         ?PR?_CADJUSTADCCLOCK_OSD?ADJUST
            BANK0   60F7H     02A8H     UNIT         ?PR?CMODESEARCHACCEPTIVEMODEVGA?MODE
            BANK0   639FH     0255H     UNIT         ?PR?CAUTODOAUTOPHASE?AUTO
            BANK0   65F4H     024FH     UNIT         ?PR?ADJUST_CUSTOMER
            BANK0   6843H     0241H     UNIT         ?PR?CMODERESETMODE?MODE
            BANK0   6A84H     0233H     UNIT         ?PR?_CSOURCESCANINPUTPORTDVI?SOURCE
            BANK0   6CB7H     0230H     UNIT         ?PR?_CADJUSTSATURATIONHUE?ADJUST_CUSTOMER
            BANK0   6EE7H     022EH     UNIT         ?PR?CSYNCGETSYNCTYPEAUTORUN?SYNC
            BANK0   7115H     021FH     UNIT         ?PR?_CADJUSTIVS2DVSDELAY?ADJUST
            BANK0   7334H     0214H     UNIT         ?PR?CSYNCPROCESS?SYNC
            BANK0   7548H     0211H     UNIT         ?PR?CAUTOTUNEBALANCE?AUTO
            BANK0   7759H     020BH     UNIT         ?PR?_CADJUSTDPLL?ADJUST
            BANK0   7964H     01FDH     UNIT         ?PR?CFRAMESYNCDO?FRAMESYNC
            BANK0   7B61H     01EAH     UNIT         ?PR?_CADJUSTPEAKINGFILTER?ADJUST_CUSTOMER
            BANK0   7D4BH     01D2H     UNIT         ?PR?EEPROM
            BANK0   7F1DH     01CEH     UNIT         ?PR?CVIDEODISPLAYSET?VIDEO
            BANK0   80EBH     01BDH     UNIT         ?PR?_CADJUSTPHASE?ADJUST
            BANK0   82A8H     0196H     UNIT         ?PR?_CADJUSTGAMMA?ADJUST
            BANK0   843EH     0185H     UNIT         ?PR?_CADJUSTHUESATSET?ADJUST_CUSTOMER
            BANK0   85C3H     017AH     UNIT         ?PR?CHDMIVIDEOSETTING?HDMI
            BANK0   873DH     0178H     UNIT         ?PR?CADJUSTHDMICBCR422?ADJUST
            BANK0   88B5H     0165H     UNIT         ?PR?_CADJUSTMATRIXMULTIPLY?ADJUST_CUSTOMER
            BANK0   8A1AH     015FH     UNIT         ?PR?CAUTODOAUTOPOSITION?AUTO
            BANK0   8B79H     0158H     UNIT         ?PR?CMODESEARCHMODEDVI?MODE
            BANK0   8CD1H     0153H     UNIT         ?PR?_CAUTOPHASESEARCH?AUTO
            BANK0   8E24H     014CH     UNIT         ?PR?_CMODESETDISPLAY?MODE
BL51 BANKED LINKER/LOCATER V6.22                                                      01/17/2018  23:35:27  PAGE 9


            BANK0   8F70H     013EH     UNIT         ?PR?_CACCADJUST?MODE
            BANK0   90AEH     0138H     UNIT         ?PR?_CADJUSTSINE?ADJUST_CUSTOMER
            BANK0   91E6H     0136H     UNIT         ?PR?_CADJUSTSETHUEUVDELTA?ADJUST_CUSTOMER
            BANK0   931CH     0135H     UNIT         ?PR?CMODEDETECTCOMMON?MODE
            BANK0   9451H     0129H     UNIT         ?PR?CFRAMESYNCFASTDO?FRAMESYNC
            BANK0   957AH     0129H     UNIT         ?PR?CMODEGETSCALESETTING?MODE
            BANK0   96A3H     0124H     UNIT         ?PR?_CADJUSTCOSINE?ADJUST_CUSTOMER
            BANK0   97C7H     0120H     UNIT         ?PR?CKEYSCAN?KEY_PCB2660_003_5KEY
            BANK0   98E7H     011AH     UNIT         ?PR?CMODESETFREERUN?MODE
            BANK0   9A01H     0113H     UNIT         ?PR?_CAUTOMEASUREPOSITIONV?AUTO
            BANK0   9B14H     010DH     UNIT         ?PR?CMODESTARTUPVGA?MODE
            BANK0   9C21H     010CH     UNIT         ?PR?_CSOURCESCANINPUTPORTVGA?SOURCE
            BANK0   9D2DH     0104H     UNIT         ?PR?_GMI_CSELECTINPUTCHANNEL?RTD2662
            BANK0   9E31H     0102H     UNIT         ?PR?CEEPROMLOADDEFAULT?EEPROM
            BANK0   9F33H     0101H     UNIT         ?PR?_CADJUSTYPBPRSATURATION?ADJUST_CUSTOMER
            BANK0   A034H     00FEH     UNIT         ?PR?CMODEMEASUREDATA?MODE
            BANK0   A132H     00FAH     UNIT         ?PR?_CAUTOMEASURECOLOR?AUTO
            BANK0   A22CH     00F3H     UNIT         ?PR?CSETMODEREADY?SYNC
            BANK0   A31FH     00E3H     UNIT         ?PR?_CMODECHECKFIFOMODEVGA?MODE
            BANK0   A402H     00E0H     UNIT         ?PR?CSETVIDEOPARAMETER?VIDEO
            BANK0   A4E2H     00DBH     UNIT         ?PR?_CMODECOMPAREPRESETMODEVGA?MODE
            BANK0   A5BDH     00DAH     UNIT         ?PR?_CAUTOTUNEDEVICEOFFSET?AUTO
            BANK0   A697H     00D7H     UNIT         ?PR?_CAUTOMEASUREPOSITIONH?AUTO
            BANK0   A76EH     00D2H     UNIT         ?PR?CCHECKHDMIMODE?MODE
            BANK0   A840H     00C8H     UNIT         ?PR?CADJUSTUPDATECENTERDATA?ADJUST
            BANK0   A908H     00C7H     UNIT         ?PR?CAUTODOAUTOCONFIG?AUTO
            BANK0   A9CFH     00C3H     UNIT         ?PR?_CMODESETCAPTUREWINDOW?MODE
            BANK0   AA92H     00BDH     UNIT         ?PR?_CADJUSTCHECKADCCLOCKRANGE?ADJUST
            BANK0   AB4FH     00B6H     UNIT         ?PR?CMODESETUPMODEVGA?MODE
            BANK0   AC05H     00B6H     UNIT         ?PR?CMODESTARTUPDVI?MODE
            BANK0   ACBBH     00B4H     UNIT         ?PR?CSCALERRESET?SCALER
            BANK0   AD6FH     00B2H     UNIT         ?PR?CAUTOWAITFINISH?AUTO
            BANK0   AE21H     00ACH     UNIT         ?PR?CADJUSTINTERLACEIVS2DVSDELAY?ADJUST
            BANK0   AECDH     00ACH     UNIT         ?PR?CVIDEOPROCESS?VIDEO
            BANK0   AF79H     00A7H     UNIT         ?PR?CMODEHANDLER?MODE
            BANK0   B020H     00A5H     UNIT         ?PR?CMODESETUPCOLORCONVERSION?MODE
            BANK0   B0C5H     00A3H     UNIT         ?PR?CMODEINTERLACECHECK?MODE
            BANK0   B168H     009DH     UNIT         ?PR?CADJUSTSETSHARPNESSTABLE?ADJUST
            BANK0   B205H     009CH     UNIT         ?PR?CMODEGETMODETABLEINFO?MODE
            BANK0   B2A1H     009BH     UNIT         ?PR?_CSOURCESCANINPUTPORT?SOURCE
            BANK0   B33CH     0099H     UNIT         ?PR?_CAUTOTUNEDEVICEGAIN?AUTO
            BANK0   B3D5H     0094H     UNIT         ?PR?CMODESEARCHMODEVGA?MODE
            BANK0   B469H     0093H     UNIT         ?PR?_CAUTOCHANGEADCGAIN?AUTO
            BANK0   B4FCH     0093H     UNIT         ?PR?_CAUTOCHANGEADCOFFSET?AUTO
            BANK0   B58FH     0093H     UNIT         ?PR?CIRKEYSCAN?IR_NEC
            BANK0   B622H     0092H     UNIT         ?PR?CADJUSTINTERLACEIVS2DVSPROTECTION?ADJUST
            BANK0   B6B4H     008BH     UNIT         ?PR?_CMODECOMPAREFIFOMODEVGA?MODE
            BANK0   B73FH     0089H     UNIT         ?PR?GMI_CVIDEOCURRENTCOLOR?RTD2662
            BANK0   B7C8H     0085H     UNIT         ?PR?CMODEISCHANGE?MODE
            BANK0   B84DH     0083H     UNIT         ?PR?CSYNCHANDLER?SYNC
            BANK0   B8D0H     0083H     UNIT         ?PR?_CADJUSTCOLORGAMMACAL?ADJUST_CUSTOMER
            BANK0   B953H     0082H     UNIT         ?PR?CEEPROMINITIALCENTERMODEDATA?EEPROM
            BANK0   B9D5H     007BH     UNIT         ?PR?GMI_CVIDEOISEXIST?AV_TV
            BANK0   BA50H     0079H     UNIT         ?PR?CIRDAINITIAL?IR_NEC
            BANK0   BAC9H     0078H     UNIT         ?PR?CDDCCIINITIAL?MISC
            BANK0   BB41H     0077H     UNIT         ?PR?_CHANGE_VDC_GAIN?AUTO
            BANK0   BBB8H     0073H     UNIT         ?PR?_CGETTARGETVALUE?AUTO
BL51 BANKED LINKER/LOCATER V6.22                                                      01/17/2018  23:35:27  PAGE 10


            BANK0   BC2BH     0073H     UNIT         ?PR?CEEPROMINITIALMODEDATA?EEPROM
            BANK0   BC9EH     0072H     UNIT         ?PR?_CTIMERACTIVETIMEREVENT?TIMER
            BANK0   BD10H     0072H     UNIT         ?PR?CSCALERINITIALDISPLAYINTERFACE?SCALER
            BANK0   BD82H     0071H     UNIT         ?PR?CHDMIENABLEAUDIOOUTPUT?HDMI
            BANK0   BDF3H     006FH     UNIT         ?PR?HDMI
            BANK0   BE62H     006EH     UNIT         ?PR?CMODESETUPMODEDVI?MODE
            BANK0   BED0H     006DH     UNIT         ?PR?CGMIFUNC?GMIBASE
            BANK0   BF3DH     006BH     UNIT         ?PR?_CFRAMESYNCSPREADSPECTRUMFINETUNE?FRAMESYNC
            BANK0   BFA8H     006AH     UNIT         ?PR?_CADJUSTGAMMATABLE?ADJUST
            BANK0   C012H     006AH     UNIT         ?PR?CADJUSTCONTRAST?ADJUST_CUSTOMER
            BANK0   C07CH     0069H     UNIT         ?PR?CSETVIDEOMODEREADY?VIDEO
            BANK0   C0E5H     0068H     UNIT         ?PR?CSYNCMEASURESYNCTYPE?SYNC
            BANK0   C14DH     0067H     UNIT         ?PR?CADJUSTVPOSITION?ADJUST
            BANK0   C1B4H     0065H     UNIT         ?PR?CGETCURRSOURCEPOS?FUNC
            BANK0   C219H     0065H     UNIT         ?PR?_CSETCURRSOURCE?FUNC
            BANK0   C27EH     0063H     UNIT         ?PR?_CADJUSTENABLEHDMIWATCHDOG?ADJUST
            BANK0   C2E1H     0061H     UNIT         ?PR?GMI_CVIDEOMODECHANGE?AV_TV
            BANK0   C342H     005FH     UNIT         ?PR?_CADJUSTDISABLEHDMIWATCHDOG?ADJUST
            BANK0   C3A1H     005CH     UNIT         ?PR?CMISCSETPINSHARE?MISC
            BANK0   C3FDH     005BH     UNIT         ?PR?_CTIMERREACTIVETIMEREVENT?TIMER
            BANK0   C458H     005BH     UNIT         ?PR?_BCURRSOURCESUPPORT?FUNC
            BANK0   C4B3H     005AH     UNIT         ?PR?CSYNCSEARCHSYNCTYPEDVI?SYNC
            BANK0   C50DH     005AH     UNIT         ?PR?_CSCALERGETDATAPORTBYTE?SCALER
            BANK0   C567H     0058H     UNIT         ?PR?CMAINUSERINITIAL?MAIN
            BANK0   C5BFH     0057H     UNIT         ?PR?_CAUTOWAITFORIVS?AUTO
            BANK0   C616H     0052H     UNIT         ?PR?_CTIMERWAITFOREVENT?TIMER
            BANK0   C668H     0052H     UNIT         ?PR?_CHANGE_VDC_OFFSET?AUTO
            BANK0   C6BAH     0052H     UNIT         ?PR?CCALCPANELWDITH?MODE
            BANK0   C70CH     0051H     UNIT         ?PR?_CMODESETUPETCS?MODE
            BANK0   C75DH     0051H     UNIT         ?PR?_CGETADCVALUE?KEY
            BANK0   C7AEH     0050H     UNIT         ?PR?CKEYMESSAGEPROC?KEY_PCB2660_003_5KEY
            BANK0   C7FEH     0050H     UNIT         ?PR?CGETCURRENTTVCOLOR?AV_TV
            BANK0   C84EH     004FH     UNIT         ?PR?_CADJUSTDIGITALFILTER?ADJUST
            BANK0   C89DH     004FH     UNIT         ?PR?CEEPROMSAVEUSERFIFOMODEDATA?EEPROM
            BANK0   C8ECH     004EH     UNIT         ?PR?_CVIDEOSETSATURATION?ADJUST_CUSTOMER
            BANK0   C93AH     004EH     UNIT         ?PR?VIDEO
            BANK0   C988H     004DH     UNIT         ?PR?FRAMESYNC
            BANK0   C9D5H     004DH     UNIT         ?PR?BCHANGESOURCE?FUNC
            BANK0   CA22H     004BH     UNIT         ?PR?_CMODECOMPAREMODEDVI?MODE
            BANK0   CA6DH     004BH     UNIT         ?PR?CEEPROMSTARTUPCHECK?EEPROM
            BANK0   CAB8H     004AH     UNIT         ?PR?_CADJUSTGETAPLLSETTING?ADJUST
            BANK0   CB02H     0049H     UNIT         ?PR?CVIDEOINITIAL?VIDEO
            BANK0   CB4BH     0048H     UNIT         ?PR?CSCALERINITIAL?SCALER
            BANK0   CB93H     0047H     UNIT         ?PR?_CEEPROMLOADMODEDATA?EEPROM
            BANK0   CBDAH     0046H     UNIT         ?PR?CSETVIDEOCOLOR?VIDEO
            BANK0   CC20H     0046H     UNIT         ?PR?_GMI_CADJUSTVDCHUE?RTD2662
            BANK0   CC66H     0045H     UNIT         ?PR?CFRAMESYNCDETECT?FRAMESYNC
            BANK0   CCABH     0044H     UNIT         ?PR?_CADJUSTBACKGROUNDCOLOR?ADJUST
            BANK0   CCEFH     0044H     UNIT         ?PR?CPOWERDOWNCUSTOMERCONTROL?POWER
            BANK0   CD33H     0043H     UNIT         ?PR?TIMER
            BANK0   CD76H     0043H     UNIT         ?PR?_CFRAMESYNCTESTSYNC?FRAMESYNC
            BANK0   CDB9H     0041H     UNIT         ?PR?CHANGESOURCEHANDLER?FUNC
            BANK0   CDFAH     0040H     UNIT         ?PR?CSCALERINITIALDISPLAYOUTPUT?SCALER
            BANK0   CE3AH     0040H     UNIT         ?PR?CKEYHANDLER?KEY
            BANK0   CE7AH     003EH     UNIT         ?PR?_CADJUSTDITHER?ADJUST
            BANK0   CEB8H     003DH     UNIT         ?PR?_CSETPWM?ADJUST
            BANK0   CEF5H     003DH     UNIT         ?PR?CPOWERCONTROL?POWER
BL51 BANKED LINKER/LOCATER V6.22                                                      01/17/2018  23:35:27  PAGE 11


            BANK0   CF32H     003CH     UNIT         ?PR?_CTIMERCANCELTIMEREVENT?TIMER
            BANK0   CF6EH     003CH     UNIT         ?PR?CBLUEBACKGROUNDHANDLER?AV_TV
            BANK0   CFAAH     003BH     UNIT         ?PR?CTIMERHANDLER?TIMER
            BANK0   CFE5H     003BH     UNIT         ?PR?CSETVOLUME?FUNC
            BANK0   D020H     003AH     UNIT         ?PR?CADJUSTADCOFFSET?ADJUST
            BANK0   D05AH     0039H     UNIT         ?PR?CPOWERUPCUSTOMERCONTROL?POWER
            BANK0   D093H     0038H     UNIT         ?PR?BCNOCHECKSYNCMODE?SYNC
            BANK0   D0CBH     0038H     UNIT         ?PR?CEEPROMLOADSYSTEMDATADEFAULT?EEPROM
            BANK0   D103H     0037H     UNIT         ?PR?CMODECONNECTISCHANGE?MODE
            BANK0   D13AH     0037H     UNIT         ?PR?CADJUSTADCGAIN?ADJUST
            BANK0   D171H     0036H     UNIT         ?PR?_CADJUSTMZHUESAT?ADJUST_CUSTOMER
            BANK0   D1A7H     0036H     UNIT         ?PR?_CEEPROMLOADCENTERMODEDATA?EEPROM
            BANK0   D1DDH     0035H     UNIT         ?PR?CPOWERRSDSOFF?POWER
            BANK0   D212H     0034H     UNIT         ?PR?CCUSTOMERINITIAL?SCALER
            BANK0   D246H     0033H     UNIT         ?PR?CADJUSTBRIGHTNESS?ADJUST_CUSTOMER
            BANK0   D279H     0032H     UNIT         ?PR?CPOWERDISPLAYPORTON?POWER
            BANK0   D2ABH     0032H     UNIT         ?PR?GMI_CINITIALVDC?RTD2662
            BANK0   D2DDH     0031H     UNIT         ?PR?_CADJUSTENABLEWATCHDOG?ADJUST
            BANK0   D30EH     0030H     UNIT         ?PR?CCALCPANELDHEND?MODE
            BANK0   D33EH     0030H     UNIT         ?PR?CMISCAPPLYDOUBLEBUFFER?MISC
            BANK0   D36EH     002FH     UNIT         ?PR?_CADJUSTDCLKOFFSET?ADJUST
            BANK0   D39DH     002FH     UNIT         ?PR?_CEEPROMSAVEMODEDATA?EEPROM
            BANK0   D3CCH     002FH     UNIT         ?PR?CKEYPOWERKEYPROC?KEY
            BANK0   D3FBH     002EH     UNIT         ?PR?_CTIMERCOUNTDOWNEVENTPROC?TIMER
            BANK0   D429H     002EH     UNIT         ?PR?CADJUSTBACKLIGHT?ADJUST_CUSTOMER
            BANK0   D457H     002DH     UNIT         ?PR?CMAINSYSTEMINITIAL?MAIN
            BANK0   D484H     002DH     UNIT         ?PR?_CADJUSTIVSDELAY?ADJUST
            BANK0   D4B1H     002DH     UNIT         ?PR?CADJUSTHDCP?ADJUST
            BANK0   D4DEH     002DH     UNIT         ?PR?CKEYSCANREADY?KEY
            BANK0   D50BH     002DH     UNIT         ?PR?_CKEYMESSAGECONVERT?KEY
            BANK0   D538H     002CH     UNIT         ?PR?_CEEPROMWRITE?EEPROM
            BANK0   D564H     002CH     UNIT         ?PR?_CEEPROMREAD?EEPROM
            BANK0   D590H     002BH     UNIT         ?PR?CAUTODOWHITEBALANCE?AUTO
            BANK0   D5BBH     002BH     UNIT         ?PR?_CAUTOREADPHASEINFO?AUTO
            BANK0   D5E6H     002AH     UNIT         ?PR?CCALCRATIO?MODE
            BANK0   D610H     002AH     UNIT         ?PR?CSYNCSEARCHSYNCTYPEVGA?SYNC
            BANK0   D63AH     0029H     UNIT         ?PR?CADJUSTSETDIGITALCAPTURE?ADJUST
            BANK0   D663H     0029H     UNIT         ?PR?_CINITSOUNDCHANNEL?FUNC
            BANK0   D68CH     0027H     UNIT         ?PR?CMODESYNCTIMEOUTCOUNTDOWNEVENT?MODE
            BANK0   D6B3H     0026H     UNIT         ?PR?CMODEPOWERSAVINGEVENT?MODE
            BANK0   D6D9H     0026H     UNIT         ?PR?CSYNCMODIFYPOLARITYVGA?SYNC
            BANK0   D6FFH     0026H     UNIT         ?PR?CPOWERRSDSON?POWER
            BANK0   D725H     0026H     UNIT         ?PR?GMI_CMODELOCKED?RTD2662
            BANK0   D74BH     0025H     UNIT         ?PR?CTIMERDECREASETIMERCNT?TIMER
            BANK0   D770H     0025H     UNIT         ?PR?CMODEMEASUREREADY?MODE
            BANK0   D795H     0024H     UNIT         ?PR?CSCALERENABLEDISPLAYOUTPUT?SCALER
            BANK0   D7B9H     0023H     UNIT         ?PR?CEEPROMINITIALUSERFIFOMODEDATA?EEPROM
            BANK0   D7DCH     0023H     UNIT         ?PR?CEEPROMSAVEADCDATA?EEPROM
            BANK0   D7FFH     0022H     UNIT         ?PR?CMODESEARCHDISPLAYMODE?MODE
            BANK0   D821H     0022H     UNIT         ?PR?CMODEHDMITIMEOUTCOUNTDOWNEVENT?MODE
            BANK0   D843H     0022H     UNIT         ?PR?_CADJUSTSPREADSPECTRUMRANGE?ADJUST
            BANK0   D865H     0022H     UNIT         ?PR?CEEPROMLOADBRICONDATA?EEPROM
            BANK0   D887H     0022H     UNIT         ?PR?CSETBLUEBACKGROUND?AV_TV
            BANK0   D8A9H     0021H     UNIT         ?PR?_CADJUSTIHSDELAY?ADJUST
            BANK0   D8CAH     0021H     UNIT         ?PR?_CEEPROMSAVECENTERMODEDATA?EEPROM
            BANK0   D8EBH     0021H     UNIT         ?PR?CPOWERPANELON?POWER
            BANK0   D90CH     0021H     UNIT         ?PR?CPOWERPANELOFF?POWER
BL51 BANKED LINKER/LOCATER V6.22                                                      01/17/2018  23:35:27  PAGE 12


            BANK0   D92DH     0021H     UNIT         ?PR?CIRDAREADDATA?IR_NEC
            BANK0   D94EH     0020H     UNIT         ?PR?_CTIMERPOLLINGEVENTPROC?TIMER
            BANK0   D96EH     0020H     UNIT         ?PR?CMODESETUPDISPLAY?MODE
            BANK0   D98EH     001FH     UNIT         ?PR?CMODESETUPCOLORPROCESS?MODE
            BANK0   D9ADH     001FH     UNIT         ?PR?CEEPROMLOADHUESATDATADEFAULT?EEPROM
            BANK0   D9CCH     001EH     UNIT         ?PR?CCALCPANELDHSTA?MODE
            BANK0   D9EAH     001EH     UNIT         ?PR?CEEPROMLOADADCDATADEFAULT?EEPROM
            BANK0   DA08H     001EH     UNIT         ?PR?CEEPROMLOADYPBPRDATADEFAULT?EEPROM
            BANK0   DA26H     001DH     UNIT         ?PR?_CHANGE_DEVICE_GAIN?AUTO
            BANK0   DA43H     001DH     UNIT         ?PR?_CHANGE_DEVICE_OFFSET?AUTO
            BANK0   DA60H     001DH     UNIT         ?PR?CADJUSTSHARPNESSFORSCALEUP?ADJUST
            BANK0   DA7DH     001DH     UNIT         ?PR?CADJUSTSHARPNESSFORSCALEDOWN?ADJUST
            BANK0   DA9AH     001DH     UNIT         ?PR?POWER
            BANK0   DAB7H     001DH     UNIT         ?PR?SCALER
            BANK0   DAD4H     001CH     UNIT         ?PR?MAIN?MAIN
            BANK0   DAF0H     001CH     UNIT         ?PR?CADJUSTSETBRIGHTNESS?ADJUST
            BANK0   DB0CH     001CH     UNIT         ?PR?CADJUSTSETCONTRAST?ADJUST
            BANK0   DB28H     001CH     UNIT         ?PR?CHECKINTERLACE?ADJUST
            BANK0   DB44H     001CH     UNIT         ?PR?CEEPROMLOADOSDUSERDATADEFAULT?EEPROM
            BANK0   DB60H     001CH     UNIT         ?PR?CEEPROMLOADBRICONDATADEFAULT?EEPROM
            BANK0   DB7CH     001CH     UNIT         ?PR?CPOWERADCAPLLON?POWER
            BANK0   DB98H     001CH     UNIT         ?PR?CPOWERADCAPLLOFF?POWER
            BANK0   DBB4H     001BH     UNIT         ?PR?CCALCCURRENTMODERATIO?MODE
            BANK0   DBCFH     001BH     UNIT         ?PR?_CADJUSTDISABLEWATCHDOG?ADJUST
            BANK0   DBEAH     001BH     UNIT         ?PR?_CGETINPUTSOURCENUM?EEPROM
            BANK0   DC05H     001AH     UNIT         ?PR?CVIDEOSOFTRESET?VIDEO
            BANK0   DC1FH     001AH     UNIT         ?PR?CEEPROMLOADADCDATA?EEPROM
            BANK0   DC39H     001AH     UNIT         ?PR?CPOWERDISPLAYPORTOFF?POWER
            BANK0   DC53H     0019H     UNIT         ?PR?_CTIMERDELAYXMS?TIMER
            BANK0   DC6CH     0019H     UNIT         ?PR?CEEPROMSAVEBRICONDATA?EEPROM
            BANK0   DC85H     0019H     UNIT         ?PR?KEY
            BANK0   DC9EH     0017H     UNIT         ?PR?CMODEDETECT?MODE
            BANK0   DCB5H     0016H     UNIT         ?PR?CMODEDISPLAYACTIVEMODE?MODE
            BANK0   DCCBH     0016H     UNIT         ?PR?_CVIDEOSETCONTRAST?ADJUST_CUSTOMER
            BANK0   DCE1H     0016H     UNIT         ?PR?BSOURCEVIDEO?SOURCE
            BANK0   DCF7H     0015H     UNIT         ?PR?CHDMIAUDIOFIFODETECT?HDMI
            BANK0   DD0CH     0015H     UNIT         ?PR?AV_TV
            BANK0   DD21H     0014H     UNIT         ?PR?_CVIDEOSETVDCSATURATION?VIDEO
            BANK0   DD35H     0014H     UNIT         ?PR?_CVIDEOSETVDCCONTRAST?VIDEO
            BANK0   DD49H     0014H     UNIT         ?PR?_CVIDEOSETVDCBRIGHTNESS?VIDEO
            BANK0   DD5DH     0014H     UNIT         ?PR?CEEPROMLOADCOLORTEMPDATADEFAULT?EEPROM
            BANK0   DD71H     0014H     UNIT         ?PR?CHDMIFORMATDETECT?HDMI
            BANK0   DD85H     0013H     UNIT         ?PR?CPOWERHANDLER?POWER
            BANK0   DD98H     0013H     UNIT         ?PR?SOURCE
            BANK0   DDABH     0012H     UNIT         ?PR?CTIMERINITIALTIMEREVENT?TIMER
            BANK0   DDBDH     0012H     UNIT         ?PR?CADJUSTSETYPBPRRHUE?ADJUST
            BANK0   DDCFH     0012H     UNIT         ?PR?CADJUSTSETYPBPRGHUE?ADJUST
            BANK0   DDE1H     0012H     UNIT         ?PR?CADJUSTSETYPBPRBHUE?ADJUST
            BANK0   DDF3H     0012H     UNIT         ?PR?CSCALERDISABLEDISPLAYOUTPUT?SCALER
            BANK0   DE05H     0012H     UNIT         ?PR?_CGETSOURCEPORTTYPE?SOURCE
            BANK0   DE17H     0010H     UNIT         ?PR?CMODEAUTOMEASUREON?MODE
            BANK0   DE27H     0010H     UNIT         ?PR?CVIDEOSETVDCCONBRICUSTOMER?VIDEO
            BANK0   DE37H     0010H     UNIT         ?PR?CEEPROMLOADTVDATADEFAULT?EEPROM
            BANK0   DE47H     0010H     UNIT         ?PR?CEEPROMLOADAUDIODATADEFAULT?EEPROM
            BANK0   DE57H     0010H     UNIT         ?PR?CSOURCEHANDLER?SOURCE
            BANK0   DE67H     0010H     UNIT         ?PR?CMISCMODEMEASUREPOLLINGEVENT?MISC
            BANK0   DE77H     0010H     UNIT         ?PR?CMISCMEASURERESULTPOPPOLLINGEVENT?MISC
BL51 BANKED LINKER/LOCATER V6.22                                                      01/17/2018  23:35:27  PAGE 13


            BANK0   DE87H     0010H     UNIT         ?PR?CMISCAUTOMEASUREPOLLINGEVENT?MISC
            BANK0   DE97H     0010H     UNIT         ?PR?CMISCAPPLYDOUBLEBUFFERPOLLINGEVENT?MISC
            BANK0   DEA7H     0010H     UNIT         ?PR?GETVIRTUALKEY?MISC
            BANK0   DEB7H     000FH     UNIT         ?PR?_CFRAMESYNCLASTLINEFINETUNE?FRAMESYNC
            BANK0   DEC6H     000FH     UNIT         ?PR?SYNC
            BANK0   DED5H     000FH     UNIT         ?PR?CADJUSTTMDSCAPTURECHECK?ADJUST
            BANK0   DEE4H     000FH     UNIT         ?PR?CMISCHSYNCTYPEAUTORUNFLAGPOLLINGEVENT?MISC
            BANK0   DEF3H     000FH     UNIT         ?PR?CMUTEON?FUNC
            BANK0   DF02H     000EH     UNIT         ?PR?CMODENOSIGNALEVENT?MODE
            BANK0   DF10H     000EH     UNIT         ?PR?CMODENOCABLEEVENT?MODE
            BANK0   DF1EH     000EH     UNIT         ?PR?CMODENOSUPPORTEVENT?MODE
            BANK0   DF2CH     000EH     UNIT         ?PR?CADJUSTTMDSERRORCORRECTIONON?ADJUST
            BANK0   DF3AH     000EH     UNIT         ?PR?CVIDEOOUTPUTDISABLE?VIDEO
            BANK0   DF48H     000EH     UNIT         ?PR?CPOWERLVDSON?POWER
            BANK0   DF56H     000EH     UNIT         ?PR?CPOWERLVDSOFF?POWER
            BANK0   DF64H     000EH     UNIT         ?PR?CPOWERDPLLOFF?POWER
            BANK0   DF72H     000EH     UNIT         ?PR?CMISCCLEARSTATUSREGISTER?MISC
            BANK0   DF80H     000DH     UNIT         ?PR?CPOWERPANELPOWERON?POWER
            BANK0   DF8DH     000CH     UNIT         ?PR?CEEPROMSAVESYSTEMDATA?EEPROM
            BANK0   DF99H     000CH     UNIT         ?PR?CEEPROMLOADSYSTEMDATA?EEPROM
            BANK0   DFA5H     000CH     UNIT         ?PR?CPOWERPANELPOWEROFF?POWER
            BANK0   DFB1H     000BH     UNIT         ?PR?CPOWERLIGHTPOWERON?POWER
            BANK0   DFBCH     000BH     UNIT         ?PR?CPOWERLIGHTPOWEROFF?POWER
            BANK0   DFC7H     000BH     UNIT         ?PR?RTD2662
            BANK0   DFD2H     000AH     UNIT         ?PR?_CEEPROMLOADUSERFIFOMODEDATA?EEPROM
            BANK0   DFDCH     000AH     UNIT         ?PR?CKEYINITIAL?KEY
            BANK0   DFE6H     0009H     UNIT         ?PR?CMODEAUTOMEASUREOFF?MODE
            BANK0   DFEFH     0009H     UNIT         ?PR?CADJUSTSYNCPROCESSORMEASURESTART?ADJUST
            BANK0   DFF8H     0009H     UNIT         ?PR?CEEPROMWRITEVERSION?EEPROM
            BANK0   E001H     0009H     UNIT         ?PR?CPOWERLEDGREEN?POWER
            BANK0   E00AH     0009H     UNIT         ?PR?CPOWERLEDORANGE?POWER
            BANK0   E013H     0009H     UNIT         ?PR?CPOWERTMDSON?POWER
            BANK0   E01CH     0009H     UNIT         ?PR?CMISCENABLEDOUBLEBUFFER?MISC
            BANK0   E025H     0009H     UNIT         ?PR?CMISCDISABLEDOUBLEBUFFER?MISC
            BANK0   E02EH     0008H     UNIT         ?PR?CADJUSTHPOSITION?ADJUST
            BANK0   E036H     0008H     UNIT         ?PR?CADJUSTPEAKINGCODING?ADJUST_CUSTOMER
            BANK0   E03EH     0008H     UNIT         ?PR?CPOWERLEDRED?POWER
            BANK0   E046H     0008H     UNIT         ?PR?CINITINPUTSOURCE?FUNC
            BANK0   E04EH     0007H     UNIT         ?PR?CMODESTABLECOUNTDOWNEVENT?MODE
            BANK0   E055H     0007H     UNIT         ?PR?CHDMIAUDIOWAITINGFLAGREADYEVEN?HDMI
            BANK0   E05CH     0007H     UNIT         ?PR?CKEYSCANREADYTIMEREVENT?KEY
            BANK0   E063H     0007H     UNIT         ?PR?CKEYREPEATENABLETIMEREVENT?KEY
            BANK0   E06AH     0007H     UNIT         ?PR?KEY_PCB2660_003_5KEY
            BANK0   E071H     0007H     UNIT         ?PR?CMUTEOFF?FUNC
            BANK0   E078H     0006H     UNIT         ?PR?CADJUSTADCGAINOFFSET?ADJUST
            BANK0   E07EH     0006H     UNIT         ?PR?CEEPROMSAVEOSDUSERDATA?EEPROM
            BANK0   E084H     0006H     UNIT         ?PR?CEEPROMLOADOSDUSERDATA?EEPROM
            BANK0   E08AH     0006H     UNIT         ?PR?CEEPROMSAVECOLORTEMPDATA?EEPROM
            BANK0   E090H     0006H     UNIT         ?PR?CEEPROMLOADCOLORTEMPDATA?EEPROM
            BANK0   E096H     0006H     UNIT         ?PR?CEEPROMSAVETVDATA?EEPROM
            BANK0   E09CH     0006H     UNIT         ?PR?CEEPROMLOADTVDATA?EEPROM
            BANK0   E0A2H     0006H     UNIT         ?PR?CEEPROMSAVEAUDIODATA?EEPROM
            BANK0   E0A8H     0006H     UNIT         ?PR?CEEPROMLOADAUDIODATA?EEPROM
            BANK0   E0AEH     0006H     UNIT         ?PR?CEEPROMSAVEHUESATDATA?EEPROM
            BANK0   E0B4H     0006H     UNIT         ?PR?CEEPROMLOADHUESATDATA?EEPROM
            BANK0   E0BAH     0005H     UNIT         ?PR?_CADJUSTYPBPRHUE?ADJUST_CUSTOMER
            BANK0   E0BFH     0003H     UNIT         ?PR?CPOWERLEDON?POWER
BL51 BANKED LINKER/LOCATER V6.22                                                      01/17/2018  23:35:27  PAGE 14


            BANK0   E0C2H     0003H     UNIT         ?PR?CPOWERLEDOFF?POWER
            BANK0   E0C5H     0003H     UNIT         ?PR?CPOWERLEDSLEEP?POWER
            BANK0   E0C8H     0001H     UNIT         ?PR?CMODEMODIFYVTOTAL?MODE
            BANK0   E0C9H     0001H     UNIT         ?PR?CVIDEOOUTPUTENABLE?VIDEO
            BANK0   E0CAH     0001H     UNIT         ?PR?CKEYPOWERKEYMIX?KEY

            * * * * * * *   C O D E   B A N K   1   * * * * * * *
                    0000H     1E0CH                  *** GAP ***
            BANK1   1E0CH     0007H     UNIT         ?CO?GMIOSDFUNC
            BANK1   1E13H     051EH     UNIT         ?CO?OSDTABLE003
            BANK1   2331H     0004H     UNIT         ?CO?OSDPROC003
            BANK1   2335H     5910H     UNIT         ?CO?OSDRES003
            BANK1   7C45H     041EH     UNIT         ?PR?OSDMENUFUNC003
            BANK1   8063H     020BH     UNIT         ?PR?_CSHOWHDMIMODE?OSDMENUFUNC003
            BANK1   826EH     01CCH     UNIT         ?PR?GMIOSDFUNC
            BANK1   843AH     0180H     UNIT         ?PR?CSHOWNOTE?OSDPROC003
            BANK1   85BAH     0177H     UNIT         ?PR?OSDPROC003
            BANK1   8731H     016DH     UNIT         ?PR?DRAWSOURCEMENU?OSDMENUFUNC003
            BANK1   889EH     0165H     UNIT         ?PR?COSDSYSTEMFLOWPROC?OSDPROC003
            BANK1   8A03H     0149H     UNIT         ?PR?_OSDPOSITION?GMIOSDFUNC
            BANK1   8B4CH     0135H     UNIT         ?PR?CDISPLAYCURRENTSOURCEMESSAGE?OSDMENUFUNC003
            BANK1   8C81H     0126H     UNIT         ?PR?_COSDFXDRAWWINDOW?GMIOSDFUNC
            BANK1   8DA7H     0112H     UNIT         ?PR?CDORESET?GMIOSDFUNC
            BANK1   8EB9H     010BH     UNIT         ?PR?_COSDFXCODEWRITE?GMIOSDFUNC
            BANK1   8FC4H     00F4H     UNIT         ?PR?_DRAWADPMENUITEM?OSDMENUFUNC003
            BANK1   90B8H     00F2H     UNIT         ?PR?INITMAINOSD?OSDMENUFUNC003
            BANK1   91AAH     00F0H     UNIT         ?PR?COSDEVENTMSGPROC?OSDPROC003
            BANK1   929AH     00ECH     UNIT         ?PR?_DRAWAUTOPOWERDOWN?OSDMENUFUNC003
            BANK1   9386H     00E9H     UNIT         ?PR?_DRAWSOURCEMENUITEM?OSDMENUFUNC003
            BANK1   946FH     00E8H     UNIT         ?PR?CDRAWMUTESTATE?OSDPROC003
            BANK1   9557H     00D3H     UNIT         ?PR?_OSDSLIDER?OSDMENUFUNC003
            BANK1   962AH     00C3H     UNIT         ?PR?CSHOWNOSIGNAL?OSDPROC003
            BANK1   96EDH     00C1H     UNIT         ?PR?_CREATEPOPUPMENU?OSDMENUFUNC003
            BANK1   97AEH     00B0H     UNIT         ?PR?_DRAWMAINITEMTITLE?OSDMENUFUNC003
            BANK1   985EH     009BH     UNIT         ?PR?ENTERADPMENU?OSDMENUFUNC003
            BANK1   98F9H     0099H     UNIT         ?PR?_LOADCHI_S_FONT?OSDPROC003
            BANK1   9992H     0099H     UNIT         ?PR?_LOADCHI_T_FONT?OSDPROC003
            BANK1   9A2BH     0098H     UNIT         ?PR?ENTERCOLORTEMPUSERMENU?OSDMENUFUNC003
            BANK1   9AC3H     0097H     UNIT         ?PR?_DRAWOSDTIMER?OSDMENUFUNC003
            BANK1   9B5AH     0091H     UNIT         ?PR?DRAWSHORTCUTEMENU?OSDMENUFUNC003
            BANK1   9BEBH     0091H     UNIT         ?PR?_CSHOWMODE?OSDMENUFUNC003
            BANK1   9C7CH     008FH     UNIT         ?PR?_DRAWTRANSPARENT?OSDMENUFUNC003
            BANK1   9D0BH     008CH     UNIT         ?PR?CSHOWAUTOADJUST?OSDPROC003
            BANK1   9D97H     008CH     UNIT         ?PR?_TEXTOUTCALCWIDTH?OSDPROC003
            BANK1   9E23H     008BH     UNIT         ?PR?COSDHANDLER?OSDPROC003
            BANK1   9EAEH     008BH     UNIT         ?PR?_CSHOWNUMBER1?GMIOSDFUNC
            BANK1   9F39H     008AH     UNIT         ?PR?_DRAWAPOPUPMENUITEM1?OSDMENUFUNC003
            BANK1   9FC3H     0088H     UNIT         ?PR?_VPOSITIONADJUST?OSDMENUFUNC003
            BANK1   A04BH     0087H     UNIT         ?PR?_CTRANSPARENTADJ?OSDMENUFUNC003
            BANK1   A0D2H     0086H     UNIT         ?PR?_MTIMERADJVALUE?OSDMENUFUNC003
            BANK1   A158H     0085H     UNIT         ?PR?_DRAWMAINMENUITEM?OSDMENUFUNC003
            BANK1   A1DDH     0085H     UNIT         ?PR?_DRAWCOLORTEMPMENUITEM?OSDMENUFUNC003
            BANK1   A262H     0084H     UNIT         ?PR?_DRAWTVPAGEMENUITEM?OSDMENUFUNC003
            BANK1   A2E6H     0082H     UNIT         ?PR?_DRAWAPOPUPMENUITEM?OSDMENUFUNC003
            BANK1   A368H     0082H     UNIT         ?PR?_MMAINMENUMENUADJ?OSDMENUFUNC003
            BANK1   A3EAH     0081H     UNIT         ?PR?_DRAWMSEARCHMENUITEM?OSDMENUFUNC003
            BANK1   A46BH     0080H     UNIT         ?PR?_MSOURCEVALUEADJ?OSDMENUFUNC003
BL51 BANKED LINKER/LOCATER V6.22                                                      01/17/2018  23:35:27  PAGE 15


            BANK1   A4EBH     007FH     UNIT         ?PR?_HPOSITIONADJUST?OSDMENUFUNC003
            BANK1   A56AH     007EH     UNIT         ?PR?_ADJUSTMENUITEM?OSDPROC003
            BANK1   A5E8H     007EH     UNIT         ?PR?_CTEXTOUTBASE?GMIOSDFUNC
            BANK1   A666H     007BH     UNIT         ?PR?_DRAWCOLORTEMP?OSDMENUFUNC003
            BANK1   A6E1H     007BH     UNIT         ?PR?_DRAWSKIPMENUITEM?OSDMENUFUNC003
            BANK1   A75CH     007AH     UNIT         ?PR?_DRAWBASS?OSDMENUFUNC003
            BANK1   A7D6H     007AH     UNIT         ?PR?_DRAWTREBLE?OSDMENUFUNC003
            BANK1   A850H     007AH     UNIT         ?PR?_DRAWCOLORUSERMENUITEM?OSDMENUFUNC003
            BANK1   A8CAH     0079H     UNIT         ?PR?_DRAWBLUESCREENMENUITEM?OSDMENUFUNC003
            BANK1   A943H     0079H     UNIT         ?PR?BURNINRUN?GMIOSDFUNC
            BANK1   A9BCH     0078H     UNIT         ?PR?_DRAWAUTOSEARCHMENUITEM?OSDMENUFUNC003
            BANK1   AA34H     0078H     UNIT         ?PR?_OSDLINE?GMIOSDFUNC
            BANK1   AAACH     0077H     UNIT         ?PR?_DRAWSATURATION?OSDMENUFUNC003
            BANK1   AB23H     0077H     UNIT         ?PR?_DRAWOSDVPOSITION?OSDMENUFUNC003
            BANK1   AB9AH     0077H     UNIT         ?PR?_DRAWVOLUME?OSDMENUFUNC003
            BANK1   AC11H     0077H     UNIT         ?PR?_DRAWBALANCE?OSDMENUFUNC003
            BANK1   AC88H     0077H     UNIT         ?PR?_MSHARPNESSADJVALUE?OSDMENUFUNC003
            BANK1   ACFFH     0077H     UNIT         ?PR?MSOURCEENTERSUBMENU?OSDMENUFUNC003
            BANK1   AD76H     0077H     UNIT         ?PR?_GETSHOWINDEX?OSDPROC003
            BANK1   ADEDH     0075H     UNIT         ?PR?_DRAWCONTRAST?OSDMENUFUNC003
            BANK1   AE62H     0075H     UNIT         ?PR?_DRAWHUE?OSDMENUFUNC003
            BANK1   AED7H     0075H     UNIT         ?PR?_DRAWOSDHPOSITION?OSDMENUFUNC003
            BANK1   AF4CH     0074H     UNIT         ?PR?_CSHOWNUMBER?GMIOSDFUNC
            BANK1   AFC0H     0073H     UNIT         ?PR?_COSDLOAD1BITFONT?GMIOSDFUNC
            BANK1   B033H     0072H     UNIT         ?PR?_DRAWBRIGHT?OSDMENUFUNC003
            BANK1   B0A5H     0072H     UNIT         ?PR?_DRAWPHASE?OSDMENUFUNC003
            BANK1   B117H     0072H     UNIT         ?PR?_CSETOSDPOSITION?OSDMENUFUNC003
            BANK1   B189H     0070H     UNIT         ?PR?_CSETITEMSTARTEND?OSDMENUFUNC003
            BANK1   B1F9H     006FH     UNIT         ?PR?_DRAWHPOSITION?OSDMENUFUNC003
            BANK1   B268H     006FH     UNIT         ?PR?_DRAWVPOSITION?OSDMENUFUNC003
            BANK1   B2D7H     006FH     UNIT         ?PR?_DRAWCLOCK?OSDMENUFUNC003
            BANK1   B346H     006EH     UNIT         ?PR?_COSDFXGETADCCLOCKRANGE?GMIOSDFUNC
            BANK1   B3B4H     006CH     UNIT         ?PR?_DRAWDOUBLEMENUITEM?OSDMENUFUNC003
            BANK1   B420H     006CH     UNIT         ?PR?_DRAWDISPLAYRATIOMENUITEM?OSDMENUFUNC003
            BANK1   B48CH     006AH     UNIT         ?PR?_DRAWAUTOCONFIGMENUITEM?OSDMENUFUNC003
            BANK1   B4F6H     006AH     UNIT         ?PR?_DRAWRESETMENUITEM?OSDMENUFUNC003
            BANK1   B560H     006AH     UNIT         ?PR?_COSDLOAD1BITFONTWIDTH12?OSDPROC003
            BANK1   B5CAH     0069H     UNIT         ?PR?SETROWCMDS?GMIOSDFUNC
            BANK1   B633H     0068H     UNIT         ?PR?_CLEARPOPUPMENU?OSDMENUFUNC003
            BANK1   B69BH     0066H     UNIT         ?PR?_DIRECTWOSDRAM?GMIOSDFUNC
            BANK1   B701H     0065H     UNIT         ?PR?_DRAWDISPLAYRATIO?OSDMENUFUNC003
            BANK1   B766H     0065H     UNIT         ?PR?_DRAWBLUESCREEN?OSDMENUFUNC003
            BANK1   B7CBH     0064H     UNIT         ?PR?SETOSDRAMADDRESS?GMIOSDFUNC
            BANK1   B82FH     0063H     UNIT         ?PR?_CLOCKADJUST?OSDMENUFUNC003
            BANK1   B892H     0063H     UNIT         ?PR?_VALUEINRANGECHANGE?GMIOSDFUNC
            BANK1   B8F5H     0063H     UNIT         ?PR?_CCENTERTEXTOUT?GMIOSDFUNC
            BANK1   B958H     0062H     UNIT         ?PR?_DRAWOSDPAGEMENUITEM?OSDMENUFUNC003
            BANK1   B9BAH     0062H     UNIT         ?PR?_DRAWSOUNDPAGEMENUITEM?OSDMENUFUNC003
            BANK1   BA1CH     0061H     UNIT         ?PR?_GETPREVLANGUAGE?GMIOSDFUNC
            BANK1   BA7DH     005FH     UNIT         ?PR?_DRAWDOUBLE?OSDMENUFUNC003
            BANK1   BADCH     005FH     UNIT         ?PR?MTVENTERSUBMENU?OSDMENUFUNC003
            BANK1   BB3BH     005CH     UNIT         ?PR?_CFOUNDKEYMSGTOOSDEVENT?OSDPROC003
            BANK1   BB97H     005BH     UNIT         ?PR?_DRAW2BIT3X2ICON?OSDPROC003
            BANK1   BBF2H     0059H     UNIT         ?PR?MDOUBLEENTERSUBMENU?OSDMENUFUNC003
            BANK1   BC4BH     0058H     UNIT         ?PR?MMAINMENUENTERSUBMENU?OSDMENUFUNC003
            BANK1   BCA3H     0058H     UNIT         ?PR?ENTERBLUESCREENMENU?OSDMENUFUNC003
            BANK1   BCFBH     0058H     UNIT         ?PR?INITOSDFRAME?OSDPROC003
BL51 BANKED LINKER/LOCATER V6.22                                                      01/17/2018  23:35:27  PAGE 16


            BANK1   BD53H     0057H     UNIT         ?PR?_DRAWCOLORPAGEMENUITEM?OSDMENUFUNC003
            BANK1   BDAAH     0057H     UNIT         ?PR?_DRAWADJUSTPAGEMENUITEM?OSDMENUFUNC003
            BANK1   BE01H     0057H     UNIT         ?PR?_DRAWFUNCPAGEMENUITEM?OSDMENUFUNC003
            BANK1   BE58H     0057H     UNIT         ?PR?ENTERDISPLAYRATIOMENU?OSDMENUFUNC003
            BANK1   BEAFH     0056H     UNIT         ?PR?_SUBMENUTEXTOUT?OSDMENUFUNC003
            BANK1   BF05H     0056H     UNIT         ?PR?ENTERCOLORTEMPMENU?OSDMENUFUNC003
            BANK1   BF5BH     0055H     UNIT         ?PR?MMENUNONEPROC?OSDMENUFUNC003
            BANK1   BFB0H     0053H     UNIT         ?PR?_MTVVALUEADJ?OSDMENUFUNC003
            BANK1   C003H     0052H     UNIT         ?PR?_GOTOXY?GMIOSDFUNC
            BANK1   C055H     0051H     UNIT         ?PR?_MCOLORTEMPMENUADJ?OSDMENUFUNC003
            BANK1   C0A6H     0051H     UNIT         ?PR?_DRAWLANGAUGEMENUITEM?OSDMENUFUNC003
            BANK1   C0F7H     0051H     UNIT         ?PR?_GETSHOWCOUNT?OSDPROC003
            BANK1   C148H     004FH     UNIT         ?PR?MOSDENTERSUBMENU?OSDMENUFUNC003
            BANK1   C197H     004EH     UNIT         ?PR?CNOTUSE?OSDPROC003
            BANK1   C1E5H     004CH     UNIT         ?PR?_DRAWLANGUAGE?OSDMENUFUNC003
            BANK1   C231H     004CH     UNIT         ?PR?ENTERLANGUAGEMENU?OSDMENUFUNC003
            BANK1   C27DH     004CH     UNIT         ?PR?ENTERDOUBLEMENU?OSDMENUFUNC003
            BANK1   C2C9H     004CH     UNIT         ?PR?CHANGESOURCESTATE?OSDPROC003
            BANK1   C315H     004AH     UNIT         ?PR?_DRAWSRS?OSDMENUFUNC003
            BANK1   C35FH     004AH     UNIT         ?PR?_DRAWBBE?OSDMENUFUNC003
            BANK1   C3A9H     0047H     UNIT         ?PR?DRAWMAINMENU?OSDMENUFUNC003
            BANK1   C3F0H     0046H     UNIT         ?PR?_COSDVPOSITIONADJ?OSDMENUFUNC003
            BANK1   C436H     0046H     UNIT         ?PR?ENTERSCVOLUME?OSDMENUFUNC003
            BANK1   C47CH     0046H     UNIT         ?PR?_CTEXTOUTRIGHTALIGN?GMIOSDFUNC
            BANK1   C4C2H     0045H     UNIT         ?PR?DRAWTVPAGE?OSDMENUFUNC003
            BANK1   C507H     0045H     UNIT         ?PR?MCOLORENTERSUBMENU?OSDMENUFUNC003
            BANK1   C54CH     0044H     UNIT         ?PR?_DRAWCHANNEL?OSDMENUFUNC003
            BANK1   C590H     0044H     UNIT         ?PR?_DRAWSHARPNESS?OSDMENUFUNC003
            BANK1   C5D4H     0044H     UNIT         ?PR?MADJUSTENTERSUBMENU?OSDMENUFUNC003
            BANK1   C618H     0043H     UNIT         ?PR?_HUEADJUST?OSDMENUFUNC003
            BANK1   C65BH     0043H     UNIT         ?PR?_SATURATIONADJUST?OSDMENUFUNC003
            BANK1   C69EH     0043H     UNIT         ?PR?_MOSDVALUEADJ?OSDMENUFUNC003
            BANK1   C6E1H     0043H     UNIT         ?PR?MFUNCTIONENTERSUBMENU?OSDMENUFUNC003
            BANK1   C724H     0042H     UNIT         ?PR?_COSDHPOSITIONADJ?OSDMENUFUNC003
            BANK1   C766H     0041H     UNIT         ?PR?_VOLUMEADJUST?OSDMENUFUNC003
            BANK1   C7A7H     0041H     UNIT         ?PR?_CSHOWVGAMODE?OSDMENUFUNC003
            BANK1   C7E8H     0041H     UNIT         ?PR?COSDCTRLGETHPOSITION?GMIOSDFUNC
            BANK1   C829H     0041H     UNIT         ?PR?COSDCTRLGETVPOSITION?GMIOSDFUNC
            BANK1   C86AH     0041H     UNIT         ?PR?_GETNEXTLANGUAGE?GMIOSDFUNC
            BANK1   C8ABH     003EH     UNIT         ?PR?_PHASEADJUST?OSDMENUFUNC003
            BANK1   C8E9H     003DH     UNIT         ?PR?MAINMENUITEMCHGCLEAR?OSDMENUFUNC003
            BANK1   C926H     003DH     UNIT         ?PR?_MCOLORVALUEADJ?OSDMENUFUNC003
            BANK1   C963H     003DH     UNIT         ?PR?_MCOLORUSERVALUEADJ?OSDMENUFUNC003
            BANK1   C9A0H     003DH     UNIT         ?PR?_MADJUSTVALUEADJ?OSDMENUFUNC003
            BANK1   C9DDH     003DH     UNIT         ?PR?MDISPLAYRATIOENTERSUBMENU?OSDMENUFUNC003
            BANK1   CA1AH     003DH     UNIT         ?PR?COSDDISPFIRSTTIMELOADFONT?OSDPROC003
            BANK1   CA57H     003CH     UNIT         ?PR?DRAWCOLORPAGE?OSDMENUFUNC003
            BANK1   CA93H     003CH     UNIT         ?PR?DRAWADJUSTPAGE?OSDMENUFUNC003
            BANK1   CACFH     003CH     UNIT         ?PR?DRAWOSDPAGE?OSDMENUFUNC003
            BANK1   CB0BH     003CH     UNIT         ?PR?DRAWFUNCPAGE?OSDMENUFUNC003
            BANK1   CB47H     003CH     UNIT         ?PR?DRAWSOUNDPAGE?OSDMENUFUNC003
            BANK1   CB83H     003CH     UNIT         ?PR?_OSDCLEAR?GMIOSDFUNC
            BANK1   CBBFH     0039H     UNIT         ?PR?_CBALANCEADJUST?OSDMENUFUNC003
            BANK1   CBF8H     0039H     UNIT         ?PR?_CBASSADJUST?OSDMENUFUNC003
            BANK1   CC31H     0039H     UNIT         ?PR?_CTREBLEADJUST?OSDMENUFUNC003
            BANK1   CC6AH     0039H     UNIT         ?PR?MSOUNDENTERSUBMENU?OSDMENUFUNC003
            BANK1   CCA3H     0038H     UNIT         ?PR?_CTEXTOUTEX?GMIOSDFUNC
BL51 BANKED LINKER/LOCATER V6.22                                                      01/17/2018  23:35:27  PAGE 17


            BANK1   CCDBH     0038H     UNIT         ?PR?_CCALCTEXTPIXCELLEN?GMIOSDFUNC
            BANK1   CD13H     0037H     UNIT         ?PR?_MSOUNDVALUEADJ?OSDMENUFUNC003
            BANK1   CD4AH     0037H     UNIT         ?PR?CKEYOSDMSGCOVER?OSDPROC003
            BANK1   CD81H     0036H     UNIT         ?PR?MBRIGHTNESSPROC?OSDMENUFUNC003
            BANK1   CDB7H     0036H     UNIT         ?PR?MCONTRASTPROC?OSDMENUFUNC003
            BANK1   CDEDH     0036H     UNIT         ?PR?MHUEPROC?OSDMENUFUNC003
            BANK1   CE23H     0036H     UNIT         ?PR?MSATURATIONPROC?OSDMENUFUNC003
            BANK1   CE59H     0034H     UNIT         ?PR?_DRAWAUTOADJUST?OSDMENUFUNC003
            BANK1   CE8DH     0034H     UNIT         ?PR?_DRAWAUTOSEARCH?OSDMENUFUNC003
            BANK1   CEC1H     0034H     UNIT         ?PR?_DRAWMANUALSEARCH?OSDMENUFUNC003
            BANK1   CEF5H     0034H     UNIT         ?PR?_DRAWRESET?OSDMENUFUNC003
            BANK1   CF29H     0034H     UNIT         ?PR?COSDCTRLGETCLOCK?GMIOSDFUNC
            BANK1   CF5DH     0031H     UNIT         ?PR?_CONTRASTADJUST?OSDMENUFUNC003
            BANK1   CF8EH     0031H     UNIT         ?PR?MCOLORUSERENTERSUBMENU?OSDMENUFUNC003
            BANK1   CFBFH     0031H     UNIT         ?PR?MRPROC?OSDMENUFUNC003
            BANK1   CFF0H     0031H     UNIT         ?PR?MGPROC?OSDMENUFUNC003
            BANK1   D021H     0031H     UNIT         ?PR?MBPROC?OSDMENUFUNC003
            BANK1   D052H     0031H     UNIT         ?PR?MADJUSTVPOSITIONPROC?OSDMENUFUNC003
            BANK1   D083H     0031H     UNIT         ?PR?MADJUSTPHASEPROC?OSDMENUFUNC003
            BANK1   D0B4H     0031H     UNIT         ?PR?MADJUSTCLOCKPROC?OSDMENUFUNC003
            BANK1   D0E5H     0031H     UNIT         ?PR?MTIMERPROC?OSDMENUFUNC003
            BANK1   D116H     0031H     UNIT         ?PR?MHPOSITIONPROC?OSDMENUFUNC003
            BANK1   D147H     0031H     UNIT         ?PR?MVPOSITIONPROC?OSDMENUFUNC003
            BANK1   D178H     0031H     UNIT         ?PR?MTRANSPARENTPROC?OSDMENUFUNC003
            BANK1   D1A9H     0031H     UNIT         ?PR?MTUNINGPROC?OSDMENUFUNC003
            BANK1   D1DAH     0031H     UNIT         ?PR?MCHANNELPROC?OSDMENUFUNC003
            BANK1   D20BH     0031H     UNIT         ?PR?MSHARPNESSPROC?OSDMENUFUNC003
            BANK1   D23CH     0031H     UNIT         ?PR?MVOLUMEPROC?OSDMENUFUNC003
            BANK1   D26DH     0031H     UNIT         ?PR?MBALANCEPROC?OSDMENUFUNC003
            BANK1   D29EH     0031H     UNIT         ?PR?MBASSPROC?OSDMENUFUNC003
            BANK1   D2CFH     0031H     UNIT         ?PR?MTREBLEPROC?OSDMENUFUNC003
            BANK1   D300H     0030H     UNIT         ?PR?MMAINMENUPROC?OSDMENUFUNC003
            BANK1   D330H     0030H     UNIT         ?PR?MCOLORPROC?OSDMENUFUNC003
            BANK1   D360H     0030H     UNIT         ?PR?MCOLORUSERPROC?OSDMENUFUNC003
            BANK1   D390H     0030H     UNIT         ?PR?MADJUSTPROC?OSDMENUFUNC003
            BANK1   D3C0H     0030H     UNIT         ?PR?MAUTOADJUSTPROC?OSDMENUFUNC003
            BANK1   D3F0H     0030H     UNIT         ?PR?MADJUSTHPOSITIONPROC?OSDMENUFUNC003
            BANK1   D420H     0030H     UNIT         ?PR?MOSDPROC?OSDMENUFUNC003
            BANK1   D450H     0030H     UNIT         ?PR?MLANGUAGEPROC?OSDMENUFUNC003
            BANK1   D480H     0030H     UNIT         ?PR?MDOUBLEPROC?OSDMENUFUNC003
            BANK1   D4B0H     0030H     UNIT         ?PR?MTVPROC?OSDMENUFUNC003
            BANK1   D4E0H     0030H     UNIT         ?PR?MSYSTEMPROC?OSDMENUFUNC003
            BANK1   D510H     0030H     UNIT         ?PR?MAUTOSEARCHPROC?OSDMENUFUNC003
            BANK1   D540H     0030H     UNIT         ?PR?MMANUALSEARCHPROC?OSDMENUFUNC003
            BANK1   D570H     0030H     UNIT         ?PR?MSKIPPROC?OSDMENUFUNC003
            BANK1   D5A0H     0030H     UNIT         ?PR?MAFCPROC?OSDMENUFUNC003
            BANK1   D5D0H     0030H     UNIT         ?PR?MFUNCTIONPROC?OSDMENUFUNC003
            BANK1   D600H     0030H     UNIT         ?PR?MRESETPROC?OSDMENUFUNC003
            BANK1   D630H     0030H     UNIT         ?PR?MDISPLAYRATIOPROC?OSDMENUFUNC003
            BANK1   D660H     0030H     UNIT         ?PR?MAUTOPOWERDOWNPROC?OSDMENUFUNC003
            BANK1   D690H     0030H     UNIT         ?PR?MBLUESCREENPROC?OSDMENUFUNC003
            BANK1   D6C0H     0030H     UNIT         ?PR?MSOUNDPROC?OSDMENUFUNC003
            BANK1   D6F0H     0030H     UNIT         ?PR?MSOURCEPROC?OSDMENUFUNC003
            BANK1   D720H     002EH     UNIT         ?PR?_MFUNCTIONVALUEADJ?OSDMENUFUNC003
            BANK1   D74EH     002DH     UNIT         ?PR?_MTVMENUADJ?OSDMENUFUNC003
            BANK1   D77BH     002CH     UNIT         ?PR?_DRAWPAGENULLLINE?OSDMENUFUNC003
            BANK1   D7A7H     002BH     UNIT         ?PR?MAUTOADJUSTENTERSUBMENU?OSDMENUFUNC003
BL51 BANKED LINKER/LOCATER V6.22                                                      01/17/2018  23:35:27  PAGE 18


            BANK1   D7D2H     002BH     UNIT         ?PR?ENTERSCBRIGHT?OSDMENUFUNC003
            BANK1   D7FDH     002AH     UNIT         ?PR?_MSCVOLUMEVALUEADJ?OSDMENUFUNC003
            BANK1   D827H     0029H     UNIT         ?PR?_BRIGHTADJUST?OSDMENUFUNC003
            BANK1   D850H     0028H     UNIT         ?PR?_DRAWSUBMENU?OSDMENUFUNC003
            BANK1   D878H     0026H     UNIT         ?PR?CHECKLANGUAGE?GMIOSDFUNC
            BANK1   D89EH     0025H     UNIT         ?PR?_COSDCOLORPALETTE?GMIOSDFUNC
            BANK1   D8C3H     0025H     UNIT         ?PR?_TEXTOUT?GMIOSDFUNC
            BANK1   D8E8H     0024H     UNIT         ?PR?COSDDOUBLEEN?OSDMENUFUNC003
            BANK1   D90CH     0024H     UNIT         ?PR?_LOADCHIFONT?OSDPROC003
            BANK1   D930H     0024H     UNIT         ?PR?CSETMUTESTATE?OSDPROC003
            BANK1   D954H     0024H     UNIT         ?PR?_SETCHARWDITH?GMIOSDFUNC
            BANK1   D978H     0024H     UNIT         ?PR?_CSETBLANKWIDTH?GMIOSDFUNC
            BANK1   D99CH     0024H     UNIT         ?PR?COSDFXDISABLEOSD?GMIOSDFUNC
            BANK1   D9C0H     0023H     UNIT         ?PR?CVIDEONTSCENABLE?OSDMENUFUNC003
            BANK1   D9E3H     0023H     UNIT         ?PR?MBLUESCREENENTERSUBMENU?OSDMENUFUNC003
            BANK1   DA06H     0022H     UNIT         ?PR?MCOLORTEMPPROC?OSDMENUFUNC003
            BANK1   DA28H     0022H     UNIT         ?PR?LOADLANGUAGEFONT?OSDPROC003
            BANK1   DA4AH     0021H     UNIT         ?PR?MLANGUAGEENTERSUBMENU?OSDMENUFUNC003
            BANK1   DA6BH     0021H     UNIT         ?PR?_CCOVERKEYMSGTOOSDEVENT?OSDPROC003
            BANK1   DA8CH     0021H     UNIT         ?PR?_GETCHARWDITH?GMIOSDFUNC
            BANK1   DAADH     0020H     UNIT         ?PR?_MCOLORMENUADJ?OSDMENUFUNC003
            BANK1   DACDH     0020H     UNIT         ?PR?_MCOLORUSERMENUADJ?OSDMENUFUNC003
            BANK1   DAEDH     0020H     UNIT         ?PR?_MADJUSTMENUADJ?OSDMENUFUNC003
            BANK1   DB0DH     0020H     UNIT         ?PR?_MAUTOADJUSTMENUADJ?OSDMENUFUNC003
            BANK1   DB2DH     0020H     UNIT         ?PR?_MOSDMENUADJ?OSDMENUFUNC003
            BANK1   DB4DH     0020H     UNIT         ?PR?_MLANGUAGEMENUADJ?OSDMENUFUNC003
            BANK1   DB6DH     0020H     UNIT         ?PR?_MDOUBLEMENUADJ?OSDMENUFUNC003
            BANK1   DB8DH     0020H     UNIT         ?PR?_MAUTOSEARCHMENUADJ?OSDMENUFUNC003
            BANK1   DBADH     0020H     UNIT         ?PR?_MMANUALSEARCHMENUADJ?OSDMENUFUNC003
            BANK1   DBCDH     0020H     UNIT         ?PR?_MSKIPMENUADJ?OSDMENUFUNC003
            BANK1   DBEDH     0020H     UNIT         ?PR?_MFUNCTIONMENUADJ?OSDMENUFUNC003
            BANK1   DC0DH     0020H     UNIT         ?PR?_MRESETMENUADJ?OSDMENUFUNC003
            BANK1   DC2DH     0020H     UNIT         ?PR?_MDISPLAYRATIOMENUADJ?OSDMENUFUNC003
            BANK1   DC4DH     0020H     UNIT         ?PR?_MAUTOPOWERDOWNMENUADJ?OSDMENUFUNC003
            BANK1   DC6DH     0020H     UNIT         ?PR?_MBLUESCREENMENUADJ?OSDMENUFUNC003
            BANK1   DC8DH     0020H     UNIT         ?PR?_MSOUNDMENUADJ?OSDMENUFUNC003
            BANK1   DCADH     0020H     UNIT         ?PR?_MSOURCEMENUADJ?OSDMENUFUNC003
            BANK1   DCCDH     001DH     UNIT         ?PR?ENTERAUTOSEARCHMENU?OSDMENUFUNC003
            BANK1   DCEAH     001DH     UNIT         ?PR?ENTERMSEARCHMENU?OSDMENUFUNC003
            BANK1   DD07H     001BH     UNIT         ?PR?MSCBRIGHTNESSPROC?OSDMENUFUNC003
            BANK1   DD22H     001BH     UNIT         ?PR?_MSCBRGITHNESSVALUEADJ?OSDMENUFUNC003
            BANK1   DD3DH     001BH     UNIT         ?PR?MSCVOLUMEPROC?OSDMENUFUNC003
            BANK1   DD58H     001BH     UNIT         ?PR?CSHORTCUTKEYMSG?OSDPROC003
            BANK1   DD73H     001AH     UNIT         ?PR?_COLORRADJUST?OSDMENUFUNC003
            BANK1   DD8DH     001AH     UNIT         ?PR?_COLORGADJUST?OSDMENUFUNC003
            BANK1   DDA7H     001AH     UNIT         ?PR?_COLORBADJUST?OSDMENUFUNC003
            BANK1   DDC1H     001AH     UNIT         ?PR?_COSDFXCLOSEWINDOW?GMIOSDFUNC
            BANK1   DDDBH     0019H     UNIT         ?PR?_STATECOLOR?OSDMENUFUNC003
            BANK1   DDF4H     0019H     UNIT         ?PR?ENTERAUTOCONFIGMENU?OSDMENUFUNC003
            BANK1   DE0DH     0019H     UNIT         ?PR?ENTERRESETMENU?OSDMENUFUNC003
            BANK1   DE26H     0017H     UNIT         ?PR?FIRSTLANGUAGE?GMIOSDFUNC
            BANK1   DE3DH     0016H     UNIT         ?PR?CVIDEOENABLE?OSDMENUFUNC003
            BANK1   DE53H     0016H     UNIT         ?PR?_SETOSDDOUBLE?GMIOSDFUNC
            BANK1   DE69H     0015H     UNIT         ?PR?_OUTPUTCHAR?GMIOSDFUNC
            BANK1   DE7EH     0013H     UNIT         ?PR?MMENUNONEENTERSUBMENU?OSDMENUFUNC003
            BANK1   DE91H     0013H     UNIT         ?PR?MRESETENTERSUBMENU?OSDMENUFUNC003
            BANK1   DEA4H     0012H     UNIT         ?PR?_STRLEN?GMIOSDFUNC
BL51 BANKED LINKER/LOCATER V6.22                                                      01/17/2018  23:35:27  PAGE 19


            BANK1   DEB6H     0010H     UNIT         ?PR?_CGETPOPUPMENUROW?OSDMENUFUNC003
            BANK1   DEC6H     0010H     UNIT         ?PR?COSDDISPOSDTIMEREVENT?OSDPROC003
            BANK1   DED6H     0010H     UNIT         ?PR?INITBURNIN?GMIOSDFUNC
            BANK1   DEE6H     000EH     UNIT         ?PR?MCOLORTEMPENTERSUBMENU?OSDMENUFUNC003
            BANK1   DEF4H     000EH     UNIT         ?PR?MTVRETURNUPMENU?OSDMENUFUNC003
            BANK1   DF02H     000EH     UNIT         ?PR?CLEARSKIPMENU?OSDMENUFUNC003
            BANK1   DF10H     000EH     UNIT         ?PR?CLEARBLUESCREENMENU?OSDMENUFUNC003
            BANK1   DF1EH     000EH     UNIT         ?PR?COSDFXENABLEOSD?GMIOSDFUNC
            BANK1   DF2CH     000EH     UNIT         ?PR?COSDCTRLGETPHASE?GMIOSDFUNC
            BANK1   DF3AH     000DH     UNIT         ?PR?CLEARLANGAUGEMENU?OSDMENUFUNC003
            BANK1   DF47H     000DH     UNIT         ?PR?CLEARSYSTEMMENU?OSDMENUFUNC003
            BANK1   DF54H     000CH     UNIT         ?PR?MDISPLAYRATIOENABLE?OSDMENUFUNC003
            BANK1   DF60H     000CH     UNIT         ?PR?MRRETURNUPMENU?OSDMENUFUNC003
            BANK1   DF6CH     000CH     UNIT         ?PR?MGRETURNUPMENU?OSDMENUFUNC003
            BANK1   DF78H     000CH     UNIT         ?PR?MBRETURNUPMENU?OSDMENUFUNC003
            BANK1   DF84H     000CH     UNIT         ?PR?_SETOSDMAP?GMIOSDFUNC
            BANK1   DF90H     000BH     UNIT         ?PR?CTVENABLE?OSDMENUFUNC003
            BANK1   DF9BH     000BH     UNIT         ?PR?MCOLORRETURNUPMENU?OSDMENUFUNC003
            BANK1   DFA6H     000BH     UNIT         ?PR?_MRVALUEADJ?OSDMENUFUNC003
            BANK1   DFB1H     000BH     UNIT         ?PR?_MGVALUEADJ?OSDMENUFUNC003
            BANK1   DFBCH     000BH     UNIT         ?PR?_MBVALUEADJ?OSDMENUFUNC003
            BANK1   DFC7H     000BH     UNIT         ?PR?MADJUSTRETURNUPMENU?OSDMENUFUNC003
            BANK1   DFD2H     000BH     UNIT         ?PR?MOSDRETURNUPMENU?OSDMENUFUNC003
            BANK1   DFDDH     000BH     UNIT         ?PR?CLEARAUTOSEARCHMENU?OSDMENUFUNC003
            BANK1   DFE8H     000BH     UNIT         ?PR?CLEARMSEARCHMENU?OSDMENUFUNC003
            BANK1   DFF3H     000BH     UNIT         ?PR?MFUNCTIONRETURNUPMENU?OSDMENUFUNC003
            BANK1   DFFEH     000BH     UNIT         ?PR?MSOUNDRETURNUPMENU?OSDMENUFUNC003
            BANK1   E009H     000AH     UNIT         ?PR?CVGAENABLE?OSDMENUFUNC003
            BANK1   E013H     000AH     UNIT         ?PR?MBRIGHTNESSRETURNUPMENU?OSDMENUFUNC003
            BANK1   E01DH     000AH     UNIT         ?PR?MCONTRASTRETURNUPMENU?OSDMENUFUNC003
            BANK1   E027H     000AH     UNIT         ?PR?MHUERETURNUPMENU?OSDMENUFUNC003
            BANK1   E031H     000AH     UNIT         ?PR?MSATURATIONRETURNUPMENU?OSDMENUFUNC003
            BANK1   E03BH     000AH     UNIT         ?PR?MCOLORTEMPRETURNUPMENU?OSDMENUFUNC003
            BANK1   E045H     000AH     UNIT         ?PR?MAUTOADJUSTRETURNUPMENU?OSDMENUFUNC003
            BANK1   E04FH     000AH     UNIT         ?PR?MADJUSTHPOSITIONRETURNUPMENU?OSDMENUFUNC003
            BANK1   E059H     000AH     UNIT         ?PR?MADJUSTVPOSITIONRETURNUPMENU?OSDMENUFUNC003
            BANK1   E063H     000AH     UNIT         ?PR?MADJUSTPHASERETURNUPMENU?OSDMENUFUNC003
            BANK1   E06DH     000AH     UNIT         ?PR?MADJUSTCLOCKRETURNUPMENU?OSDMENUFUNC003
            BANK1   E077H     000AH     UNIT         ?PR?MLANGUAGERETURNUPMENU?OSDMENUFUNC003
            BANK1   E081H     000AH     UNIT         ?PR?MTIMERRETURNUPMENU?OSDMENUFUNC003
            BANK1   E08BH     000AH     UNIT         ?PR?MHPOSITIONRETURNUPMENU?OSDMENUFUNC003
            BANK1   E095H     000AH     UNIT         ?PR?MVPOSITIONRETURNUPMENU?OSDMENUFUNC003
            BANK1   E09FH     000AH     UNIT         ?PR?MDOUBLERETURNUPMENU?OSDMENUFUNC003
            BANK1   E0A9H     000AH     UNIT         ?PR?MTRANSPARENTRETURNUPMENU?OSDMENUFUNC003
            BANK1   E0B3H     000AH     UNIT         ?PR?MTUNINGRETURNUPMENU?OSDMENUFUNC003
            BANK1   E0BDH     000AH     UNIT         ?PR?MCHANNELRETURNUPMENU?OSDMENUFUNC003
            BANK1   E0C7H     000AH     UNIT         ?PR?MSYSTEMRETURNUPMENU?OSDMENUFUNC003
            BANK1   E0D1H     000AH     UNIT         ?PR?MAUTOSEARCHRETURNUPMENU?OSDMENUFUNC003
            BANK1   E0DBH     000AH     UNIT         ?PR?MMANUALSEARCHRETURNUPMENU?OSDMENUFUNC003
            BANK1   E0E5H     000AH     UNIT         ?PR?MSKIPRETURNUPMENU?OSDMENUFUNC003
            BANK1   E0EFH     000AH     UNIT         ?PR?MAFCRETURNUPMENU?OSDMENUFUNC003
            BANK1   E0F9H     000AH     UNIT         ?PR?MRESETRETURNUPMENU?OSDMENUFUNC003
            BANK1   E103H     000AH     UNIT         ?PR?MDISPLAYRATIORETURNUPMENU?OSDMENUFUNC003
            BANK1   E10DH     000AH     UNIT         ?PR?MAUTOPOWERDOWNRETURNUPMENU?OSDMENUFUNC003
            BANK1   E117H     000AH     UNIT         ?PR?MBLUESCREENRETURNUPMENU?OSDMENUFUNC003
            BANK1   E121H     000AH     UNIT         ?PR?MSHARPNESSRETURNUPMENU?OSDMENUFUNC003
            BANK1   E12BH     000AH     UNIT         ?PR?MVOLUMERETURNUPMENU?OSDMENUFUNC003
BL51 BANKED LINKER/LOCATER V6.22                                                      01/17/2018  23:35:27  PAGE 20


            BANK1   E135H     000AH     UNIT         ?PR?MBALANCERETURNUPMENU?OSDMENUFUNC003
            BANK1   E13FH     000AH     UNIT         ?PR?MBASSRETURNUPMENU?OSDMENUFUNC003
            BANK1   E149H     000AH     UNIT         ?PR?MTREBLERETURNUPMENU?OSDMENUFUNC003
            BANK1   E153H     0007H     UNIT         ?PR?CLEARCOLORTEMPMENU?OSDMENUFUNC003
            BANK1   E15AH     0007H     UNIT         ?PR?CLEARCOLORUSERMENU?OSDMENUFUNC003
            BANK1   E161H     0007H     UNIT         ?PR?CLEARAUTOCONFIGMENU?OSDMENUFUNC003
            BANK1   E168H     0007H     UNIT         ?PR?CLEARDOUBLEMENU?OSDMENUFUNC003
            BANK1   E16FH     0007H     UNIT         ?PR?CLEARAFCMENU?OSDMENUFUNC003
            BANK1   E176H     0007H     UNIT         ?PR?CLEARRESETMENU?OSDMENUFUNC003
            BANK1   E17DH     0007H     UNIT         ?PR?CLEARDISPLAYRATIOMENU?OSDMENUFUNC003
            BANK1   E184H     0007H     UNIT         ?PR?CLEARADPMENU?OSDMENUFUNC003
            BANK1   E18BH     0007H     UNIT         ?PR?MSCBRGITHNESSRETURNUPMENU?OSDMENUFUNC003
            BANK1   E192H     0007H     UNIT         ?PR?MSCVOLUMERETURNUPMENU?OSDMENUFUNC003
            BANK1   E199H     0006H     UNIT         ?PR?MCOLORUSERRETURNUPMENU?OSDMENUFUNC003
            BANK1   E19FH     0003H     UNIT         ?PR?MMAINMENURETURNUPMENU?OSDMENUFUNC003
            BANK1   E1A2H     0003H     UNIT         ?PR?_MBRIGHTNESSVALUEADJ?OSDMENUFUNC003
            BANK1   E1A5H     0003H     UNIT         ?PR?_MCONTRASTVALUEADJ?OSDMENUFUNC003
            BANK1   E1A8H     0003H     UNIT         ?PR?_MHUEVALUEADJ?OSDMENUFUNC003
            BANK1   E1ABH     0003H     UNIT         ?PR?_MSATURATIONVALUEADJ?OSDMENUFUNC003
            BANK1   E1AEH     0003H     UNIT         ?PR?_MADJUSTHPOSITIONVALUEADJ?OSDMENUFUNC003
            BANK1   E1B1H     0003H     UNIT         ?PR?_MADJUSTVPOSITIONVALUEADJ?OSDMENUFUNC003
            BANK1   E1B4H     0003H     UNIT         ?PR?_MADJUSTPHASEVALUEADJ?OSDMENUFUNC003
            BANK1   E1B7H     0003H     UNIT         ?PR?_MADJUSTCLOCKVALUEADJ?OSDMENUFUNC003
            BANK1   E1BAH     0003H     UNIT         ?PR?_MHPOSITIONVALUEADJ?OSDMENUFUNC003
            BANK1   E1BDH     0003H     UNIT         ?PR?_MVPOSITIONVALUEADJ?OSDMENUFUNC003
            BANK1   E1C0H     0003H     UNIT         ?PR?MSYSTEMENTERSUBMENU?OSDMENUFUNC003
            BANK1   E1C3H     0003H     UNIT         ?PR?_MVOLUMEVALUEADJ?OSDMENUFUNC003
            BANK1   E1C6H     0003H     UNIT         ?PR?_MBALANCEVALUEADJ?OSDMENUFUNC003
            BANK1   E1C9H     0003H     UNIT         ?PR?_MBASSVALUEADJ?OSDMENUFUNC003
            BANK1   E1CCH     0003H     UNIT         ?PR?_MTREBLEVALUEADJ?OSDMENUFUNC003
            BANK1   E1CFH     0003H     UNIT         ?PR?MSOURCERETURNUPMENU?OSDMENUFUNC003
            BANK1   E1D2H     0002H     UNIT         ?PR?CENABLE?OSDMENUFUNC003
            BANK1   E1D4H     0002H     UNIT         ?PR?MSOUNDENABLE?OSDMENUFUNC003
            BANK1   E1D6H     0002H     UNIT         ?PR?MNJW1144ENABLE?OSDMENUFUNC003
            BANK1   E1D8H     0002H     UNIT         ?PR?CMIVGAENABLE?OSDMENUFUNC003
            BANK1   E1DAH     0002H     UNIT         ?PR?CMIDVIENABLE?OSDMENUFUNC003
            BANK1   E1DCH     0002H     UNIT         ?PR?CMIHDMIENABLE?OSDMENUFUNC003
            BANK1   E1DEH     0002H     UNIT         ?PR?CMIYPBPRENABLE?OSDMENUFUNC003
            BANK1   E1E0H     0002H     UNIT         ?PR?CMISVENABLE?OSDMENUFUNC003
            BANK1   E1E2H     0002H     UNIT         ?PR?CMIAVENABLE?OSDMENUFUNC003
            BANK1   E1E4H     0002H     UNIT         ?PR?CMITVENABLE?OSDMENUFUNC003
            BANK1   E1E6H     0002H     UNIT         ?PR?CENGENABLE?OSDMENUFUNC003
            BANK1   E1E8H     0002H     UNIT         ?PR?CCHI_S_ENABLE?OSDMENUFUNC003
            BANK1   E1EAH     0002H     UNIT         ?PR?CFRA_ENABLE?OSDMENUFUNC003
            BANK1   E1ECH     0002H     UNIT         ?PR?CITA_ENABLE?OSDMENUFUNC003
            BANK1   E1EEH     0002H     UNIT         ?PR?CDEU_ENABLE?OSDMENUFUNC003
            BANK1   E1F0H     0002H     UNIT         ?PR?CESP_ENABLE?OSDMENUFUNC003
            BANK1   E1F2H     0002H     UNIT         ?PR?CCHI_T_ENABLE?OSDMENUFUNC003
            BANK1   E1F4H     0002H     UNIT         ?PR?CJAP_ENABLE?OSDMENUFUNC003
            BANK1   E1F6H     0002H     UNIT         ?PR?CKOR_ENABLE?OSDMENUFUNC003
            BANK1   E1F8H     0002H     UNIT         ?PR?CRUS_ENABLE?OSDMENUFUNC003
            BANK1   E1FAH     0002H     UNIT         ?PR?CENNTSC_M?OSDMENUFUNC003
            BANK1   E1FCH     0002H     UNIT         ?PR?CENNTSC_BG?OSDMENUFUNC003
            BANK1   E1FEH     0002H     UNIT         ?PR?CENNTSC_DK?OSDMENUFUNC003
            BANK1   E200H     0002H     UNIT         ?PR?CENNTSC_I?OSDMENUFUNC003
            BANK1   E202H     0002H     UNIT         ?PR?CENPAL_M?OSDMENUFUNC003
            BANK1   E204H     0002H     UNIT         ?PR?CENPAL_BG?OSDMENUFUNC003
BL51 BANKED LINKER/LOCATER V6.22                                                      01/17/2018  23:35:27  PAGE 21


            BANK1   E206H     0002H     UNIT         ?PR?CENPAL_DK?OSDMENUFUNC003
            BANK1   E208H     0002H     UNIT         ?PR?CENPAL_I?OSDMENUFUNC003
            BANK1   E20AH     0002H     UNIT         ?PR?CENPAL_N?OSDMENUFUNC003
            BANK1   E20CH     0002H     UNIT         ?PR?CENSECAM_BG?OSDMENUFUNC003
            BANK1   E20EH     0002H     UNIT         ?PR?CENSECAM_DK?OSDMENUFUNC003
            BANK1   E210H     0002H     UNIT         ?PR?CENSECAM_L?OSDMENUFUNC003
            BANK1   E212H     0002H     UNIT         ?PR?CENSECAM_LL?OSDMENUFUNC003
            BANK1   E214H     0002H     UNIT         ?PR?CAFCENABLE?OSDMENUFUNC003
            BANK1   E216H     0001H     UNIT         ?PR?_DRAWSYSTEM?OSDMENUFUNC003
            BANK1   E217H     0001H     UNIT         ?PR?_DRAWTUNING?OSDMENUFUNC003
            BANK1   E218H     0001H     UNIT         ?PR?_DRAWSKIP?OSDMENUFUNC003
            BANK1   E219H     0001H     UNIT         ?PR?_DRAWSWAP?OSDMENUFUNC003
            BANK1   E21AH     0001H     UNIT         ?PR?_DRAWAFC?OSDMENUFUNC003
            BANK1   E21BH     0001H     UNIT         ?PR?_MMAINMENUVALUEADJ?OSDMENUFUNC003
            BANK1   E21CH     0001H     UNIT         ?PR?_MAUTOADJUSTVALUEADJ?OSDMENUFUNC003
            BANK1   E21DH     0001H     UNIT         ?PR?_MLANGUAGEVALUEADJ?OSDMENUFUNC003
            BANK1   E21EH     0001H     UNIT         ?PR?_MDOUBLEVALUEADJ?OSDMENUFUNC003
            BANK1   E21FH     0001H     UNIT         ?PR?_CTUNINGADJ?OSDMENUFUNC003
            BANK1   E220H     0001H     UNIT         ?PR?_CADJCHANNEL?OSDMENUFUNC003
            BANK1   E221H     0001H     UNIT         ?PR?_CADJUSTSWAP?OSDMENUFUNC003
            BANK1   E222H     0001H     UNIT         ?PR?CSWAPSETUP?OSDMENUFUNC003
            BANK1   E223H     0001H     UNIT         ?PR?ENTERSYSTEMMENU?OSDMENUFUNC003
            BANK1   E224H     0001H     UNIT         ?PR?_MSYSTEMVALUEADJ?OSDMENUFUNC003
            BANK1   E225H     0001H     UNIT         ?PR?_MSYSTEMMENUADJ?OSDMENUFUNC003
            BANK1   E226H     0001H     UNIT         ?PR?_MAUTOSEARCHVALUEADJ?OSDMENUFUNC003
            BANK1   E227H     0001H     UNIT         ?PR?MAUTOSEARCHENTERSUBMENU?OSDMENUFUNC003
            BANK1   E228H     0001H     UNIT         ?PR?_MMANUALSEARCHVALUEADJ?OSDMENUFUNC003
            BANK1   E229H     0001H     UNIT         ?PR?MMANUALSEARCHENTERSUBMENU?OSDMENUFUNC003
            BANK1   E22AH     0001H     UNIT         ?PR?ENTERSKIPMENU?OSDMENUFUNC003
            BANK1   E22BH     0001H     UNIT         ?PR?_MSKIPVALUEADJ?OSDMENUFUNC003
            BANK1   E22CH     0001H     UNIT         ?PR?MSKIPENTERSUBMENU?OSDMENUFUNC003
            BANK1   E22DH     0001H     UNIT         ?PR?ENTERAFCMENU?OSDMENUFUNC003
            BANK1   E22EH     0001H     UNIT         ?PR?_MAFCVALUEADJ?OSDMENUFUNC003
            BANK1   E22FH     0001H     UNIT         ?PR?_MAFCMENUADJ?OSDMENUFUNC003
            BANK1   E230H     0001H     UNIT         ?PR?MAFCENTERSUBMENU?OSDMENUFUNC003
            BANK1   E231H     0001H     UNIT         ?PR?_MRESETVALUEADJ?OSDMENUFUNC003
            BANK1   E232H     0001H     UNIT         ?PR?_MDISPLAYRATIOVALUEADJ?OSDMENUFUNC003
            BANK1   E233H     0001H     UNIT         ?PR?_MAUTOPOWERDOWNVALUEADJ?OSDMENUFUNC003
            BANK1   E234H     0001H     UNIT         ?PR?MAUTOPOWERDOWNENTERSUBMENU?OSDMENUFUNC003
            BANK1   E235H     0001H     UNIT         ?PR?_MBLUESCREENVALUEADJ?OSDMENUFUNC003
            BANK1   E236H     0001H     UNIT         ?PR?MSCINPUTCHNUMPROC?OSDMENUFUNC003
            BANK1   E237H     0001H     UNIT         ?PR?DBGSHOWOSDSTATE?OSDPROC003



OVERLAY MAP OF MODULE:   .\Output\RTD2662 (TIMER)


SEGMENT                                             BIT_GROUP          DATA_GROUP          IDATA_GROUP         XDATA_GRO
>> UP
  +--> CALLED SEGMENT                            START    LENGTH     START    LENGTH     START    LENGTH     START    LE
>> NGTH
------------------------------------------------------------------------------------------------------------------------
>> ----
?PR?INTPROCTIMER0?INT                            -----    -----      -----    -----      -----    -----      -----    --
>> ---
  +--> ?PR?CTIMERDECREASETIMERCNT?TIMER
BL51 BANKED LINKER/LOCATER V6.22                                                      01/17/2018  23:35:27  PAGE 22



?PR?CTIMERDECREASETIMERCNT?TIMER                 -----    -----      -----    -----      -----    -----      -----    --
>> ---
  +--> ?PR?TIMER

*** NEW ROOT ***************************************************

?PR?INTPROCDDCC0?INT                             -----    -----      -----    -----      -----    -----      FB80H    00
>> 01H

*** NEW ROOT ***************************************************

?C_C51STARTUP                                    -----    -----      -----    -----      -----    -----      -----    --
>> ---
  +--> ?PR?MAIN?MAIN
  +--> ?C_INITSEG

?PR?MAIN?MAIN                                    -----    -----      -----    -----      -----    -----      -----    --
>> ---
  +--> ?PR?CMAINSYSTEMINITIAL?MAIN
  +--> ?PR?CTIMERHANDLER?TIMER
  +--> ?PR?CKEYHANDLER?KEY
  +--> ?PR?CMODEHANDLER?MODE
  +--> ?PR?COSDHANDLER?OSDPROC003

?PR?CMAINSYSTEMINITIAL?MAIN                      -----    -----      -----    -----      -----    -----      -----    --
>> ---
  +--> ?PR?CMCUINITIAL?MCU
  +--> ?PR?CMUTEON?FUNC
  +--> ?PR?CTIMERINITIALTIMEREVENT?TIMER
  +--> ?PR?CPOWERLIGHTPOWEROFF?POWER
  +--> ?PR?CPOWERPANELPOWEROFF?POWER
  +--> ?PR?CEEPROMSTARTUPCHECK?EEPROM
  +--> ?PR?CSCALERINITIAL?SCALER
  +--> ?PR?CKEYINITIAL?KEY
  +--> ?PR?CMAINUSERINITIAL?MAIN
  +--> ?PR?CVIDEOINITIAL?VIDEO
  +--> ?PR?CVIDEOOUTPUTDISABLE?VIDEO
  +--> ?PR?CDDCCIINITIAL?MISC
  +--> ?PR?CIRDAINITIAL?IR_NEC

?PR?CMCUINITIAL?MCU                              -----    -----      -----    -----      -----    -----      -----    --
>> ---
  +--> ?PR?MCU

?PR?CMUTEON?FUNC                                 -----    -----      -----    -----      -----    -----      -----    --
>> ---
  +--> ?PR?_CSETPWM?ADJUST

?PR?_CSETPWM?ADJUST                              -----    -----      -----    -----      -----    -----      FB89H    00
>> 01H

?PR?CTIMERINITIALTIMEREVENT?TIMER                -----    -----      -----    -----      -----    -----      -----    --
>> ---
  +--> ?PR?TIMER

?PR?CPOWERLIGHTPOWEROFF?POWER                    -----    -----      -----    -----      -----    -----      -----    --
BL51 BANKED LINKER/LOCATER V6.22                                                      01/17/2018  23:35:27  PAGE 23


>> ---
  +--> ?PR?CADJUSTBACKLIGHT?ADJUST_CUSTOMER

?PR?CADJUSTBACKLIGHT?ADJUST_CUSTOMER             -----    -----      -----    -----      -----    -----      -----    --
>> ---
  +--> ?PR?_CSETPWM?ADJUST

?PR?CEEPROMSTARTUPCHECK?EEPROM                   -----    -----      -----    -----      -----    -----      FB81H    00
>> 01H
  +--> ?PR?_CTIMERDELAYXMS?TIMER
  +--> ?PR?EEPROM
  +--> ?PR?_CEEPROMREAD?EEPROM
  +--> ?PR?CEEPROMLOADDEFAULT?EEPROM
  +--> ?PR?CEEPROMWRITEVERSION?EEPROM
  +--> ?PR?CEEPROMLOADSYSTEMDATA?EEPROM
  +--> ?PR?CEEPROMLOADOSDUSERDATA?EEPROM
  +--> ?PR?CEEPROMLOADADCDATA?EEPROM
  +--> ?PR?CEEPROMLOADBRICONDATA?EEPROM
  +--> ?PR?CEEPROMLOADCOLORTEMPDATA?EEPROM
  +--> ?PR?CEEPROMLOADTVDATA?EEPROM
  +--> ?PR?CEEPROMLOADHUESATDATA?EEPROM
  +--> ?PR?CEEPROMLOADAUDIODATA?EEPROM

?PR?EEPROM                                       -----    -----      -----    -----      -----    -----      -----    --
>> ---
  +--> ?CO?MODE
  +--> ?PR?_CGETINPUTSOURCENUM?EEPROM
  +--> ?CO?EEPROM

?PR?_CEEPROMREAD?EEPROM                          -----    -----      -----    -----      -----    -----      FB91H    00
>> 07H
  +--> ?PR?EEPROM
  +--> ?PR?_CI2CREAD?I2C

?PR?_CI2CREAD?I2C                                -----    -----      -----    -----      -----    -----      FB98H    00
>> 07H
  +--> ?PR?_CI2CWRITESTART?I2C
  +--> ?PR?_CI2CSTART?I2C
  +--> ?PR?I2C
  +--> ?PR?CI2CSENDACK?I2C
  +--> ?PR?CI2CSENDNOACK?I2C
  +--> ?PR?CI2CSTOP?I2C

?PR?_CI2CWRITESTART?I2C                          -----    -----      -----    -----      -----    -----      FBA5H    00
>> 03H
  +--> ?PR?_CI2CSTART?I2C
  +--> ?PR?_CI2CSENDBYTE?I2C

?PR?_CI2CSTART?I2C                               -----    -----      -----    -----      -----    -----      -----    --
>> ---
  +--> ?PR?DELAY5US?I2C
  +--> ?PR?I2C
  +--> ?PR?_CI2CSENDBYTE?I2C

?PR?I2C                                          -----    -----      -----    -----      -----    -----      -----    --
>> ---
  +--> ?PR?CI2CGETBYTE?I2C
BL51 BANKED LINKER/LOCATER V6.22                                                      01/17/2018  23:35:27  PAGE 24


  +--> ?PR?DELAY5US?I2C

?PR?_CI2CSENDBYTE?I2C                            -----    -----      -----    -----      -----    -----      -----    --
>> ---
  +--> ?PR?I2C
  +--> ?PR?CI2CGETACK?I2C
  +--> ?PR?CI2CSTOP?I2C

?PR?CI2CGETACK?I2C                               -----    -----      -----    -----      -----    -----      -----    --
>> ---
  +--> ?PR?I2C
  +--> ?PR?DELAY5US?I2C

?PR?CI2CSTOP?I2C                                 -----    -----      -----    -----      -----    -----      -----    --
>> ---
  +--> ?PR?DELAY5US?I2C

?PR?CI2CSENDACK?I2C                              -----    -----      -----    -----      -----    -----      -----    --
>> ---
  +--> ?PR?DELAY5US?I2C

?PR?CI2CSENDNOACK?I2C                            -----    -----      -----    -----      -----    -----      -----    --
>> ---
  +--> ?PR?I2C
  +--> ?PR?DELAY5US?I2C

?PR?CEEPROMLOADDEFAULT?EEPROM                    0020H.3  0000H.1    -----    -----      -----    -----      FB89H    00
>> 05H
  +--> ?PR?_CEEPROMLOADUSERFIFOMODEDATA?EEPROM
  +--> ?PR?CEEPROMINITIALMODEDATA?EEPROM
  +--> ?PR?CEEPROMINITIALUSERFIFOMODEDATA?EE...
  +--> ?PR?CEEPROMINITIALCENTERMODEDATA?EEPROM
  +--> ?PR?CEEPROMLOADTVDATADEFAULT?EEPROM
  +--> ?PR?CEEPROMLOADSYSTEMDATADEFAULT?EEPROM
  +--> ?PR?CEEPROMLOADOSDUSERDATADEFAULT?EEPROM
  +--> ?PR?CEEPROMLOADADCDATADEFAULT?EEPROM
  +--> ?PR?CEEPROMLOADYPBPRDATADEFAULT?EEPROM
  +--> ?PR?CEEPROMLOADBRICONDATADEFAULT?EEPROM
  +--> ?PR?CEEPROMLOADCOLORTEMPDATADEFAULT?E...
  +--> ?PR?CEEPROMLOADTVDATA?EEPROM
  +--> ?PR?CEEPROMLOADHUESATDATADEFAULT?EEPROM
  +--> ?PR?CEEPROMLOADAUDIODATADEFAULT?EEPROM
  +--> ?PR?EEPROM
  +--> ?PR?CEEPROMSAVEUSERFIFOMODEDATA?EEPROM
  +--> ?CO?MODE
  +--> ?PR?_CEEPROMSAVEMODEDATA?EEPROM
  +--> ?PR?_CEEPROMLOADMODEDATA?EEPROM
  +--> ?PR?_CEEPROMLOADCENTERMODEDATA?EEPROM

?PR?_CEEPROMLOADUSERFIFOMODEDATA?EEPROM          -----    -----      -----    -----      -----    -----      -----    --
>> ---
  +--> ?PR?EEPROM
  +--> ?PR?_CEEPROMREAD?EEPROM

?PR?CEEPROMINITIALMODEDATA?EEPROM                -----    -----      -----    -----      -----    -----      FB8EH    00
>> 02H
  +--> ?PR?EEPROM
BL51 BANKED LINKER/LOCATER V6.22                                                      01/17/2018  23:35:27  PAGE 25


  +--> ?PR?_CEEPROMSAVEMODEDATA?EEPROM
  +--> ?PR?_CEEPROMWRITE?EEPROM

?PR?_CEEPROMSAVEMODEDATA?EEPROM                  -----    -----      -----    -----      -----    -----      FB91H    00
>> 01H
  +--> ?PR?EEPROM
  +--> ?PR?_CEEPROMWRITE?EEPROM

?PR?_CEEPROMWRITE?EEPROM                         -----    -----      -----    -----      -----    -----      FB96H    00
>> 07H
  +--> ?PR?EEPROM
  +--> ?PR?_CI2CWRITE?I2C

?PR?_CI2CWRITE?I2C                               -----    -----      -----    -----      -----    -----      FB9DH    00
>> 08H
  +--> ?PR?_CI2CWRITESTART?I2C
  +--> ?PR?I2C
  +--> ?PR?_CI2CSENDBYTE?I2C
  +--> ?PR?CI2CSTOP?I2C

?PR?CEEPROMINITIALUSERFIFOMODEDATA?EE...         -----    -----      -----    -----      -----    -----      FB8EH    00
>> 01H
  +--> ?PR?EEPROM
  +--> ?PR?_CEEPROMWRITE?EEPROM

?PR?CEEPROMINITIALCENTERMODEDATA?EEPROM          -----    -----      -----    -----      -----    -----      FB8EH    00
>> 02H
  +--> ?CO?MODE
  +--> ?PR?EEPROM
  +--> ?PR?_CEEPROMSAVECENTERMODEDATA?EEPROM
  +--> ?PR?_CEEPROMWRITE?EEPROM

?PR?_CEEPROMSAVECENTERMODEDATA?EEPROM            -----    -----      -----    -----      -----    -----      FB90H    00
>> 01H
  +--> ?PR?EEPROM
  +--> ?PR?_CEEPROMWRITE?EEPROM

?PR?CEEPROMLOADTVDATADEFAULT?EEPROM              -----    -----      -----    -----      -----    -----      -----    --
>> ---
  +--> ?CO?EEPROM
  +--> ?PR?EEPROM
  +--> ?PR?CEEPROMSAVETVDATA?EEPROM

?PR?CEEPROMSAVETVDATA?EEPROM                     -----    -----      -----    -----      -----    -----      -----    --
>> ---
  +--> ?PR?EEPROM
  +--> ?PR?_CEEPROMWRITE?EEPROM

?PR?CEEPROMLOADSYSTEMDATADEFAULT?EEPROM          -----    -----      -----    -----      -----    -----      -----    --
>> ---
  +--> ?CO?EEPROM
  +--> ?PR?EEPROM
  +--> ?PR?_CEEPROMWRITE?EEPROM

?PR?CEEPROMLOADOSDUSERDATADEFAULT?EEPROM         -----    -----      -----    -----      -----    -----      -----    --
>> ---
  +--> ?CO?EEPROM
BL51 BANKED LINKER/LOCATER V6.22                                                      01/17/2018  23:35:27  PAGE 26


  +--> ?PR?EEPROM
  +--> ?PR?_CEEPROMWRITE?EEPROM

?PR?CEEPROMLOADADCDATADEFAULT?EEPROM             -----    -----      -----    -----      -----    -----      -----    --
>> ---
  +--> ?CO?EEPROM
  +--> ?PR?EEPROM
  +--> ?PR?_CEEPROMWRITE?EEPROM

?PR?CEEPROMLOADYPBPRDATADEFAULT?EEPROM           -----    -----      -----    -----      -----    -----      -----    --
>> ---
  +--> ?CO?EEPROM
  +--> ?PR?EEPROM
  +--> ?PR?_CEEPROMWRITE?EEPROM

?PR?CEEPROMLOADBRICONDATADEFAULT?EEPROM          -----    -----      -----    -----      -----    -----      -----    --
>> ---
  +--> ?CO?EEPROM
  +--> ?PR?EEPROM
  +--> ?PR?_CEEPROMWRITE?EEPROM

?PR?CEEPROMLOADCOLORTEMPDATADEFAULT?E...         -----    -----      -----    -----      -----    -----      -----    --
>> ---
  +--> ?CO?EEPROM
  +--> ?PR?_CEEPROMWRITE?EEPROM
  +--> ?PR?CEEPROMLOADCOLORTEMPDATA?EEPROM

?PR?CEEPROMLOADCOLORTEMPDATA?EEPROM              -----    -----      -----    -----      -----    -----      -----    --
>> ---
  +--> ?PR?EEPROM
  +--> ?PR?_CEEPROMREAD?EEPROM

?PR?CEEPROMLOADTVDATA?EEPROM                     -----    -----      -----    -----      -----    -----      -----    --
>> ---
  +--> ?PR?EEPROM
  +--> ?PR?_CEEPROMREAD?EEPROM

?PR?CEEPROMLOADHUESATDATADEFAULT?EEPROM          -----    -----      -----    -----      -----    -----      -----    --
>> ---
  +--> ?CO?EEPROM
  +--> ?PR?EEPROM
  +--> ?PR?_CEEPROMWRITE?EEPROM

?PR?CEEPROMLOADAUDIODATADEFAULT?EEPROM           -----    -----      -----    -----      -----    -----      -----    --
>> ---
  +--> ?CO?EEPROM
  +--> ?PR?EEPROM
  +--> ?PR?CEEPROMSAVEAUDIODATA?EEPROM

?PR?CEEPROMSAVEAUDIODATA?EEPROM                  -----    -----      -----    -----      -----    -----      -----    --
>> ---
  +--> ?PR?EEPROM
  +--> ?PR?_CEEPROMWRITE?EEPROM

?PR?CEEPROMSAVEUSERFIFOMODEDATA?EEPROM           -----    -----      -----    -----      -----    -----      FB91H    00
>> 05H
  +--> ?PR?EEPROM
BL51 BANKED LINKER/LOCATER V6.22                                                      01/17/2018  23:35:27  PAGE 27


  +--> ?PR?_CEEPROMWRITE?EEPROM

?PR?_CEEPROMLOADMODEDATA?EEPROM                  -----    -----      -----    -----      -----    -----      FB8EH    00
>> 01H
  +--> ?PR?EEPROM
  +--> ?PR?_CEEPROMREAD?EEPROM

?PR?_CEEPROMLOADCENTERMODEDATA?EEPROM            -----    -----      -----    -----      -----    -----      FB8EH    00
>> 01H
  +--> ?PR?EEPROM
  +--> ?PR?_CEEPROMREAD?EEPROM

?PR?CEEPROMWRITEVERSION?EEPROM                   -----    -----      -----    -----      -----    -----      -----    --
>> ---
  +--> ?PR?EEPROM
  +--> ?PR?_CEEPROMWRITE?EEPROM

?PR?CEEPROMLOADSYSTEMDATA?EEPROM                 -----    -----      -----    -----      -----    -----      -----    --
>> ---
  +--> ?PR?EEPROM
  +--> ?PR?_CEEPROMREAD?EEPROM

?PR?CEEPROMLOADOSDUSERDATA?EEPROM                -----    -----      -----    -----      -----    -----      -----    --
>> ---
  +--> ?PR?EEPROM
  +--> ?PR?_CEEPROMREAD?EEPROM

?PR?CEEPROMLOADADCDATA?EEPROM                    -----    -----      -----    -----      -----    -----      -----    --
>> ---
  +--> ?PR?EEPROM
  +--> ?PR?_CEEPROMREAD?EEPROM

?PR?CEEPROMLOADBRICONDATA?EEPROM                 -----    -----      -----    -----      -----    -----      -----    --
>> ---
  +--> ?PR?_CGETINPUTSOURCENUM?EEPROM
  +--> ?PR?_CEEPROMREAD?EEPROM

?PR?CEEPROMLOADHUESATDATA?EEPROM                 -----    -----      -----    -----      -----    -----      -----    --
>> ---
  +--> ?PR?EEPROM
  +--> ?PR?_CEEPROMREAD?EEPROM

?PR?CEEPROMLOADAUDIODATA?EEPROM                  -----    -----      -----    -----      -----    -----      -----    --
>> ---
  +--> ?PR?EEPROM
  +--> ?PR?_CEEPROMREAD?EEPROM

?PR?CSCALERINITIAL?SCALER                        -----    -----      -----    -----      -----    -----      -----    --
>> ---
  +--> ?PR?_CSCALERSETBIT?RTDACCESS
  +--> ?PR?_CTIMERDELAYXMS?TIMER
  +--> ?PR?CIRDAINITIAL?IR_NEC
  +--> ?CO?SCALER
  +--> ?PR?_CSCALERCODEW?RTDACCESS
  +--> ?PR?CSCALERRESET?SCALER
  +--> ?PR?CADJUSTHDCP?ADJUST

BL51 BANKED LINKER/LOCATER V6.22                                                      01/17/2018  23:35:27  PAGE 28


?PR?_CSCALERSETBIT?RTDACCESS                     -----    -----      -----    -----      -----    -----      FBB9H    00
>> 02H
  +--> ?PR?_CSCALERREAD?RTDACCESS
  +--> ?PR?RTDACCESS
  +--> ?PR?_CSCALERWRITE?RTDACCESS

?PR?_CSCALERREAD?RTDACCESS                       0020H.4  0000H.1    -----    -----      -----    -----      FBCFH    00
>> 03H
  +--> ?PR?RTDACCESS
  +--> ?PR?_CSCALERSENDADDR?RTDACCESS

?PR?_CSCALERSENDADDR?RTDACCESS                   0020H.5  0000H.1    -----    -----      -----    -----      -----    --
>> ---
  +--> ?PR?RTDACCESS

?PR?_CSCALERWRITE?RTDACCESS                      0020H.4  0000H.1    -----    -----      -----    -----      FBD0H    00
>> 03H
  +--> ?PR?RTDACCESS
  +--> ?PR?_CSCALERSENDADDR?RTDACCESS

?PR?CIRDAINITIAL?IR_NEC                          -----    -----      -----    -----      -----    -----      -----    --
>> ---
  +--> ?CO?IR_NEC

?PR?_CSCALERCODEW?RTDACCESS                      -----    -----      -----    -----      -----    -----      FB88H    00
>> 03H
  +--> ?PR?RTDACCESS

?PR?CSCALERRESET?SCALER                          -----    -----      -----    -----      -----    -----      -----    --
>> ---
  +--> ?CO?SCALER
  +--> ?PR?_CSCALERCODEW?RTDACCESS
  +--> ?PR?CMISCSETPINSHARE?MISC
  +--> ?PR?_CADJUSTDISABLEWATCHDOG?ADJUST
  +--> ?PR?CMISCCLEARSTATUSREGISTER?MISC
  +--> ?PR?CSCALERINITIALDISPLAYINTERFACE?SC...
  +--> ?PR?CSCALERINITIALDISPLAYOUTPUT?SCALER
  +--> ?PR?CMODESETFREERUN?MODE
  +--> ?PR?CSCALERENABLEDISPLAYOUTPUT?SCALER
  +--> ?PR?_CSCALERPAGESELECT?RTDACCESS
  +--> ?PR?_CSCALERSETBYTE?RTDACCESS
  +--> ?PR?CADJUSTTMDSERRORCORRECTIONON?ADJUST
  +--> ?PR?_CADJUSTGAMMATABLE?ADJUST
  +--> ?PR?SCALER
  +--> ?PR?_CADJUSTDITHER?ADJUST
  +--> ?PR?_CSCALERSETBIT?RTDACCESS
  +--> ?PR?CADJUSTBRIGHTNESS?ADJUST_CUSTOMER
  +--> ?PR?CADJUSTCONTRAST?ADJUST_CUSTOMER
  +--> ?PR?CPOWERDPLLOFF?POWER
  +--> ?PR?CSCALERDISABLEDISPLAYOUTPUT?SCALER

?PR?_CADJUSTDISABLEWATCHDOG?ADJUST               -----    -----      -----    -----      -----    -----      -----    --
>> ---
  +--> ?PR?_CSCALERSETBIT?RTDACCESS
  +--> ?PR?_CSCALERGETBIT?RTDACCESS
  +--> ?PR?_CSCALERSETBYTE?RTDACCESS

BL51 BANKED LINKER/LOCATER V6.22                                                      01/17/2018  23:35:27  PAGE 29


?PR?_CSCALERGETBIT?RTDACCESS                     -----    -----      -----    -----      -----    -----      FBB6H    00
>> 01H
  +--> ?PR?_CSCALERREAD?RTDACCESS

?PR?_CSCALERSETBYTE?RTDACCESS                    -----    -----      -----    -----      -----    -----      FBCFH    00
>> 01H
  +--> ?PR?RTDACCESS
  +--> ?PR?_CSCALERWRITE?RTDACCESS

?PR?CMISCCLEARSTATUSREGISTER?MISC                -----    -----      -----    -----      -----    -----      -----    --
>> ---
  +--> ?PR?_CSCALERSETBYTE?RTDACCESS

?PR?CSCALERINITIALDISPLAYINTERFACE?SC...         -----    -----      -----    -----      -----    -----      FB81H    00
>> 01H
  +--> ?PR?_CSCALERSETBYTE?RTDACCESS
  +--> ?PR?_CSCALERREAD?RTDACCESS
  +--> ?PR?SCALER
  +--> ?CO?SCALER
  +--> ?PR?_CSCALERCODEW?RTDACCESS
  +--> ?PR?CCUSTOMERINITIAL?SCALER

?PR?SCALER                                       -----    -----      -----    -----      -----    -----      -----    --
>> ---
  +--> ?CO?RTDACCESS

?PR?CCUSTOMERINITIAL?SCALER                      -----    -----      -----    -----      -----    -----      -----    --
>> ---
  +--> ?PR?_CSCALERPAGESELECT?RTDACCESS
  +--> ?PR?_CSCALERREAD?RTDACCESS
  +--> ?PR?_CSCALERSETBYTE?RTDACCESS

?PR?_CSCALERPAGESELECT?RTDACCESS                 -----    -----      -----    -----      -----    -----      -----    --
>> ---
  +--> ?PR?_CSCALERSETBYTE?RTDACCESS

?PR?CSCALERINITIALDISPLAYOUTPUT?SCALER           -----    -----      -----    -----      -----    -----      -----    --
>> ---
  +--> ?PR?SCALER
  +--> ?PR?_CSCALERSETBIT?RTDACCESS
  +--> ?PR?_CSCALERSETBYTE?RTDACCESS

?PR?CMODESETFREERUN?MODE                         -----    -----      -----    -----      -----    -----      -----    --
>> ---
  +--> ?PR?CMISCDISABLEDOUBLEBUFFER?MISC
  +--> ?PR?MODE
  +--> ?PR?_CADJUSTDPLL?ADJUST
  +--> ?PR?_CSCALERSETBIT?RTDACCESS
  +--> ?PR?_CSCALERSETBYTE?RTDACCESS
  +--> ?PR?_CSCALERPAGESELECT?RTDACCESS
  +--> ?PR?_CSCALERWRITE?RTDACCESS
  +--> ?PR?_CSCALERSETDATAPORTBYTE?RTDACCESS

?PR?CMISCDISABLEDOUBLEBUFFER?MISC                -----    -----      -----    -----      -----    -----      -----    --
>> ---
  +--> ?PR?_CSCALERSETBIT?RTDACCESS

BL51 BANKED LINKER/LOCATER V6.22                                                      01/17/2018  23:35:27  PAGE 30


?PR?MODE                                         -----    -----      -----    -----      -----    -----      -----    --
>> ---
  +--> ?CO?RTDACCESS
  +--> ?CO?MODE

?PR?_CADJUSTDPLL?ADJUST                          -----    -----      -----    -----      -----    -----      FB88H    00
>> 07H
  +--> ?PR?ADJUST
  +--> ?PR?_CSCALERPAGESELECT?RTDACCESS
  +--> ?PR?_CSCALERWRITE?RTDACCESS
  +--> ?PR?_CSCALERSETBIT?RTDACCESS
  +--> ?PR?_CSCALERGETBIT?RTDACCESS
  +--> ?PR?_CTIMERDELAYXMS?TIMER
  +--> ?PR?_CADJUSTDCLKOFFSET?ADJUST

?PR?ADJUST                                       -----    -----      -----    -----      -----    -----      -----    --
>> ---
  +--> ?CO?RTDACCESS

?PR?_CADJUSTDCLKOFFSET?ADJUST                    -----    -----      -----    -----      -----    -----      FB92H    00
>> 02H
  +--> ?PR?_CSCALERPAGESELECT?RTDACCESS
  +--> ?PR?_CSCALERSETBIT?RTDACCESS
  +--> ?PR?_CSCALERSETBYTE?RTDACCESS

?PR?_CSCALERSETDATAPORTBYTE?RTDACCESS            -----    -----      -----    -----      -----    -----      FB96H    00
>> 02H
  +--> ?PR?_CSCALERSETBYTE?RTDACCESS
  +--> ?PR?RTDACCESS
  +--> ?PR?_CSCALERWRITE?RTDACCESS

?PR?CSCALERENABLEDISPLAYOUTPUT?SCALER            -----    -----      -----    -----      -----    -----      -----    --
>> ---
  +--> ?PR?_CSCALERSETBIT?RTDACCESS

?PR?CADJUSTTMDSERRORCORRECTIONON?ADJUST          -----    -----      -----    -----      -----    -----      -----    --
>> ---
  +--> ?PR?_CSCALERPAGESELECT?RTDACCESS
  +--> ?PR?_CSCALERSETBIT?RTDACCESS

?PR?_CADJUSTGAMMATABLE?ADJUST                    -----    -----      -----    -----      -----    -----      -----    --
>> ---
  +--> ?PR?ADJUST
  +--> ?CO?MAIN
  +--> ?PR?_CADJUSTGAMMA?ADJUST
  +--> ?PR?_CSCALERSETBIT?RTDACCESS

?PR?_CADJUSTGAMMA?ADJUST                         -----    -----      -----    -----      -----    -----      FB81H    00
>> 0EH
  +--> ?PR?ADJUST
  +--> ?PR?_CSCALERWRITE?RTDACCESS
  +--> ?PR?_CSCALERSETBYTE?RTDACCESS
  +--> ?PR?CSCALERGETVLD?RTDACCESS

?PR?CSCALERGETVLD?RTDACCESS                      -----    -----      -----    -----      -----    -----      FB8FH    00
>> 01H
  +--> ?PR?CSCALERGETBITVLD?RTDACCESS
BL51 BANKED LINKER/LOCATER V6.22                                                      01/17/2018  23:35:27  PAGE 31



?PR?_CADJUSTDITHER?ADJUST                        -----    -----      -----    -----      -----    -----      FB81H    00
>> 06H
  +--> ?PR?ADJUST
  +--> ?PR?_CSCALERSETBIT?RTDACCESS
  +--> ?PR?_CSCALERSETBYTE?RTDACCESS
  +--> ?PR?_CSCALERWRITE?RTDACCESS

?PR?CADJUSTBRIGHTNESS?ADJUST_CUSTOMER            -----    -----      -----    -----      -----    -----      -----    --
>> ---
  +--> ?PR?CADJUSTSETBRIGHTNESS?ADJUST
  +--> ?PR?CADJUSTBACKLIGHT?ADJUST_CUSTOMER

?PR?CADJUSTSETBRIGHTNESS?ADJUST                  -----    -----      -----    -----      -----    -----      -----    --
>> ---
  +--> ?PR?_CSCALERSETBYTE?RTDACCESS
  +--> ?PR?ADJUST
  +--> ?PR?_CSCALERWRITE?RTDACCESS

?PR?CADJUSTCONTRAST?ADJUST_CUSTOMER              -----    -----      -----    -----      -----    -----      -----    --
>> ---
  +--> ?PR?CADJUSTSETCONTRAST?ADJUST

?PR?CADJUSTSETCONTRAST?ADJUST                    -----    -----      -----    -----      -----    -----      -----    --
>> ---
  +--> ?PR?_CSCALERSETBYTE?RTDACCESS
  +--> ?PR?ADJUST
  +--> ?PR?_CSCALERWRITE?RTDACCESS

?PR?CPOWERDPLLOFF?POWER                          -----    -----      -----    -----      -----    -----      -----    --
>> ---
  +--> ?PR?_CSCALERPAGESELECT?RTDACCESS
  +--> ?PR?_CSCALERSETBIT?RTDACCESS

?PR?CSCALERDISABLEDISPLAYOUTPUT?SCALER           -----    -----      -----    -----      -----    -----      -----    --
>> ---
  +--> ?PR?_CSCALERSETBIT?RTDACCESS

?PR?CADJUSTHDCP?ADJUST                           -----    -----      -----    -----      -----    -----      -----    --
>> ---
  +--> ?PR?_CSCALERPAGESELECT?RTDACCESS
  +--> ?PR?_CSCALERSETBYTE?RTDACCESS
  +--> ?CO?SCALER
  +--> ?PR?_CSCALERWRITE?RTDACCESS
  +--> ?PR?_CSCALERCODEW?RTDACCESS

?PR?CMAINUSERINITIAL?MAIN                        -----    -----      -----    -----      -----    -----      -----    --
>> ---
  +--> ?PR?CHECKLANGUAGE?GMIOSDFUNC

?PR?CHECKLANGUAGE?GMIOSDFUNC                     -----    -----      -----    -----      -----    -----      -----    --
>> ---
  +--> ?PR?GMIOSDFUNC
  +--> ?PR?FIRSTLANGUAGE?GMIOSDFUNC

?PR?GMIOSDFUNC                                   -----    -----      -----    -----      -----    -----      -----    --
>> ---
BL51 BANKED LINKER/LOCATER V6.22                                                      01/17/2018  23:35:27  PAGE 32


  +--> ?CO?RTDACCESS
  +--> ?CO?OSDPROC003

?PR?FIRSTLANGUAGE?GMIOSDFUNC                     -----    -----      -----    -----      -----    -----      -----    --
>> ---
  +--> ?PR?GMIOSDFUNC

?PR?CVIDEOINITIAL?VIDEO                          -----    -----      -----    -----      -----    -----      -----    --
>> ---
  +--> ?PR?_CSCALERSETBIT?RTDACCESS
  +--> ?CO?VIDEO
  +--> ?PR?_CSCALERCODEW?RTDACCESS
  +--> ?PR?GMI_CINITIALVDC?RTD2662
  +--> ?PR?_CSCALERPAGESELECT?RTDACCESS
  +--> ?PR?CINITINPUTSOURCE?FUNC
  +--> ?PR?CVIDEOSOFTRESET?VIDEO

?PR?GMI_CINITIALVDC?RTD2662                      -----    -----      -----    -----      -----    -----      -----    --
>> ---
  +--> ?PR?CGMIFUNC?GMIBASE
  +--> ?PR?_CSCALERPAGESELECT?RTDACCESS
  +--> ?PR?_CSCALERSETBYTE?RTDACCESS
  +--> ?PR?_CTIMERDELAYXMS?TIMER
  +--> ?PR?_CSCALERSETBIT?RTDACCESS
  +--> ?CO?RTD2662
  +--> ?PR?_CSCALERCODEW?RTDACCESS

?PR?CGMIFUNC?GMIBASE                             -----    -----      0023H    0003H      -----    -----      FB8BH    00
>> 02H

?PR?CINITINPUTSOURCE?FUNC                        -----    -----      -----    -----      -----    -----      -----    --
>> ---
  +--> ?PR?_CINITSOUNDCHANNEL?FUNC

?PR?_CINITSOUNDCHANNEL?FUNC                      -----    -----      -----    -----      -----    -----      FB81H    00
>> 01H
  +--> ?PR?CMUTEON?FUNC

?PR?CVIDEOSOFTRESET?VIDEO                        -----    -----      -----    -----      -----    -----      -----    --
>> ---
  +--> ?PR?_CSCALERPAGESELECT?RTDACCESS
  +--> ?PR?_CSCALERSETBYTE?RTDACCESS
  +--> ?PR?_CTIMERDELAYXMS?TIMER

?PR?CVIDEOOUTPUTDISABLE?VIDEO                    -----    -----      -----    -----      -----    -----      -----    --
>> ---
  +--> ?PR?_CSCALERPAGESELECT?RTDACCESS
  +--> ?PR?_CSCALERSETBIT?RTDACCESS

?PR?CDDCCIINITIAL?MISC                           -----    -----      -----    -----      -----    -----      -----    --
>> ---
  +--> ?CO?RTDACCESS

?PR?CTIMERHANDLER?TIMER                          -----    -----      -----    -----      -----    -----      FB81H    00
>> 01H
  +--> ?PR?TIMER

BL51 BANKED LINKER/LOCATER V6.22                                                      01/17/2018  23:35:27  PAGE 33


?PR?CKEYHANDLER?KEY                              -----    -----      -----    -----      -----    -----      -----    --
>> ---
  +--> ?PR?CKEYSCANREADY?KEY
  +--> ?PR?CKEYSCAN?KEY_PCB2660_003_5KEY
  +--> ?PR?CKEYPOWERKEYPROC?KEY
  +--> ?PR?CKEYMESSAGEPROC?KEY_PCB2660_003_5KEY
  +--> ?PR?CIRKEYSCAN?IR_NEC
  +--> ?PR?GETVIRTUALKEY?MISC

?PR?CKEYSCANREADY?KEY                            -----    -----      -----    -----      -----    -----      -----    --
>> ---
  +--> ?PR?CKEYSCANREADYTIMEREVENT?KEY
  +--> ?PR?_CTIMERREACTIVETIMEREVENT?TIMER

?PR?_CTIMERREACTIVETIMEREVENT?TIMER              -----    -----      -----    -----      -----    -----      FB88H    00
>> 05H
  +--> ?PR?TIMER
  +--> ?PR?_CTIMERACTIVETIMEREVENT?TIMER

?PR?_CTIMERACTIVETIMEREVENT?TIMER                -----    -----      -----    -----      -----    -----      FB8DH    00
>> 05H
  +--> ?PR?TIMER

?PR?CKEYSCAN?KEY_PCB2660_003_5KEY                -----    -----      -----    -----      -----    -----      FB81H    00
>> 01H
  +--> ?PR?_CGETADCVALUE?KEY
  +--> ?PR?KEY_PCB2660_003_5KEY
  +--> ?PR?CKEYINITIAL?KEY

?PR?_CGETADCVALUE?KEY                            -----    -----      -----    -----      -----    -----      FB82H    00
>> 03H
  +--> ?PR?KEY

?PR?CKEYPOWERKEYPROC?KEY                         -----    -----      -----    -----      -----    -----      -----    --
>> ---
  +--> ?PR?_CTIMERDELAYXMS?TIMER
  +--> ?PR?CKEYSCAN?KEY_PCB2660_003_5KEY
  +--> ?PR?CKEYPOWERKEYMIX?KEY

?PR?CKEYMESSAGEPROC?KEY_PCB2660_003_5KEY         -----    -----      -----    -----      -----    -----      -----    --
>> ---
  +--> ?PR?_CKEYMESSAGECONVERT?KEY
  +--> ?PR?CKEYREPEATENABLETIMEREVENT?KEY
  +--> ?PR?_CTIMERCANCELTIMEREVENT?TIMER

?PR?_CKEYMESSAGECONVERT?KEY                      -----    -----      -----    -----      -----    -----      -----    --
>> ---
  +--> ?PR?CKEYREPEATENABLETIMEREVENT?KEY
  +--> ?PR?_CTIMERACTIVETIMEREVENT?TIMER

?PR?_CTIMERCANCELTIMEREVENT?TIMER                -----    -----      -----    -----      -----    -----      FB88H    00
>> 03H
  +--> ?PR?TIMER

?PR?CIRKEYSCAN?IR_NEC                            -----    -----      -----    -----      -----    -----      FB81H    00
>> 01H
  +--> ?PR?CIRDAREADDATA?IR_NEC
BL51 BANKED LINKER/LOCATER V6.22                                                      01/17/2018  23:35:27  PAGE 34


  +--> ?CO?IR_NEC

?PR?CMODEHANDLER?MODE                            -----    -----      -----    -----      -----    -----      -----    --
>> ---
  +--> ?PR?CPOWERHANDLER?POWER
  +--> ?PR?BSOURCEVIDEO?SOURCE
  +--> ?PR?CVIDEOINITIAL?VIDEO
  +--> ?PR?COSDDISPFIRSTTIMELOADFONT?OSDPROC003
  +--> ?PR?MODE
  +--> ?PR?CSHOWNOTE?OSDPROC003
  +--> ?PR?CPOWERPANELON?POWER
  +--> ?PR?CPOWERLIGHTPOWERON?POWER
  +--> ?PR?CSYNCPROCESS?SYNC
  +--> ?PR?CVIDEOPROCESS?VIDEO

?PR?CPOWERHANDLER?POWER                          -----    -----      -----    -----      -----    -----      -----    --
>> ---
  +--> ?PR?CPOWERCONTROL?POWER

?PR?CPOWERCONTROL?POWER                          -----    -----      -----    -----      -----    -----      -----    --
>> ---
  +--> ?PR?CPOWERDOWNCUSTOMERCONTROL?POWER
  +--> ?PR?CPOWERLEDOFF?POWER
  +--> ?PR?CPOWERLEDON?POWER
  +--> ?PR?CSCALERRESET?SCALER
  +--> ?PR?CPOWERUPCUSTOMERCONTROL?POWER
  +--> ?PR?CMODERESETMODE?MODE
  +--> ?PR?CEEPROMSAVESYSTEMDATA?EEPROM
  +--> ?PR?CVIDEOINITIAL?VIDEO
  +--> ?PR?_CTIMERDELAYXMS?TIMER
  +--> ?PR?CVIDEOOUTPUTDISABLE?VIDEO

?PR?CPOWERDOWNCUSTOMERCONTROL?POWER              -----    -----      -----    -----      -----    -----      -----    --
>> ---
  +--> ?PR?CMUTEON?FUNC
  +--> ?PR?CPOWERPANELOFF?POWER
  +--> ?PR?CPOWERADCAPLLOFF?POWER
  +--> ?PR?CPOWERLVDSOFF?POWER
  +--> ?PR?CPOWERDPLLOFF?POWER
  +--> ?PR?_CSCALERSETBYTE?RTDACCESS
  +--> ?PR?CEEPROMSAVESYSTEMDATA?EEPROM
  +--> ?PR?CMODENOSIGNALEVENT?MODE
  +--> ?PR?_CTIMERCANCELTIMEREVENT?TIMER
  +--> ?PR?CMODENOCABLEEVENT?MODE
  +--> ?PR?CMODENOSUPPORTEVENT?MODE
  +--> ?PR?CMODEPOWERSAVINGEVENT?MODE

?PR?CPOWERPANELOFF?POWER                         -----    -----      -----    -----      -----    -----      -----    --
>> ---
  +--> ?PR?CPOWERLIGHTPOWEROFF?POWER
  +--> ?PR?_CTIMERDELAYXMS?TIMER
  +--> ?PR?CSCALERDISABLEDISPLAYOUTPUT?SCALER
  +--> ?PR?CPOWERDISPLAYPORTOFF?POWER
  +--> ?PR?CPOWERPANELPOWEROFF?POWER

?PR?CPOWERDISPLAYPORTOFF?POWER                   -----    -----      -----    -----      -----    -----      -----    --
>> ---
BL51 BANKED LINKER/LOCATER V6.22                                                      01/17/2018  23:35:27  PAGE 35


  +--> ?PR?POWER
  +--> ?PR?CPOWERLVDSOFF?POWER
  +--> ?PR?CPOWERRSDSOFF?POWER

?PR?POWER                                        -----    -----      -----    -----      -----    -----      -----    --
>> ---
  +--> ?CO?RTDACCESS

?PR?CPOWERLVDSOFF?POWER                          -----    -----      -----    -----      -----    -----      -----    --
>> ---
  +--> ?PR?_CSCALERSETBYTE?RTDACCESS

?PR?CPOWERRSDSOFF?POWER                          -----    -----      -----    -----      -----    -----      -----    --
>> ---
  +--> ?PR?CPOWERLVDSOFF?POWER
  +--> ?PR?_CSCALERSETBIT?RTDACCESS
  +--> ?PR?_CTIMERDELAYXMS?TIMER
  +--> ?PR?_CSCALERSETDATAPORTBYTE?RTDACCESS

?PR?CPOWERADCAPLLOFF?POWER                       -----    -----      -----    -----      -----    -----      -----    --
>> ---
  +--> ?PR?_CSCALERPAGESELECT?RTDACCESS
  +--> ?PR?_CSCALERSETBIT?RTDACCESS

?PR?CEEPROMSAVESYSTEMDATA?EEPROM                 -----    -----      -----    -----      -----    -----      -----    --
>> ---
  +--> ?PR?EEPROM
  +--> ?PR?_CEEPROMWRITE?EEPROM

?PR?CMODENOSIGNALEVENT?MODE                      -----    -----      -----    -----      -----    -----      -----    --
>> ---
  +--> ?PR?CPOWERPANELON?POWER
  +--> ?PR?CPOWERLIGHTPOWERON?POWER
  +--> ?PR?MODE

?PR?CPOWERPANELON?POWER                          -----    -----      -----    -----      -----    -----      -----    --
>> ---
  +--> ?PR?CPOWERPANELPOWERON?POWER
  +--> ?PR?_CTIMERDELAYXMS?TIMER
  +--> ?PR?CPOWERDISPLAYPORTON?POWER
  +--> ?PR?CSCALERENABLEDISPLAYOUTPUT?SCALER
  +--> ?PR?CMISCCLEARSTATUSREGISTER?MISC

?PR?CPOWERDISPLAYPORTON?POWER                    -----    -----      -----    -----      -----    -----      -----    --
>> ---
  +--> ?PR?POWER
  +--> ?PR?_CSCALERSETBYTE?RTDACCESS
  +--> ?PR?CPOWERLVDSON?POWER
  +--> ?PR?CPOWERRSDSON?POWER

?PR?CPOWERLVDSON?POWER                           -----    -----      -----    -----      -----    -----      -----    --
>> ---
  +--> ?PR?_CSCALERSETBYTE?RTDACCESS

?PR?CPOWERRSDSON?POWER                           -----    -----      -----    -----      -----    -----      -----    --
>> ---
  +--> ?PR?CPOWERLVDSON?POWER
BL51 BANKED LINKER/LOCATER V6.22                                                      01/17/2018  23:35:27  PAGE 36


  +--> ?PR?_CSCALERSETBYTE?RTDACCESS
  +--> ?PR?_CTIMERDELAYXMS?TIMER

?PR?CPOWERLIGHTPOWERON?POWER                     -----    -----      -----    -----      -----    -----      -----    --
>> ---
  +--> ?PR?CADJUSTBACKLIGHT?ADJUST_CUSTOMER

?PR?CMODENOCABLEEVENT?MODE                       -----    -----      -----    -----      -----    -----      -----    --
>> ---
  +--> ?PR?CPOWERPANELON?POWER
  +--> ?PR?CPOWERLIGHTPOWERON?POWER
  +--> ?PR?MODE

?PR?CMODENOSUPPORTEVENT?MODE                     -----    -----      -----    -----      -----    -----      -----    --
>> ---
  +--> ?PR?CPOWERPANELON?POWER
  +--> ?PR?CPOWERLIGHTPOWERON?POWER
  +--> ?PR?MODE

?PR?CMODEPOWERSAVINGEVENT?MODE                   -----    -----      -----    -----      -----    -----      -----    --
>> ---
  +--> ?PR?CPOWERPANELOFF?POWER
  +--> ?PR?_CSCALERSETBIT?RTDACCESS
  +--> ?PR?CPOWERADCAPLLOFF?POWER
  +--> ?PR?CPOWERLVDSOFF?POWER
  +--> ?PR?CPOWERDPLLOFF?POWER
  +--> ?PR?CPOWERLEDSLEEP?POWER

?PR?CPOWERLEDSLEEP?POWER                         -----    -----      -----    -----      -----    -----      -----    --
>> ---
  +--> ?PR?CPOWERLEDORANGE?POWER

?PR?CPOWERLEDOFF?POWER                           -----    -----      -----    -----      -----    -----      -----    --
>> ---
  +--> ?PR?CPOWERLEDRED?POWER

?PR?CPOWERLEDON?POWER                            -----    -----      -----    -----      -----    -----      -----    --
>> ---
  +--> ?PR?CPOWERLEDGREEN?POWER

?PR?CPOWERUPCUSTOMERCONTROL?POWER                -----    -----      -----    -----      -----    -----      -----    --
>> ---
  +--> ?PR?CMUTEON?FUNC
  +--> ?PR?CPOWERPANELON?POWER
  +--> ?PR?CPOWERADCAPLLON?POWER
  +--> ?PR?CPOWERLVDSON?POWER
  +--> ?PR?CPOWERDPLLOFF?POWER
  +--> ?PR?CPOWERTMDSON?POWER
  +--> ?PR?CADJUSTBACKLIGHT?ADJUST_CUSTOMER

?PR?CPOWERADCAPLLON?POWER                        -----    -----      -----    -----      -----    -----      -----    --
>> ---
  +--> ?PR?_CSCALERPAGESELECT?RTDACCESS
  +--> ?PR?_CSCALERSETBIT?RTDACCESS

?PR?CPOWERTMDSON?POWER                           -----    -----      -----    -----      -----    -----      -----    --
>> ---
BL51 BANKED LINKER/LOCATER V6.22                                                      01/17/2018  23:35:27  PAGE 37


  +--> ?PR?_CSCALERSETBIT?RTDACCESS

?PR?CMODERESETMODE?MODE                          -----    -----      -----    -----      -----    -----      -----    --
>> ---
  +--> ?PR?_CADJUSTBACKGROUNDCOLOR?ADJUST
  +--> ?PR?_CSCALERSETBIT?RTDACCESS
  +--> ?PR?CHDMIFORMATDETECT?HDMI
  +--> ?PR?_CSCALERPAGESELECT?RTDACCESS
  +--> ?PR?_CADJUSTDISABLEHDMIWATCHDOG?ADJUST
  +--> ?PR?_CSCALERSETDATAPORTBIT?RTDACCESS
  +--> ?PR?_CSCALERSETDATAPORTBYTE?RTDACCESS
  +--> ?PR?CPOWERPANELON?POWER
  +--> ?PR?MODE
  +--> ?PR?CPOWERLIGHTPOWEROFF?POWER
  +--> ?PR?_CADJUSTDISABLEWATCHDOG?ADJUST
  +--> ?PR?_CSCALERSETBYTE?RTDACCESS
  +--> ?CO?SCALER
  +--> ?PR?_CSCALERCODEW?RTDACCESS
  +--> ?PR?BSOURCEVIDEO?SOURCE
  +--> ?PR?CMODESETFREERUN?MODE
  +--> ?PR?CSCALERENABLEDISPLAYOUTPUT?SCALER
  +--> ?PR?CMODEAUTOMEASUREOFF?MODE
  +--> ?PR?CADJUSTTMDSERRORCORRECTIONON?ADJUST
  +--> ?PR?CMISCCLEARSTATUSREGISTER?MISC
  +--> ?PR?CMODENOSIGNALEVENT?MODE
  +--> ?PR?_CTIMERCANCELTIMEREVENT?TIMER
  +--> ?PR?CMODENOCABLEEVENT?MODE
  +--> ?PR?CMODENOSUPPORTEVENT?MODE
  +--> ?PR?CMODEPOWERSAVINGEVENT?MODE
  +--> ?PR?COSDDISPOSDTIMEREVENT?OSDPROC003
  +--> ?PR?CIRDAINITIAL?IR_NEC

?PR?_CADJUSTBACKGROUNDCOLOR?ADJUST               -----    -----      -----    -----      -----    -----      FB88H    00
>> 03H
  +--> ?PR?_CSCALERSETBIT?RTDACCESS
  +--> ?PR?_CSCALERSETBYTE?RTDACCESS

?PR?CHDMIFORMATDETECT?HDMI                       -----    -----      -----    -----      -----    -----      -----    --
>> ---
  +--> ?PR?_CSCALERPAGESELECT?RTDACCESS
  +--> ?PR?HDMI
  +--> ?PR?_CSCALERREAD?RTDACCESS

?PR?_CADJUSTDISABLEHDMIWATCHDOG?ADJUST           -----    -----      -----    -----      -----    -----      FB96H    00
>> 01H
  +--> ?PR?_CSCALERPAGESELECT?RTDACCESS
  +--> ?PR?_CSCALERSETDATAPORTBIT?RTDACCESS

?PR?_CSCALERSETDATAPORTBIT?RTDACCESS             -----    -----      -----    -----      -----    -----      FB97H    00
>> 05H
  +--> ?PR?RTDACCESS
  +--> ?PR?_CSCALERREAD?RTDACCESS
  +--> ?PR?_CSCALERWRITE?RTDACCESS
  +--> ?PR?_CSCALERSETBYTE?RTDACCESS

?PR?CMODEAUTOMEASUREOFF?MODE                     -----    -----      -----    -----      -----    -----      -----    --
>> ---
BL51 BANKED LINKER/LOCATER V6.22                                                      01/17/2018  23:35:27  PAGE 38


  +--> ?PR?_CSCALERSETBIT?RTDACCESS

?PR?COSDDISPOSDTIMEREVENT?OSDPROC003             -----    -----      -----    -----      -----    -----      -----    --
>> ---
  +--> ?PR?COSDFXDISABLEOSD?GMIOSDFUNC

?PR?COSDFXDISABLEOSD?GMIOSDFUNC                  -----    -----      -----    -----      -----    -----      -----    --
>> ---
  +--> ?PR?_CTIMERWAITFOREVENT?TIMER
  +--> ?PR?_CSCALERSETBIT?RTDACCESS

?PR?_CTIMERWAITFOREVENT?TIMER                    -----    -----      -----    -----      -----    -----      FBACH    00
>> 03H
  +--> ?PR?_CSCALERSETBYTE?RTDACCESS
  +--> ?PR?_CSCALERREAD?RTDACCESS

?PR?COSDDISPFIRSTTIMELOADFONT?OSDPROC003         -----    -----      -----    -----      -----    -----      -----    --
>> ---
  +--> ?PR?COSDFXDISABLEOSD?GMIOSDFUNC
  +--> ?CO?OSDRES003
  +--> ?PR?_COSDCOLORPALETTE?GMIOSDFUNC
  +--> ?PR?_SETOSDMAP?GMIOSDFUNC
  +--> ?PR?OSDPROC003
  +--> ?PR?_COSDLOAD1BITFONT?GMIOSDFUNC
  +--> ?PR?_CSCALERLOADHARDWAREVLCFONT?RTDAC...
  +--> ?PR?LOADLANGUAGEFONT?OSDPROC003

?PR?_COSDCOLORPALETTE?GMIOSDFUNC                 -----    -----      -----    -----      -----    -----      FB81H    00
>> 03H
  +--> ?PR?GMIOSDFUNC
  +--> ?PR?_CSCALERSETBYTE?RTDACCESS
  +--> ?PR?_CSCALERWRITE?RTDACCESS

?PR?_SETOSDMAP?GMIOSDFUNC                        -----    -----      -----    -----      -----    -----      -----    --
>> ---
  +--> ?PR?GMIOSDFUNC
  +--> ?PR?SETOSDRAMADDRESS?GMIOSDFUNC
  +--> ?PR?SETROWCMDS?GMIOSDFUNC

?PR?SETOSDRAMADDRESS?GMIOSDFUNC                  -----    -----      -----    -----      -----    -----      FB88H    00
>> 04H
  +--> ?PR?GMIOSDFUNC
  +--> ?PR?_CSCALERWRITE?RTDACCESS

?PR?SETROWCMDS?GMIOSDFUNC                        -----    -----      0023H    0002H      -----    -----      -----    --
>> ---
  +--> ?PR?GMIOSDFUNC
  +--> ?PR?_DIRECTWOSDRAM?GMIOSDFUNC
  +--> ?PR?_OUTPUTCHAR?GMIOSDFUNC

?PR?_DIRECTWOSDRAM?GMIOSDFUNC                    -----    -----      -----    -----      -----    -----      FB88H    00
>> 06H
  +--> ?PR?GMIOSDFUNC
  +--> ?PR?_CSCALERWRITE?RTDACCESS
  +--> ?PR?_CSCALERSENDADDR?RTDACCESS

?PR?_OUTPUTCHAR?GMIOSDFUNC                       -----    -----      -----    -----      -----    -----      FB96H    00
BL51 BANKED LINKER/LOCATER V6.22                                                      01/17/2018  23:35:27  PAGE 39


>> 01H
  +--> ?PR?_CSCALERSENDADDR?RTDACCESS

?PR?OSDPROC003                                   -----    -----      -----    -----      -----    -----      -----    --
>> ---
  +--> ?CO?OSDTABLE003
  +--> ?CO?OSDRES003

?CO?OSDTABLE003                                  -----    -----      -----    -----      -----    -----      -----    --
>> ---
  +--> ?CO?KEY
  +--> ?PR?MMENUNONEPROC?OSDMENUFUNC003
  +--> ?PR?CENABLE?OSDMENUFUNC003
  +--> ?PR?MMAINMENUPROC?OSDMENUFUNC003
  +--> ?PR?CVGAENABLE?OSDMENUFUNC003
  +--> ?PR?CMITVENABLE?OSDMENUFUNC003
  +--> ?PR?MCOLORPROC?OSDMENUFUNC003
  +--> ?PR?CVIDEONTSCENABLE?OSDMENUFUNC003
  +--> ?PR?CVIDEOENABLE?OSDMENUFUNC003
  +--> ?PR?MBRIGHTNESSPROC?OSDMENUFUNC003
  +--> ?PR?MCONTRASTPROC?OSDMENUFUNC003
  +--> ?PR?MHUEPROC?OSDMENUFUNC003
  +--> ?PR?MSATURATIONPROC?OSDMENUFUNC003
  +--> ?PR?MCOLORTEMPPROC?OSDMENUFUNC003
  +--> ?PR?MCOLORUSERPROC?OSDMENUFUNC003
  +--> ?PR?MRPROC?OSDMENUFUNC003
  +--> ?PR?MGPROC?OSDMENUFUNC003
  +--> ?PR?MBPROC?OSDMENUFUNC003
  +--> ?PR?MADJUSTPROC?OSDMENUFUNC003
  +--> ?PR?MAUTOADJUSTPROC?OSDMENUFUNC003
  +--> ?PR?MADJUSTHPOSITIONPROC?OSDMENUFUNC003
  +--> ?PR?MADJUSTVPOSITIONPROC?OSDMENUFUNC003
  +--> ?PR?MADJUSTPHASEPROC?OSDMENUFUNC003
  +--> ?PR?MADJUSTCLOCKPROC?OSDMENUFUNC003
  +--> ?PR?MOSDPROC?OSDMENUFUNC003
  +--> ?PR?COSDDOUBLEEN?OSDMENUFUNC003
  +--> ?PR?MLANGUAGEPROC?OSDMENUFUNC003
  +--> ?PR?CENGENABLE?OSDMENUFUNC003
  +--> ?PR?CCHI_S_ENABLE?OSDMENUFUNC003
  +--> ?PR?CFRA_ENABLE?OSDMENUFUNC003
  +--> ?PR?CITA_ENABLE?OSDMENUFUNC003
  +--> ?PR?CDEU_ENABLE?OSDMENUFUNC003
  +--> ?PR?CESP_ENABLE?OSDMENUFUNC003
  +--> ?PR?CCHI_T_ENABLE?OSDMENUFUNC003
  +--> ?PR?CJAP_ENABLE?OSDMENUFUNC003
  +--> ?PR?CKOR_ENABLE?OSDMENUFUNC003
  +--> ?PR?CRUS_ENABLE?OSDMENUFUNC003
  +--> ?PR?MHPOSITIONPROC?OSDMENUFUNC003
  +--> ?PR?MVPOSITIONPROC?OSDMENUFUNC003
  +--> ?PR?MTIMERPROC?OSDMENUFUNC003
  +--> ?PR?MDOUBLEPROC?OSDMENUFUNC003
  +--> ?PR?MTRANSPARENTPROC?OSDMENUFUNC003
  +--> ?PR?MTVPROC?OSDMENUFUNC003
  +--> ?PR?CAFCENABLE?OSDMENUFUNC003
  +--> ?PR?MCHANNELPROC?OSDMENUFUNC003
  +--> ?PR?MSYSTEMPROC?OSDMENUFUNC003
  +--> ?PR?CENNTSC_M?OSDMENUFUNC003
BL51 BANKED LINKER/LOCATER V6.22                                                      01/17/2018  23:35:27  PAGE 40


  +--> ?PR?CENNTSC_BG?OSDMENUFUNC003
  +--> ?PR?CENNTSC_DK?OSDMENUFUNC003
  +--> ?PR?CENNTSC_I?OSDMENUFUNC003
  +--> ?PR?CENPAL_M?OSDMENUFUNC003
  +--> ?PR?CENPAL_BG?OSDMENUFUNC003
  +--> ?PR?CENPAL_I?OSDMENUFUNC003
  +--> ?PR?CENPAL_DK?OSDMENUFUNC003
  +--> ?PR?CENPAL_N?OSDMENUFUNC003
  +--> ?PR?CENSECAM_BG?OSDMENUFUNC003
  +--> ?PR?CENSECAM_DK?OSDMENUFUNC003
  +--> ?PR?CENSECAM_L?OSDMENUFUNC003
  +--> ?PR?CENSECAM_LL?OSDMENUFUNC003
  +--> ?PR?MAUTOSEARCHPROC?OSDMENUFUNC003
  +--> ?PR?MMANUALSEARCHPROC?OSDMENUFUNC003
  +--> ?PR?MTUNINGPROC?OSDMENUFUNC003
  +--> ?PR?MSKIPPROC?OSDMENUFUNC003
  +--> ?PR?MAFCPROC?OSDMENUFUNC003
  +--> ?PR?MFUNCTIONPROC?OSDMENUFUNC003
  +--> ?PR?MDISPLAYRATIOENABLE?OSDMENUFUNC003
  +--> ?PR?MRESETPROC?OSDMENUFUNC003
  +--> ?PR?MDISPLAYRATIOPROC?OSDMENUFUNC003
  +--> ?PR?MAUTOPOWERDOWNPROC?OSDMENUFUNC003
  +--> ?PR?MBLUESCREENPROC?OSDMENUFUNC003
  +--> ?PR?MSHARPNESSPROC?OSDMENUFUNC003
  +--> ?PR?MSOUNDPROC?OSDMENUFUNC003
  +--> ?PR?MSOUNDENABLE?OSDMENUFUNC003
  +--> ?PR?MNJW1144ENABLE?OSDMENUFUNC003
  +--> ?PR?MVOLUMEPROC?OSDMENUFUNC003
  +--> ?PR?MBALANCEPROC?OSDMENUFUNC003
  +--> ?PR?MBASSPROC?OSDMENUFUNC003
  +--> ?PR?MTREBLEPROC?OSDMENUFUNC003
  +--> ?PR?MSOURCEPROC?OSDMENUFUNC003
  +--> ?PR?CMIVGAENABLE?OSDMENUFUNC003
  +--> ?PR?CMIDVIENABLE?OSDMENUFUNC003
  +--> ?PR?CMIHDMIENABLE?OSDMENUFUNC003
  +--> ?PR?CMIYPBPRENABLE?OSDMENUFUNC003
  +--> ?PR?CMIAVENABLE?OSDMENUFUNC003
  +--> ?PR?CMISVENABLE?OSDMENUFUNC003
  +--> ?PR?MSCBRIGHTNESSPROC?OSDMENUFUNC003
  +--> ?PR?MSCVOLUMEPROC?OSDMENUFUNC003
  +--> ?PR?MSCINPUTCHNUMPROC?OSDMENUFUNC003

?PR?MMENUNONEPROC?OSDMENUFUNC003                 -----    -----      -----    -----      -----    -----      -----    --
>> ---
  +--> ?PR?CTVENABLE?OSDMENUFUNC003
  +--> ?PR?MMENUNONEENTERSUBMENU?OSDMENUFUNC003
  +--> ?PR?CMODESETFREERUN?MODE
  +--> ?PR?CPOWERLVDSON?POWER
  +--> ?PR?CMODERESETMODE?MODE
  +--> ?PR?CPOWERPANELON?POWER
  +--> ?PR?CPOWERLIGHTPOWERON?POWER
  +--> ?PR?DRAWSOURCEMENU?OSDMENUFUNC003
  +--> ?PR?ENTERSCBRIGHT?OSDMENUFUNC003
  +--> ?PR?_LOADCHIFONT?OSDPROC003
  +--> ?PR?ENTERSCVOLUME?OSDMENUFUNC003
  +--> ?PR?CSETMUTESTATE?OSDPROC003
  +--> ?PR?CDISPLAYCURRENTSOURCEMESSAGE?OSDM...
BL51 BANKED LINKER/LOCATER V6.22                                                      01/17/2018  23:35:27  PAGE 41



?PR?MMENUNONEENTERSUBMENU?OSDMENUFUNC003         -----    -----      -----    -----      -----    -----      -----    --
>> ---
  +--> ?PR?DRAWMAINMENU?OSDMENUFUNC003
  +--> ?PR?_CSHOWMODE?OSDMENUFUNC003
  +--> ?PR?COSDFXENABLEOSD?GMIOSDFUNC

?PR?DRAWMAINMENU?OSDMENUFUNC003                  -----    -----      -----    -----      -----    -----      FB85H    00
>> 02H
  +--> ?PR?INITMAINOSD?OSDMENUFUNC003
  +--> ?PR?_LOADCHIFONT?OSDPROC003
  +--> ?PR?_DRAWMAINITEMTITLE?OSDMENUFUNC003
  +--> ?PR?_DRAWMAINMENUITEM?OSDMENUFUNC003
  +--> ?PR?_DRAWSUBMENU?OSDMENUFUNC003

?PR?INITMAINOSD?OSDMENUFUNC003                   -----    -----      -----    -----      -----    -----      FB87H    00
>> 01H
  +--> ?PR?INITOSDFRAME?OSDPROC003
  +--> ?PR?_SETOSDDOUBLE?GMIOSDFUNC
  +--> ?PR?OSDMENUFUNC003
  +--> ?PR?_OSDLINE?GMIOSDFUNC
  +--> ?PR?_GOTOXY?GMIOSDFUNC
  +--> ?PR?_CSCALERSENDADDR?RTDACCESS
  +--> ?PR?_COSDFXDRAWWINDOW?GMIOSDFUNC
  +--> ?PR?_CSETOSDPOSITION?OSDMENUFUNC003
  +--> ?PR?COSDFXENABLEOSD?GMIOSDFUNC

?PR?INITOSDFRAME?OSDPROC003                      -----    -----      -----    -----      -----    -----      -----    --
>> ---
  +--> ?PR?COSDFXDISABLEOSD?GMIOSDFUNC
  +--> ?CO?OSDRES003
  +--> ?PR?_SETOSDMAP?GMIOSDFUNC
  +--> ?CO?GMIOSDFUNC
  +--> ?PR?_COSDFXCODEWRITE?GMIOSDFUNC
  +--> ?PR?_CSCALERSETBIT?RTDACCESS
  +--> ?PR?_OSDCLEAR?GMIOSDFUNC

?PR?_COSDFXCODEWRITE?GMIOSDFUNC                  -----    -----      -----    -----      -----    -----      FB88H    00
>> 05H
  +--> ?PR?GMIOSDFUNC
  +--> ?PR?_CSCALERWRITE?RTDACCESS
  +--> ?PR?_CSCALERWRITEAMOUNT?RTDACCESS

?PR?_CSCALERWRITEAMOUNT?RTDACCESS                0020H.2  0000H.1    -----    -----      -----    -----      -----    --
>> ---
  +--> ?PR?_CSCALERSENDADDR?RTDACCESS

?PR?_OSDCLEAR?GMIOSDFUNC                         -----    -----      -----    -----      -----    -----      FB89H    00
>> 06H
  +--> ?PR?_OSDLINE?GMIOSDFUNC

?PR?_OSDLINE?GMIOSDFUNC                          -----    -----      -----    -----      -----    -----      FB96H    00
>> 05H
  +--> ?PR?GMIOSDFUNC
  +--> ?PR?_GOTOXY?GMIOSDFUNC
  +--> ?PR?_CSCALERSENDADDR?RTDACCESS

BL51 BANKED LINKER/LOCATER V6.22                                                      01/17/2018  23:35:27  PAGE 42


?PR?_GOTOXY?GMIOSDFUNC                           -----    -----      -----    -----      -----    -----      FBA7H    00
>> 04H
  +--> ?PR?GMIOSDFUNC
  +--> ?PR?_CSCALERWRITE?RTDACCESS

?PR?_SETOSDDOUBLE?GMIOSDFUNC                     -----    -----      -----    -----      -----    -----      -----    --
>> ---
  +--> ?PR?GMIOSDFUNC
  +--> ?PR?_CSCALERWRITE?RTDACCESS

?PR?OSDMENUFUNC003                               -----    -----      -----    -----      -----    -----      -----    --
>> ---
  +--> ?CO?OSDRES003
  +--> ?PR?_STATECOLOR?OSDMENUFUNC003
  +--> ?CO?RTDACCESS

?PR?_COSDFXDRAWWINDOW?GMIOSDFUNC                 -----    -----      -----    -----      -----    -----      FB93H    00
>> 0DH
  +--> ?PR?GMIOSDFUNC
  +--> ?PR?_CSCALERGETBIT?RTDACCESS
  +--> ?PR?_CSCALERWRITE?RTDACCESS
  +--> ?PR?_CTIMERDELAYXMS?TIMER

?PR?_CSETOSDPOSITION?OSDMENUFUNC003              -----    -----      -----    -----      -----    -----      FB88H    00
>> 06H
  +--> ?PR?OSDMENUFUNC003
  +--> ?PR?_OSDPOSITION?GMIOSDFUNC

?PR?_OSDPOSITION?GMIOSDFUNC                      -----    -----      -----    -----      -----    -----      FB8EH    00
>> 07H
  +--> ?PR?GMIOSDFUNC
  +--> ?PR?_CSCALERSETBIT?RTDACCESS
  +--> ?PR?_CSCALERGETBIT?RTDACCESS
  +--> ?PR?_CSCALERWRITE?RTDACCESS
  +--> ?PR?_CTIMERWAITFOREVENT?TIMER

?PR?COSDFXENABLEOSD?GMIOSDFUNC                   -----    -----      -----    -----      -----    -----      -----    --
>> ---
  +--> ?PR?_CTIMERWAITFOREVENT?TIMER
  +--> ?PR?_CSCALERSETBIT?RTDACCESS

?PR?_LOADCHIFONT?OSDPROC003                      -----    -----      -----    -----      -----    -----      FB87H    00
>> 01H
  +--> ?PR?_LOADCHI_S_FONT?OSDPROC003
  +--> ?PR?_LOADCHI_T_FONT?OSDPROC003

?PR?_LOADCHI_S_FONT?OSDPROC003                   -----    -----      -----    -----      -----    -----      FB88H    00
>> 04H
  +--> ?CO?OSDRES003
  +--> ?PR?_COSDLOAD1BITFONTWIDTH12?OSDPROC003

?PR?_COSDLOAD1BITFONTWIDTH12?OSDPROC003          -----    -----      -----    -----      -----    -----      FB8CH    00
>> 07H
  +--> ?PR?_CSCALERLOADHARDWAREVLCFONT?RTDAC...
  +--> ?PR?_SETCHARWDITH?GMIOSDFUNC

?PR?_CSCALERLOADHARDWAREVLCFONT?RTDAC...         -----    -----      -----    -----      -----    -----      FB93H    00
BL51 BANKED LINKER/LOCATER V6.22                                                      01/17/2018  23:35:27  PAGE 43


>> 07H
  +--> ?PR?RTDACCESS
  +--> ?PR?_CSCALERWRITE?RTDACCESS
  +--> ?PR?_CSCALERSENDADDR?RTDACCESS

?PR?_SETCHARWDITH?GMIOSDFUNC                     -----    -----      -----    -----      -----    -----      -----    --
>> ---
  +--> ?PR?GMIOSDFUNC

?PR?_LOADCHI_T_FONT?OSDPROC003                   -----    -----      -----    -----      -----    -----      FB88H    00
>> 04H
  +--> ?CO?OSDRES003
  +--> ?PR?_COSDLOAD1BITFONTWIDTH12?OSDPROC003

?PR?_DRAWMAINITEMTITLE?OSDMENUFUNC003            -----    -----      -----    -----      -----    -----      FB87H    00
>> 05H
  +--> ?CO?OSDRES003
  +--> ?PR?OSDMENUFUNC003
  +--> ?PR?_CSCALERLOADHARDWAREVLCFONT?RTDAC...
  +--> ?PR?_GOTOXY?GMIOSDFUNC
  +--> ?PR?_CSCALERSENDADDR?RTDACCESS

?PR?_DRAWMAINMENUITEM?OSDMENUFUNC003             -----    -----      -----    -----      -----    -----      FB87H    00
>> 06H
  +--> ?PR?_GETSHOWINDEX?OSDPROC003
  +--> ?PR?OSDMENUFUNC003
  +--> ?CO?OSDRES003
  +--> ?PR?_DRAW2BIT3X2ICON?OSDPROC003

?PR?_GETSHOWINDEX?OSDPROC003                     0020H.3  0000H.2    -----    -----      -----    -----      FB90H    00
>> 04H

?PR?_DRAW2BIT3X2ICON?OSDPROC003                  -----    -----      -----    -----      -----    -----      FB8DH    00
>> 05H
  +--> ?PR?_GOTOXY?GMIOSDFUNC
  +--> ?PR?_CSCALERWRITE?RTDACCESS

?PR?_DRAWSUBMENU?OSDMENUFUNC003                  -----    -----      -----    -----      -----    -----      -----    --
>> ---
  +--> ?PR?DRAWCOLORPAGE?OSDMENUFUNC003
  +--> ?PR?DRAWADJUSTPAGE?OSDMENUFUNC003
  +--> ?PR?DRAWOSDPAGE?OSDMENUFUNC003
  +--> ?PR?DRAWTVPAGE?OSDMENUFUNC003
  +--> ?PR?DRAWFUNCPAGE?OSDMENUFUNC003
  +--> ?PR?DRAWSOUNDPAGE?OSDMENUFUNC003

?PR?DRAWCOLORPAGE?OSDMENUFUNC003                 -----    -----      -----    -----      -----    -----      FB87H    00
>> 02H
  +--> ?PR?_DRAWCOLORPAGEMENUITEM?OSDMENUFUN...
  +--> ?PR?_DRAWPAGENULLLINE?OSDMENUFUNC003

?PR?_DRAWCOLORPAGEMENUITEM?OSDMENUFUN...         -----    -----      -----    -----      -----    -----      FB89H    00
>> 02H
  +--> ?PR?OSDMENUFUNC003
  +--> ?PR?_DRAWBRIGHT?OSDMENUFUNC003
  +--> ?PR?_DRAWCONTRAST?OSDMENUFUNC003
  +--> ?PR?_DRAWHUE?OSDMENUFUNC003
BL51 BANKED LINKER/LOCATER V6.22                                                      01/17/2018  23:35:27  PAGE 44


  +--> ?PR?_DRAWSATURATION?OSDMENUFUNC003
  +--> ?PR?_DRAWCOLORTEMP?OSDMENUFUNC003

?PR?_DRAWBRIGHT?OSDMENUFUNC003                   -----    -----      -----    -----      -----    -----      FB8BH    00
>> 04H
  +--> ?PR?OSDMENUFUNC003
  +--> ?PR?_GETSHOWINDEX?OSDPROC003
  +--> ?PR?_STATECOLOR?OSDMENUFUNC003
  +--> ?CO?OSDRES003
  +--> ?PR?_SUBMENUTEXTOUT?OSDMENUFUNC003
  +--> ?PR?_OSDSLIDER?OSDMENUFUNC003

?PR?_SUBMENUTEXTOUT?OSDMENUFUNC003               -----    -----      -----    -----      -----    -----      FB90H    00
>> 06H
  +--> ?PR?OSDMENUFUNC003
  +--> ?PR?_OSDLINE?GMIOSDFUNC
  +--> ?PR?_TEXTOUTCALCWIDTH?OSDPROC003

?PR?_TEXTOUTCALCWIDTH?OSDPROC003                 -----    -----      -----    -----      -----    -----      FB96H    00
>> 09H
  +--> ?PR?_CTEXTOUTBASE?GMIOSDFUNC
  +--> ?PR?_STRLEN?GMIOSDFUNC
  +--> ?PR?_CSCALERSENDADDR?RTDACCESS
  +--> ?PR?_GOTOXY?GMIOSDFUNC
  +--> ?PR?_CSCALERWRITE?RTDACCESS

?PR?_CTEXTOUTBASE?GMIOSDFUNC                     -----    -----      -----    -----      -----    -----      FB9FH    00
>> 08H
  +--> ?PR?GMIOSDFUNC
  +--> ?PR?_GOTOXY?GMIOSDFUNC
  +--> ?PR?_TEXTOUT?GMIOSDFUNC
  +--> ?PR?_STRLEN?GMIOSDFUNC
  +--> ?PR?_CSCALERSENDADDR?RTDACCESS
  +--> ?PR?_GETCHARWDITH?GMIOSDFUNC

?PR?_TEXTOUT?GMIOSDFUNC                          -----    -----      -----    -----      -----    -----      FBA7H    00
>> 03H
  +--> ?PR?GMIOSDFUNC
  +--> ?PR?_CSCALERSENDADDR?RTDACCESS

?PR?_GETCHARWDITH?GMIOSDFUNC                     -----    -----      -----    -----      -----    -----      -----    --
>> ---
  +--> ?PR?GMIOSDFUNC

?PR?_OSDSLIDER?OSDMENUFUNC003                    -----    -----      0023H    000AH      -----    -----      -----    --
>> ---
  +--> ?PR?_OSDLINE?GMIOSDFUNC
  +--> ?PR?_GOTOXY?GMIOSDFUNC
  +--> ?PR?_OUTPUTCHAR?GMIOSDFUNC
  +--> ?PR?_CSHOWNUMBER?GMIOSDFUNC

?PR?_CSHOWNUMBER?GMIOSDFUNC                      -----    -----      -----    -----      -----    -----      FB8FH    00
>> 06H
  +--> ?PR?GMIOSDFUNC
  +--> ?PR?_CTEXTOUTBASE?GMIOSDFUNC
  +--> ?PR?_CSETBLANKWIDTH?GMIOSDFUNC

BL51 BANKED LINKER/LOCATER V6.22                                                      01/17/2018  23:35:27  PAGE 45


?PR?_CSETBLANKWIDTH?GMIOSDFUNC                   -----    -----      -----    -----      -----    -----      FB9CH    00
>> 01H
  +--> ?PR?_GOTOXY?GMIOSDFUNC
  +--> ?PR?_CSCALERWRITE?RTDACCESS

?PR?_DRAWCONTRAST?OSDMENUFUNC003                 -----    -----      -----    -----      -----    -----      FB8BH    00
>> 04H
  +--> ?PR?OSDMENUFUNC003
  +--> ?PR?_GETSHOWINDEX?OSDPROC003
  +--> ?PR?_STATECOLOR?OSDMENUFUNC003
  +--> ?CO?OSDRES003
  +--> ?PR?_SUBMENUTEXTOUT?OSDMENUFUNC003
  +--> ?PR?_OSDSLIDER?OSDMENUFUNC003

?PR?_DRAWHUE?OSDMENUFUNC003                      -----    -----      -----    -----      -----    -----      FB8BH    00
>> 04H
  +--> ?PR?OSDMENUFUNC003
  +--> ?PR?_GETSHOWINDEX?OSDPROC003
  +--> ?PR?_STATECOLOR?OSDMENUFUNC003
  +--> ?CO?OSDRES003
  +--> ?PR?_SUBMENUTEXTOUT?OSDMENUFUNC003
  +--> ?PR?_OSDSLIDER?OSDMENUFUNC003

?PR?_DRAWSATURATION?OSDMENUFUNC003               -----    -----      -----    -----      -----    -----      FB8BH    00
>> 04H
  +--> ?PR?OSDMENUFUNC003
  +--> ?PR?_GETSHOWINDEX?OSDPROC003
  +--> ?PR?_STATECOLOR?OSDMENUFUNC003
  +--> ?CO?OSDRES003
  +--> ?PR?_SUBMENUTEXTOUT?OSDMENUFUNC003
  +--> ?PR?_OSDSLIDER?OSDMENUFUNC003

?PR?_DRAWCOLORTEMP?OSDMENUFUNC003                -----    -----      -----    -----      -----    -----      FB8BH    00
>> 05H
  +--> ?PR?OSDMENUFUNC003
  +--> ?PR?_GETSHOWINDEX?OSDPROC003
  +--> ?CO?OSDRES003
  +--> ?PR?_SUBMENUTEXTOUT?OSDMENUFUNC003
  +--> ?PR?_CTEXTOUTEX?GMIOSDFUNC

?PR?_CTEXTOUTEX?GMIOSDFUNC                       -----    -----      -----    -----      -----    -----      FB96H    00
>> 06H
  +--> ?PR?GMIOSDFUNC
  +--> ?PR?_STRLEN?GMIOSDFUNC
  +--> ?PR?_CTEXTOUTBASE?GMIOSDFUNC
  +--> ?PR?_CSETBLANKWIDTH?GMIOSDFUNC

?PR?_DRAWPAGENULLLINE?OSDMENUFUNC003             -----    -----      -----    -----      -----    -----      FB89H    00
>> 01H
  +--> ?PR?_GETSHOWCOUNT?OSDPROC003
  +--> ?CO?OSDRES003
  +--> ?PR?OSDMENUFUNC003
  +--> ?PR?_TEXTOUTCALCWIDTH?OSDPROC003

?PR?_GETSHOWCOUNT?OSDPROC003                     0020H.3  0000H.2    -----    -----      -----    -----      FB8AH    00
>> 03H

BL51 BANKED LINKER/LOCATER V6.22                                                      01/17/2018  23:35:27  PAGE 46


?PR?DRAWADJUSTPAGE?OSDMENUFUNC003                -----    -----      -----    -----      -----    -----      FB87H    00
>> 02H
  +--> ?PR?_DRAWADJUSTPAGEMENUITEM?OSDMENUFU...
  +--> ?PR?_DRAWPAGENULLLINE?OSDMENUFUNC003

?PR?_DRAWADJUSTPAGEMENUITEM?OSDMENUFU...         -----    -----      -----    -----      -----    -----      FB89H    00
>> 02H
  +--> ?PR?OSDMENUFUNC003
  +--> ?PR?_DRAWAUTOADJUST?OSDMENUFUNC003
  +--> ?PR?_DRAWHPOSITION?OSDMENUFUNC003
  +--> ?PR?_DRAWVPOSITION?OSDMENUFUNC003
  +--> ?PR?_DRAWPHASE?OSDMENUFUNC003
  +--> ?PR?_DRAWCLOCK?OSDMENUFUNC003

?PR?_DRAWAUTOADJUST?OSDMENUFUNC003               -----    -----      -----    -----      -----    -----      FB8BH    00
>> 01H
  +--> ?PR?OSDMENUFUNC003
  +--> ?PR?_GETSHOWINDEX?OSDPROC003
  +--> ?CO?OSDRES003
  +--> ?PR?_SUBMENUTEXTOUT?OSDMENUFUNC003

?PR?_DRAWHPOSITION?OSDMENUFUNC003                -----    -----      -----    -----      -----    -----      FB8BH    00
>> 04H
  +--> ?PR?OSDMENUFUNC003
  +--> ?PR?_GETSHOWINDEX?OSDPROC003
  +--> ?PR?_STATECOLOR?OSDMENUFUNC003
  +--> ?CO?OSDRES003
  +--> ?PR?_SUBMENUTEXTOUT?OSDMENUFUNC003
  +--> ?PR?COSDCTRLGETHPOSITION?GMIOSDFUNC
  +--> ?PR?_OSDSLIDER?OSDMENUFUNC003

?PR?COSDCTRLGETHPOSITION?GMIOSDFUNC              -----    -----      -----    -----      -----    -----      FB8FH    00
>> 02H
  +--> ?PR?GMIOSDFUNC
  +--> ?PR?_ABS?ABS

?PR?_DRAWVPOSITION?OSDMENUFUNC003                -----    -----      -----    -----      -----    -----      FB8BH    00
>> 04H
  +--> ?PR?OSDMENUFUNC003
  +--> ?PR?_GETSHOWINDEX?OSDPROC003
  +--> ?PR?_STATECOLOR?OSDMENUFUNC003
  +--> ?CO?OSDRES003
  +--> ?PR?_SUBMENUTEXTOUT?OSDMENUFUNC003
  +--> ?PR?COSDCTRLGETVPOSITION?GMIOSDFUNC
  +--> ?PR?_OSDSLIDER?OSDMENUFUNC003

?PR?COSDCTRLGETVPOSITION?GMIOSDFUNC              -----    -----      -----    -----      -----    -----      FB8FH    00
>> 02H
  +--> ?PR?GMIOSDFUNC
  +--> ?PR?_ABS?ABS

?PR?_DRAWPHASE?OSDMENUFUNC003                    -----    -----      -----    -----      -----    -----      FB8BH    00
>> 04H
  +--> ?PR?OSDMENUFUNC003
  +--> ?PR?_GETSHOWINDEX?OSDPROC003
  +--> ?PR?_STATECOLOR?OSDMENUFUNC003
  +--> ?CO?OSDRES003
BL51 BANKED LINKER/LOCATER V6.22                                                      01/17/2018  23:35:27  PAGE 47


  +--> ?PR?_SUBMENUTEXTOUT?OSDMENUFUNC003
  +--> ?PR?_OSDSLIDER?OSDMENUFUNC003

?PR?_DRAWCLOCK?OSDMENUFUNC003                    -----    -----      -----    -----      -----    -----      FB8BH    00
>> 04H
  +--> ?PR?OSDMENUFUNC003
  +--> ?PR?_GETSHOWINDEX?OSDPROC003
  +--> ?PR?_STATECOLOR?OSDMENUFUNC003
  +--> ?CO?OSDRES003
  +--> ?PR?_SUBMENUTEXTOUT?OSDMENUFUNC003
  +--> ?PR?COSDCTRLGETCLOCK?GMIOSDFUNC
  +--> ?PR?_OSDSLIDER?OSDMENUFUNC003

?PR?COSDCTRLGETCLOCK?GMIOSDFUNC                  -----    -----      -----    -----      -----    -----      FB8FH    00
>> 02H
  +--> ?PR?_COSDFXGETADCCLOCKRANGE?GMIOSDFUNC
  +--> ?PR?GMIOSDFUNC

?PR?_COSDFXGETADCCLOCKRANGE?GMIOSDFUNC           -----    -----      -----    -----      -----    -----      FB91H    00
>> 03H
  +--> ?PR?_CADJUSTCHECKADCCLOCKRANGE?ADJUST

?PR?_CADJUSTCHECKADCCLOCKRANGE?ADJUST            -----    -----      -----    -----      -----    -----      FB94H    00
>> 05H
  +--> ?PR?ADJUST

?PR?DRAWOSDPAGE?OSDMENUFUNC003                   -----    -----      -----    -----      -----    -----      FB87H    00
>> 02H
  +--> ?PR?_DRAWOSDPAGEMENUITEM?OSDMENUFUNC003
  +--> ?PR?_DRAWPAGENULLLINE?OSDMENUFUNC003

?PR?_DRAWOSDPAGEMENUITEM?OSDMENUFUNC003          -----    -----      -----    -----      -----    -----      FB89H    00
>> 02H
  +--> ?PR?OSDMENUFUNC003
  +--> ?PR?_DRAWLANGUAGE?OSDMENUFUNC003
  +--> ?PR?_DRAWOSDHPOSITION?OSDMENUFUNC003
  +--> ?PR?_DRAWOSDVPOSITION?OSDMENUFUNC003
  +--> ?PR?_DRAWOSDTIMER?OSDMENUFUNC003
  +--> ?PR?_DRAWDOUBLE?OSDMENUFUNC003
  +--> ?PR?_DRAWTRANSPARENT?OSDMENUFUNC003

?PR?_DRAWLANGUAGE?OSDMENUFUNC003                 -----    -----      -----    -----      -----    -----      FB8BH    00
>> 02H
  +--> ?PR?OSDMENUFUNC003
  +--> ?PR?_GETSHOWINDEX?OSDPROC003
  +--> ?CO?OSDRES003
  +--> ?PR?_SUBMENUTEXTOUT?OSDMENUFUNC003
  +--> ?PR?_CTEXTOUTEX?GMIOSDFUNC

?PR?_DRAWOSDHPOSITION?OSDMENUFUNC003             -----    -----      -----    -----      -----    -----      FB8BH    00
>> 04H
  +--> ?PR?OSDMENUFUNC003
  +--> ?PR?_GETSHOWINDEX?OSDPROC003
  +--> ?PR?_STATECOLOR?OSDMENUFUNC003
  +--> ?CO?OSDRES003
  +--> ?PR?_SUBMENUTEXTOUT?OSDMENUFUNC003
  +--> ?PR?_OSDSLIDER?OSDMENUFUNC003
BL51 BANKED LINKER/LOCATER V6.22                                                      01/17/2018  23:35:27  PAGE 48



?PR?_DRAWOSDVPOSITION?OSDMENUFUNC003             -----    -----      -----    -----      -----    -----      FB8BH    00
>> 04H
  +--> ?PR?OSDMENUFUNC003
  +--> ?PR?_GETSHOWINDEX?OSDPROC003
  +--> ?PR?_STATECOLOR?OSDMENUFUNC003
  +--> ?CO?OSDRES003
  +--> ?PR?_SUBMENUTEXTOUT?OSDMENUFUNC003
  +--> ?PR?_OSDSLIDER?OSDMENUFUNC003

?PR?_DRAWOSDTIMER?OSDMENUFUNC003                 -----    -----      -----    -----      -----    -----      FB8BH    00
>> 04H
  +--> ?PR?OSDMENUFUNC003
  +--> ?PR?_GETSHOWINDEX?OSDPROC003
  +--> ?PR?_STATECOLOR?OSDMENUFUNC003
  +--> ?CO?OSDRES003
  +--> ?PR?_SUBMENUTEXTOUT?OSDMENUFUNC003
  +--> ?PR?_OSDLINE?GMIOSDFUNC
  +--> ?PR?_CTEXTOUTEX?GMIOSDFUNC
  +--> ?PR?_CSHOWNUMBER?GMIOSDFUNC

?PR?_DRAWDOUBLE?OSDMENUFUNC003                   -----    -----      -----    -----      -----    -----      FB8BH    00
>> 05H
  +--> ?PR?OSDMENUFUNC003
  +--> ?PR?_GETSHOWINDEX?OSDPROC003
  +--> ?CO?OSDRES003
  +--> ?PR?_SUBMENUTEXTOUT?OSDMENUFUNC003
  +--> ?PR?_CTEXTOUTEX?GMIOSDFUNC

?PR?_DRAWTRANSPARENT?OSDMENUFUNC003              -----    -----      -----    -----      -----    -----      FB8BH    00
>> 04H
  +--> ?PR?OSDMENUFUNC003
  +--> ?PR?_GETSHOWINDEX?OSDPROC003
  +--> ?PR?_STATECOLOR?OSDMENUFUNC003
  +--> ?CO?OSDRES003
  +--> ?PR?_SUBMENUTEXTOUT?OSDMENUFUNC003
  +--> ?PR?_OSDLINE?GMIOSDFUNC
  +--> ?PR?_CTEXTOUTEX?GMIOSDFUNC
  +--> ?PR?_CSHOWNUMBER?GMIOSDFUNC

?PR?DRAWTVPAGE?OSDMENUFUNC003                    -----    -----      -----    -----      -----    -----      FB87H    00
>> 02H
  +--> ?PR?_DRAWTVPAGEMENUITEM?OSDMENUFUNC003
  +--> ?PR?_DRAWPAGENULLLINE?OSDMENUFUNC003

?PR?_DRAWTVPAGEMENUITEM?OSDMENUFUNC003           -----    -----      -----    -----      -----    -----      FB89H    00
>> 02H
  +--> ?PR?OSDMENUFUNC003
  +--> ?PR?_DRAWCHANNEL?OSDMENUFUNC003
  +--> ?PR?_DRAWSYSTEM?OSDMENUFUNC003
  +--> ?PR?_DRAWAUTOSEARCH?OSDMENUFUNC003
  +--> ?PR?_DRAWMANUALSEARCH?OSDMENUFUNC003
  +--> ?PR?_DRAWTUNING?OSDMENUFUNC003
  +--> ?PR?_DRAWSKIP?OSDMENUFUNC003
  +--> ?PR?_DRAWSWAP?OSDMENUFUNC003
  +--> ?PR?_DRAWAFC?OSDMENUFUNC003

BL51 BANKED LINKER/LOCATER V6.22                                                      01/17/2018  23:35:27  PAGE 49


?PR?_DRAWCHANNEL?OSDMENUFUNC003                  -----    -----      -----    -----      -----    -----      FB8BH    00
>> 02H
  +--> ?PR?OSDMENUFUNC003
  +--> ?PR?_GETSHOWINDEX?OSDPROC003
  +--> ?CO?OSDRES003
  +--> ?PR?_SUBMENUTEXTOUT?OSDMENUFUNC003
  +--> ?PR?_CSHOWNUMBER?GMIOSDFUNC

?PR?_DRAWAUTOSEARCH?OSDMENUFUNC003               -----    -----      -----    -----      -----    -----      FB8BH    00
>> 01H
  +--> ?PR?OSDMENUFUNC003
  +--> ?PR?_GETSHOWINDEX?OSDPROC003
  +--> ?CO?OSDRES003
  +--> ?PR?_SUBMENUTEXTOUT?OSDMENUFUNC003

?PR?_DRAWMANUALSEARCH?OSDMENUFUNC003             -----    -----      -----    -----      -----    -----      FB8BH    00
>> 01H
  +--> ?PR?OSDMENUFUNC003
  +--> ?PR?_GETSHOWINDEX?OSDPROC003
  +--> ?CO?OSDRES003
  +--> ?PR?_SUBMENUTEXTOUT?OSDMENUFUNC003

?PR?DRAWFUNCPAGE?OSDMENUFUNC003                  -----    -----      -----    -----      -----    -----      FB87H    00
>> 02H
  +--> ?PR?_DRAWFUNCPAGEMENUITEM?OSDMENUFUNC003
  +--> ?PR?_DRAWPAGENULLLINE?OSDMENUFUNC003

?PR?_DRAWFUNCPAGEMENUITEM?OSDMENUFUNC003         -----    -----      -----    -----      -----    -----      FB89H    00
>> 02H
  +--> ?PR?OSDMENUFUNC003
  +--> ?PR?_DRAWRESET?OSDMENUFUNC003
  +--> ?PR?_DRAWDISPLAYRATIO?OSDMENUFUNC003
  +--> ?PR?_DRAWAUTOPOWERDOWN?OSDMENUFUNC003
  +--> ?PR?_DRAWBLUESCREEN?OSDMENUFUNC003
  +--> ?PR?_DRAWSHARPNESS?OSDMENUFUNC003

?PR?_DRAWRESET?OSDMENUFUNC003                    -----    -----      -----    -----      -----    -----      FB8BH    00
>> 01H
  +--> ?PR?OSDMENUFUNC003
  +--> ?PR?_GETSHOWINDEX?OSDPROC003
  +--> ?CO?OSDRES003
  +--> ?PR?_SUBMENUTEXTOUT?OSDMENUFUNC003

?PR?_DRAWDISPLAYRATIO?OSDMENUFUNC003             -----    -----      -----    -----      -----    -----      FB8BH    00
>> 05H
  +--> ?PR?OSDMENUFUNC003
  +--> ?PR?_GETSHOWINDEX?OSDPROC003
  +--> ?CO?OSDRES003
  +--> ?PR?_SUBMENUTEXTOUT?OSDMENUFUNC003
  +--> ?PR?_CTEXTOUTEX?GMIOSDFUNC

?PR?_DRAWAUTOPOWERDOWN?OSDMENUFUNC003            -----    -----      -----    -----      -----    -----      FB8BH    00
>> 05H
  +--> ?PR?OSDMENUFUNC003
  +--> ?PR?_GETSHOWINDEX?OSDPROC003
  +--> ?CO?OSDRES003
  +--> ?PR?_SUBMENUTEXTOUT?OSDMENUFUNC003
BL51 BANKED LINKER/LOCATER V6.22                                                      01/17/2018  23:35:27  PAGE 50


  +--> ?PR?_CTEXTOUTEX?GMIOSDFUNC

?PR?_DRAWBLUESCREEN?OSDMENUFUNC003               -----    -----      -----    -----      -----    -----      FB8BH    00
>> 05H
  +--> ?PR?OSDMENUFUNC003
  +--> ?PR?_GETSHOWINDEX?OSDPROC003
  +--> ?CO?OSDRES003
  +--> ?PR?_SUBMENUTEXTOUT?OSDMENUFUNC003
  +--> ?PR?_CTEXTOUTEX?GMIOSDFUNC

?PR?_DRAWSHARPNESS?OSDMENUFUNC003                -----    -----      -----    -----      -----    -----      FB8BH    00
>> 02H
  +--> ?PR?OSDMENUFUNC003
  +--> ?PR?_GETSHOWINDEX?OSDPROC003
  +--> ?CO?OSDRES003
  +--> ?PR?_SUBMENUTEXTOUT?OSDMENUFUNC003
  +--> ?PR?_CSHOWNUMBER?GMIOSDFUNC

?PR?DRAWSOUNDPAGE?OSDMENUFUNC003                 -----    -----      -----    -----      -----    -----      FB87H    00
>> 02H
  +--> ?PR?_DRAWSOUNDPAGEMENUITEM?OSDMENUFUN...
  +--> ?PR?_DRAWPAGENULLLINE?OSDMENUFUNC003

?PR?_DRAWSOUNDPAGEMENUITEM?OSDMENUFUN...         -----    -----      -----    -----      -----    -----      FB89H    00
>> 02H
  +--> ?PR?OSDMENUFUNC003
  +--> ?PR?_DRAWVOLUME?OSDMENUFUNC003
  +--> ?PR?_DRAWBALANCE?OSDMENUFUNC003
  +--> ?PR?_DRAWBASS?OSDMENUFUNC003
  +--> ?PR?_DRAWTREBLE?OSDMENUFUNC003
  +--> ?PR?_DRAWSRS?OSDMENUFUNC003
  +--> ?PR?_DRAWBBE?OSDMENUFUNC003

?PR?_DRAWVOLUME?OSDMENUFUNC003                   -----    -----      -----    -----      -----    -----      FB8BH    00
>> 04H
  +--> ?PR?OSDMENUFUNC003
  +--> ?PR?_GETSHOWINDEX?OSDPROC003
  +--> ?PR?_STATECOLOR?OSDMENUFUNC003
  +--> ?CO?OSDRES003
  +--> ?PR?_SUBMENUTEXTOUT?OSDMENUFUNC003
  +--> ?PR?_OSDSLIDER?OSDMENUFUNC003

?PR?_DRAWBALANCE?OSDMENUFUNC003                  -----    -----      -----    -----      -----    -----      FB8BH    00
>> 04H
  +--> ?PR?OSDMENUFUNC003
  +--> ?PR?_GETSHOWINDEX?OSDPROC003
  +--> ?PR?_STATECOLOR?OSDMENUFUNC003
  +--> ?CO?OSDRES003
  +--> ?PR?_SUBMENUTEXTOUT?OSDMENUFUNC003
  +--> ?PR?_OSDSLIDER?OSDMENUFUNC003

?PR?_DRAWBASS?OSDMENUFUNC003                     -----    -----      -----    -----      -----    -----      FB8BH    00
>> 04H
  +--> ?PR?OSDMENUFUNC003
  +--> ?PR?_GETSHOWINDEX?OSDPROC003
  +--> ?PR?_STATECOLOR?OSDMENUFUNC003
  +--> ?CO?OSDRES003
BL51 BANKED LINKER/LOCATER V6.22                                                      01/17/2018  23:35:27  PAGE 51


  +--> ?PR?_SUBMENUTEXTOUT?OSDMENUFUNC003
  +--> ?PR?_OSDSLIDER?OSDMENUFUNC003

?PR?_DRAWTREBLE?OSDMENUFUNC003                   -----    -----      -----    -----      -----    -----      FB8BH    00
>> 04H
  +--> ?PR?OSDMENUFUNC003
  +--> ?PR?_GETSHOWINDEX?OSDPROC003
  +--> ?PR?_STATECOLOR?OSDMENUFUNC003
  +--> ?CO?OSDRES003
  +--> ?PR?_SUBMENUTEXTOUT?OSDMENUFUNC003
  +--> ?PR?_OSDSLIDER?OSDMENUFUNC003

?PR?_DRAWSRS?OSDMENUFUNC003                      -----    -----      -----    -----      -----    -----      FB8BH    00
>> 02H
  +--> ?PR?OSDMENUFUNC003
  +--> ?PR?_GETSHOWINDEX?OSDPROC003
  +--> ?PR?_STATECOLOR?OSDMENUFUNC003
  +--> ?CO?OSDRES003
  +--> ?PR?_SUBMENUTEXTOUT?OSDMENUFUNC003

?PR?_DRAWBBE?OSDMENUFUNC003                      -----    -----      -----    -----      -----    -----      FB8BH    00
>> 02H
  +--> ?PR?OSDMENUFUNC003
  +--> ?PR?_GETSHOWINDEX?OSDPROC003
  +--> ?PR?_STATECOLOR?OSDMENUFUNC003
  +--> ?CO?OSDRES003
  +--> ?PR?_SUBMENUTEXTOUT?OSDMENUFUNC003

?PR?_CSHOWMODE?OSDMENUFUNC003                    -----    -----      -----    -----      -----    -----      FB88H    00
>> 02H
  +--> ?PR?_CSHOWHDMIMODE?OSDMENUFUNC003
  +--> ?PR?_CSHOWVGAMODE?OSDMENUFUNC003
  +--> ?CO?OSDRES003
  +--> ?PR?_STRLEN?GMIOSDFUNC
  +--> ?PR?OSDMENUFUNC003
  +--> ?PR?_CTEXTOUTEX?GMIOSDFUNC

?PR?_CSHOWHDMIMODE?OSDMENUFUNC003                0020H.2  0000H.1    -----    -----      -----    -----      FB8AH    00
>> 08H
  +--> ?PR?OSDMENUFUNC003
  +--> ?CO?OSDMENUFUNC003
  +--> ?PR?_STRLEN?GMIOSDFUNC
  +--> ?PR?_CTEXTOUTEX?GMIOSDFUNC
  +--> ?PR?_CSCALERPAGESELECT?RTDACCESS
  +--> ?PR?_CSCALERGETDATAPORTBYTE?SCALER
  +--> ?PR?_CSCALERREAD?RTDACCESS
  +--> ?PR?_GOTOXY?GMIOSDFUNC
  +--> ?PR?_CSHOWNUMBER1?GMIOSDFUNC
  +--> ?PR?_OUTPUTCHAR?GMIOSDFUNC

?PR?_CSCALERGETDATAPORTBYTE?SCALER               0020H.3  0000H.1    -----    -----      -----    -----      FB96H    00
>> 06H
  +--> ?PR?_CSCALERSETBYTE?RTDACCESS
  +--> ?PR?_CSCALERREAD?RTDACCESS

?PR?_CSHOWNUMBER1?GMIOSDFUNC                     -----    -----      -----    -----      -----    -----      FB92H    00
>> 06H
BL51 BANKED LINKER/LOCATER V6.22                                                      01/17/2018  23:35:27  PAGE 52


  +--> ?PR?GMIOSDFUNC
  +--> ?PR?_CSCALERSENDADDR?RTDACCESS

?PR?_CSHOWVGAMODE?OSDMENUFUNC003                 -----    -----      -----    -----      -----    -----      -----    --
>> ---
  +--> ?PR?_GOTOXY?GMIOSDFUNC
  +--> ?PR?_OUTPUTCHAR?GMIOSDFUNC
  +--> ?PR?OSDMENUFUNC003
  +--> ?PR?_CSHOWNUMBER1?GMIOSDFUNC

?PR?DRAWSOURCEMENU?OSDMENUFUNC003                -----    -----      -----    -----      -----    -----      FB85H    00
>> 03H
  +--> ?PR?_GETSHOWCOUNT?OSDPROC003
  +--> ?PR?CMODERESETMODE?MODE
  +--> ?PR?CPOWERPANELON?POWER
  +--> ?PR?CPOWERLIGHTPOWERON?POWER
  +--> ?PR?INITOSDFRAME?OSDPROC003
  +--> ?PR?OSDMENUFUNC003
  +--> ?PR?_OSDCLEAR?GMIOSDFUNC
  +--> ?PR?_SETOSDDOUBLE?GMIOSDFUNC
  +--> ?PR?_OSDLINE?GMIOSDFUNC
  +--> ?PR?_DRAWSOURCEMENUITEM?OSDMENUFUNC003
  +--> ?PR?_COSDFXDRAWWINDOW?GMIOSDFUNC
  +--> ?PR?_OSDPOSITION?GMIOSDFUNC
  +--> ?PR?COSDFXENABLEOSD?GMIOSDFUNC

?PR?_DRAWSOURCEMENUITEM?OSDMENUFUNC003           -----    -----      -----    -----      -----    -----      FB88H    00
>> 05H
  +--> ?PR?_GETSHOWINDEX?OSDPROC003
  +--> ?PR?OSDMENUFUNC003
  +--> ?PR?_OSDLINE?GMIOSDFUNC
  +--> ?CO?OSDRES003
  +--> ?PR?_CTEXTOUTEX?GMIOSDFUNC

?PR?ENTERSCBRIGHT?OSDMENUFUNC003                 -----    -----      -----    -----      -----    -----      -----    --
>> ---
  +--> ?PR?DRAWSHORTCUTEMENU?OSDMENUFUNC003
  +--> ?PR?OSDMENUFUNC003
  +--> ?CO?OSDRES003
  +--> ?PR?_CCENTERTEXTOUT?GMIOSDFUNC
  +--> ?PR?_OSDSLIDER?OSDMENUFUNC003
  +--> ?PR?COSDFXENABLEOSD?GMIOSDFUNC

?PR?DRAWSHORTCUTEMENU?OSDMENUFUNC003             -----    -----      -----    -----      -----    -----      -----    --
>> ---
  +--> ?PR?INITOSDFRAME?OSDPROC003
  +--> ?PR?_SETOSDDOUBLE?GMIOSDFUNC
  +--> ?PR?OSDMENUFUNC003
  +--> ?PR?_OSDLINE?GMIOSDFUNC
  +--> ?PR?_COSDFXDRAWWINDOW?GMIOSDFUNC
  +--> ?PR?_CSETOSDPOSITION?OSDMENUFUNC003

?PR?_CCENTERTEXTOUT?GMIOSDFUNC                   -----    -----      -----    -----      -----    -----      FB85H    00
>> 07H
  +--> ?PR?GMIOSDFUNC
  +--> ?PR?_CCALCTEXTPIXCELLEN?GMIOSDFUNC
  +--> ?PR?_CTEXTOUTEX?GMIOSDFUNC
BL51 BANKED LINKER/LOCATER V6.22                                                      01/17/2018  23:35:27  PAGE 53



?PR?_CCALCTEXTPIXCELLEN?GMIOSDFUNC               -----    -----      -----    -----      -----    -----      FB8CH    00
>> 05H
  +--> ?PR?GMIOSDFUNC
  +--> ?PR?_GETCHARWDITH?GMIOSDFUNC

?PR?ENTERSCVOLUME?OSDMENUFUNC003                 -----    -----      -----    -----      -----    -----      -----    --
>> ---
  +--> ?PR?DRAWSHORTCUTEMENU?OSDMENUFUNC003
  +--> ?PR?OSDMENUFUNC003
  +--> ?CO?OSDRES003
  +--> ?PR?_CCENTERTEXTOUT?GMIOSDFUNC
  +--> ?PR?_OSDSLIDER?OSDMENUFUNC003
  +--> ?PR?COSDFXENABLEOSD?GMIOSDFUNC
  +--> ?PR?CSETVOLUME?FUNC

?PR?CSETVOLUME?FUNC                              -----    -----      -----    -----      -----    -----      -----    --
>> ---
  +--> ?PR?CMUTEON?FUNC
  +--> ?PR?CMUTEOFF?FUNC
  +--> ?PR?_CSETPWM?ADJUST

?PR?CSETMUTESTATE?OSDPROC003                     -----    -----      -----    -----      -----    -----      -----    --
>> ---
  +--> ?PR?CDRAWMUTESTATE?OSDPROC003
  +--> ?PR?CSETVOLUME?FUNC

?PR?CDRAWMUTESTATE?OSDPROC003                    -----    -----      -----    -----      -----    -----      -----    --
>> ---
  +--> ?PR?COSDFXDISABLEOSD?GMIOSDFUNC
  +--> ?PR?_SETOSDDOUBLE?GMIOSDFUNC
  +--> ?CO?OSDRES003
  +--> ?PR?_SETOSDMAP?GMIOSDFUNC
  +--> ?PR?_OSDCLEAR?GMIOSDFUNC
  +--> ?CO?GMIOSDFUNC
  +--> ?PR?_COSDFXCODEWRITE?GMIOSDFUNC
  +--> ?PR?_OSDPOSITION?GMIOSDFUNC
  +--> ?PR?_COSDLOAD1BITFONT?GMIOSDFUNC
  +--> ?PR?_GOTOXY?GMIOSDFUNC
  +--> ?PR?_OUTPUTCHAR?GMIOSDFUNC
  +--> ?PR?_COSDFXDRAWWINDOW?GMIOSDFUNC
  +--> ?PR?COSDFXENABLEOSD?GMIOSDFUNC
  +--> ?PR?COSDDISPOSDTIMEREVENT?OSDPROC003
  +--> ?PR?_CTIMERCANCELTIMEREVENT?TIMER
  +--> ?PR?_CTIMERREACTIVETIMEREVENT?TIMER

?PR?_COSDLOAD1BITFONT?GMIOSDFUNC                 -----    -----      -----    -----      -----    -----      FB86H    00
>> 09H
  +--> ?PR?_CSCALERLOADHARDWAREVLCFONT?RTDAC...
  +--> ?PR?GMIOSDFUNC
  +--> ?PR?_SETCHARWDITH?GMIOSDFUNC

?PR?CDISPLAYCURRENTSOURCEMESSAGE?OSDM...         -----    -----      -----    -----      -----    -----      FB85H    00
>> 03H
  +--> ?PR?COSDFXDISABLEOSD?GMIOSDFUNC
  +--> ?CO?OSDRES003
  +--> ?PR?_SETOSDMAP?GMIOSDFUNC
BL51 BANKED LINKER/LOCATER V6.22                                                      01/17/2018  23:35:27  PAGE 54


  +--> ?CO?GMIOSDFUNC
  +--> ?PR?_COSDFXCODEWRITE?GMIOSDFUNC
  +--> ?PR?OSDMENUFUNC003
  +--> ?PR?_OSDCLEAR?GMIOSDFUNC
  +--> ?PR?_SETOSDDOUBLE?GMIOSDFUNC
  +--> ?PR?_OSDPOSITION?GMIOSDFUNC
  +--> ?PR?_CSHOWNUMBER?GMIOSDFUNC
  +--> ?PR?_CTEXTOUTEX?GMIOSDFUNC
  +--> ?PR?_CSHOWMODE?OSDMENUFUNC003
  +--> ?PR?COSDDISPOSDTIMEREVENT?OSDPROC003
  +--> ?PR?_CTIMERREACTIVETIMEREVENT?TIMER
  +--> ?PR?COSDFXENABLEOSD?GMIOSDFUNC

?PR?MMAINMENUPROC?OSDMENUFUNC003                 -----    -----      -----    -----      -----    -----      -----    --
>> ---
  +--> ?PR?_MMAINMENUVALUEADJ?OSDMENUFUNC003
  +--> ?PR?_MMAINMENUMENUADJ?OSDMENUFUNC003
  +--> ?PR?MMAINMENUENTERSUBMENU?OSDMENUFUNC003
  +--> ?PR?MMAINMENURETURNUPMENU?OSDMENUFUNC003

?PR?_MMAINMENUMENUADJ?OSDMENUFUNC003             -----    -----      -----    -----      -----    -----      FB85H    00
>> 01H
  +--> ?PR?_ADJUSTMENUITEM?OSDPROC003
  +--> ?PR?OSDMENUFUNC003
  +--> ?PR?_DRAWMAINMENUITEM?OSDMENUFUNC003
  +--> ?PR?MAINMENUITEMCHGCLEAR?OSDMENUFUNC003
  +--> ?PR?_LOADCHIFONT?OSDPROC003
  +--> ?CO?OSDRES003
  +--> ?PR?_COSDLOAD1BITFONT?GMIOSDFUNC
  +--> ?PR?_DRAWMAINITEMTITLE?OSDMENUFUNC003
  +--> ?PR?_DRAWSUBMENU?OSDMENUFUNC003

?PR?_ADJUSTMENUITEM?OSDPROC003                   -----    -----      -----    -----      -----    -----      FB86H    00
>> 06H
  +--> ?PR?_VALUEINRANGECHANGE?GMIOSDFUNC

?PR?_VALUEINRANGECHANGE?GMIOSDFUNC               -----    -----      -----    -----      -----    -----      FB8CH    00
>> 09H
  +--> ?PR?GMIOSDFUNC

?PR?MAINMENUITEMCHGCLEAR?OSDMENUFUNC003          -----    -----      -----    -----      -----    -----      FB86H    00
>> 01H
  +--> ?PR?OSDMENUFUNC003
  +--> ?PR?_OSDCLEAR?GMIOSDFUNC
  +--> ?PR?_OSDLINE?GMIOSDFUNC

?PR?MMAINMENUENTERSUBMENU?OSDMENUFUNC003         -----    -----      -----    -----      -----    -----      -----    --
>> ---
  +--> ?PR?_DRAWCOLORPAGEMENUITEM?OSDMENUFUN...
  +--> ?PR?_DRAWADJUSTPAGEMENUITEM?OSDMENUFU...
  +--> ?PR?_DRAWOSDPAGEMENUITEM?OSDMENUFUNC003
  +--> ?PR?OSDMENUFUNC003
  +--> ?PR?_DRAWTVPAGEMENUITEM?OSDMENUFUNC003
  +--> ?PR?_DRAWFUNCPAGEMENUITEM?OSDMENUFUNC003
  +--> ?PR?_DRAWSOUNDPAGEMENUITEM?OSDMENUFUN...

?PR?MMAINMENURETURNUPMENU?OSDMENUFUNC003         -----    -----      -----    -----      -----    -----      -----    --
BL51 BANKED LINKER/LOCATER V6.22                                                      01/17/2018  23:35:27  PAGE 55


>> ---
  +--> ?PR?COSDDISPOSDTIMEREVENT?OSDPROC003

?PR?MCOLORPROC?OSDMENUFUNC003                    -----    -----      -----    -----      -----    -----      -----    --
>> ---
  +--> ?PR?_MCOLORVALUEADJ?OSDMENUFUNC003
  +--> ?PR?_MCOLORMENUADJ?OSDMENUFUNC003
  +--> ?PR?MCOLORENTERSUBMENU?OSDMENUFUNC003
  +--> ?PR?MCOLORRETURNUPMENU?OSDMENUFUNC003

?PR?_MCOLORVALUEADJ?OSDMENUFUNC003               -----    -----      -----    -----      -----    -----      FB85H    00
>> 01H
  +--> ?PR?_BRIGHTADJUST?OSDMENUFUNC003
  +--> ?PR?_CONTRASTADJUST?OSDMENUFUNC003
  +--> ?PR?_HUEADJUST?OSDMENUFUNC003
  +--> ?PR?_SATURATIONADJUST?OSDMENUFUNC003
  +--> ?PR?ENTERCOLORTEMPMENU?OSDMENUFUNC003

?PR?_BRIGHTADJUST?OSDMENUFUNC003                 -----    -----      -----    -----      -----    -----      -----    --
>> ---
  +--> ?PR?OSDMENUFUNC003
  +--> ?PR?_VALUEINRANGECHANGE?GMIOSDFUNC
  +--> ?PR?CADJUSTBRIGHTNESS?ADJUST_CUSTOMER
  +--> ?PR?_GETSHOWINDEX?OSDPROC003
  +--> ?PR?_OSDSLIDER?OSDMENUFUNC003

?PR?_CONTRASTADJUST?OSDMENUFUNC003               -----    -----      -----    -----      -----    -----      -----    --
>> ---
  +--> ?PR?OSDMENUFUNC003
  +--> ?PR?_VALUEINRANGECHANGE?GMIOSDFUNC
  +--> ?PR?CADJUSTCONTRAST?ADJUST_CUSTOMER
  +--> ?PR?_GETSHOWINDEX?OSDPROC003
  +--> ?PR?_OSDSLIDER?OSDMENUFUNC003

?PR?_HUEADJUST?OSDMENUFUNC003                    -----    -----      -----    -----      -----    -----      -----    --
>> ---
  +--> ?PR?OSDMENUFUNC003
  +--> ?PR?_VALUEINRANGECHANGE?GMIOSDFUNC
  +--> ?PR?BSOURCEVIDEO?SOURCE
  +--> ?PR?_GMI_CADJUSTVDCHUE?RTD2662
  +--> ?PR?_CADJUSTYPBPRHUE?ADJUST_CUSTOMER
  +--> ?PR?_GETSHOWINDEX?OSDPROC003
  +--> ?PR?_OSDSLIDER?OSDMENUFUNC003

?PR?_GMI_CADJUSTVDCHUE?RTD2662                   -----    -----      -----    -----      -----    -----      FB89H    00
>> 02H
  +--> ?PR?CGMIFUNC?GMIBASE
  +--> ?PR?_CSCALERPAGESELECT?RTDACCESS
  +--> ?PR?_CSCALERSETBYTE?RTDACCESS

?PR?_CADJUSTYPBPRHUE?ADJUST_CUSTOMER             -----    -----      -----    -----      -----    -----      -----    --
>> ---
  +--> ?PR?_CADJUSTSATURATIONHUE?ADJUST_CUST...

?PR?_CADJUSTSATURATIONHUE?ADJUST_CUST...         0020H.3  0000H.1    -----    -----      -----    -----      FB91H    00
>> 28H
  +--> ?PR?ADJUST_CUSTOMER
BL51 BANKED LINKER/LOCATER V6.22                                                      01/17/2018  23:35:27  PAGE 56


  +--> ?CO?ADJUST_CUSTOMER
  +--> ?PR?_CADJUSTCOSINE?ADJUST_CUSTOMER
  +--> ?PR?_CADJUSTSINE?ADJUST_CUSTOMER
  +--> ?PR?_CADJUSTMATRIXMULTIPLY?ADJUST_CUS...
  +--> ?PR?CADJUSTSETYPBPRRHUE?ADJUST
  +--> ?PR?CADJUSTSETYPBPRGHUE?ADJUST
  +--> ?PR?CADJUSTSETYPBPRBHUE?ADJUST
  +--> ?PR?_CSCALERSETBIT?RTDACCESS

?PR?ADJUST_CUSTOMER                              -----    -----      -----    -----      -----    -----      -----    --
>> ---
  +--> ?CO?ADJUST_CUSTOMER

?PR?_CADJUSTCOSINE?ADJUST_CUSTOMER               -----    -----      -----    -----      -----    -----      FBB9H    00
>> 08H
  +--> ?PR?ADJUST_CUSTOMER
  +--> ?CO?ADJUST_CUSTOMER

?PR?_CADJUSTSINE?ADJUST_CUSTOMER                 -----    -----      -----    -----      -----    -----      FBB9H    00
>> 08H
  +--> ?PR?ADJUST_CUSTOMER
  +--> ?CO?ADJUST_CUSTOMER

?PR?_CADJUSTMATRIXMULTIPLY?ADJUST_CUS...         -----    -----      -----    -----      -----    -----      FBB9H    00
>> 2FH
  +--> ?PR?ADJUST_CUSTOMER

?PR?CADJUSTSETYPBPRRHUE?ADJUST                   -----    -----      -----    -----      -----    -----      -----    --
>> ---
  +--> ?PR?_CSCALERSETBIT?RTDACCESS
  +--> ?PR?ADJUST
  +--> ?PR?_CSCALERWRITE?RTDACCESS

?PR?CADJUSTSETYPBPRGHUE?ADJUST                   -----    -----      -----    -----      -----    -----      -----    --
>> ---
  +--> ?PR?_CSCALERSETBIT?RTDACCESS
  +--> ?PR?ADJUST
  +--> ?PR?_CSCALERWRITE?RTDACCESS

?PR?CADJUSTSETYPBPRBHUE?ADJUST                   -----    -----      -----    -----      -----    -----      -----    --
>> ---
  +--> ?PR?_CSCALERSETBIT?RTDACCESS
  +--> ?PR?ADJUST
  +--> ?PR?_CSCALERWRITE?RTDACCESS

?PR?_SATURATIONADJUST?OSDMENUFUNC003             -----    -----      -----    -----      -----    -----      -----    --
>> ---
  +--> ?PR?OSDMENUFUNC003
  +--> ?PR?_VALUEINRANGECHANGE?GMIOSDFUNC
  +--> ?PR?BSOURCEVIDEO?SOURCE
  +--> ?PR?_CVIDEOSETSATURATION?ADJUST_CUSTOMER
  +--> ?PR?_CADJUSTYPBPRSATURATION?ADJUST_CU...
  +--> ?PR?_GETSHOWINDEX?OSDPROC003
  +--> ?PR?_OSDSLIDER?OSDMENUFUNC003

?PR?_CVIDEOSETSATURATION?ADJUST_CUSTOMER         -----    -----      -----    -----      -----    -----      FB89H    00
>> 01H
BL51 BANKED LINKER/LOCATER V6.22                                                      01/17/2018  23:35:27  PAGE 57


  +--> ?PR?ADJUST_CUSTOMER
  +--> ?PR?_CVIDEOSETVDCSATURATION?VIDEO

?PR?_CVIDEOSETVDCSATURATION?VIDEO                -----    -----      -----    -----      -----    -----      FB9AH    00
>> 01H
  +--> ?PR?_CSCALERPAGESELECT?RTDACCESS
  +--> ?PR?_CSCALERSETBYTE?RTDACCESS

?PR?_CADJUSTYPBPRSATURATION?ADJUST_CU...         -----    -----      -----    -----      -----    -----      FB89H    00
>> 04H
  +--> ?PR?_CSCALERPAGESELECT?RTDACCESS
  +--> ?PR?ADJUST_CUSTOMER
  +--> ?PR?_CSCALERSETBYTE?RTDACCESS
  +--> ?PR?_CADJUSTSATURATIONHUE?ADJUST_CUST...

?PR?ENTERCOLORTEMPMENU?OSDMENUFUNC003            -----    -----      -----    -----      -----    -----      FB86H    00
>> 02H
  +--> ?PR?_CREATEPOPUPMENU?OSDMENUFUNC003
  +--> ?PR?OSDMENUFUNC003
  +--> ?PR?_DRAWCOLORTEMPMENUITEM?OSDMENUFUN...

?PR?_CREATEPOPUPMENU?OSDMENUFUNC003              -----    -----      -----    -----      -----    -----      FB88H    00
>> 0BH
  +--> ?PR?OSDMENUFUNC003
  +--> ?PR?_OSDLINE?GMIOSDFUNC
  +--> ?CO?OSDRES003
  +--> ?PR?_COSDFXDRAWWINDOW?GMIOSDFUNC

?PR?_DRAWCOLORTEMPMENUITEM?OSDMENUFUN...         -----    -----      -----    -----      -----    -----      FB88H    00
>> 05H
  +--> ?PR?OSDMENUFUNC003
  +--> ?PR?_GETSHOWINDEX?OSDPROC003
  +--> ?CO?OSDRES003
  +--> ?PR?_DRAWAPOPUPMENUITEM1?OSDMENUFUNC003

?PR?_DRAWAPOPUPMENUITEM1?OSDMENUFUNC003          -----    -----      -----    -----      -----    -----      FB8DH    00
>> 08H
  +--> ?PR?OSDMENUFUNC003
  +--> ?PR?_OSDLINE?GMIOSDFUNC
  +--> ?PR?_GOTOXY?GMIOSDFUNC
  +--> ?PR?_OUTPUTCHAR?GMIOSDFUNC
  +--> ?PR?_CTEXTOUTEX?GMIOSDFUNC

?PR?_MCOLORMENUADJ?OSDMENUFUNC003                -----    -----      -----    -----      -----    -----      FB85H    00
>> 01H
  +--> ?PR?_ADJUSTMENUITEM?OSDPROC003
  +--> ?PR?OSDMENUFUNC003
  +--> ?PR?_DRAWCOLORPAGEMENUITEM?OSDMENUFUN...

?PR?MCOLORENTERSUBMENU?OSDMENUFUNC003            -----    -----      -----    -----      -----    -----      -----    --
>> ---
  +--> ?PR?_DRAWBRIGHT?OSDMENUFUNC003
  +--> ?PR?_DRAWCONTRAST?OSDMENUFUNC003
  +--> ?PR?_DRAWHUE?OSDMENUFUNC003
  +--> ?PR?_DRAWSATURATION?OSDMENUFUNC003
  +--> ?PR?_DRAWCOLORTEMP?OSDMENUFUNC003
  +--> ?PR?ENTERCOLORTEMPMENU?OSDMENUFUNC003
BL51 BANKED LINKER/LOCATER V6.22                                                      01/17/2018  23:35:27  PAGE 58



?PR?MCOLORRETURNUPMENU?OSDMENUFUNC003            -----    -----      -----    -----      -----    -----      -----    --
>> ---
  +--> ?PR?OSDMENUFUNC003
  +--> ?PR?_DRAWCOLORPAGEMENUITEM?OSDMENUFUN...

?PR?CVIDEONTSCENABLE?OSDMENUFUNC003              -----    -----      -----    -----      -----    -----      -----    --
>> ---
  +--> ?PR?BSOURCEVIDEO?SOURCE

?PR?CVIDEOENABLE?OSDMENUFUNC003                  -----    -----      -----    -----      -----    -----      -----    --
>> ---
  +--> ?PR?BSOURCEVIDEO?SOURCE

?PR?MBRIGHTNESSPROC?OSDMENUFUNC003               -----    -----      -----    -----      -----    -----      -----    --
>> ---
  +--> ?PR?_MBRIGHTNESSVALUEADJ?OSDMENUFUNC003
  +--> ?PR?MBRIGHTNESSRETURNUPMENU?OSDMENUFU...
  +--> ?PR?_MCOLORMENUADJ?OSDMENUFUNC003
  +--> ?PR?MCOLORENTERSUBMENU?OSDMENUFUNC003

?PR?_MBRIGHTNESSVALUEADJ?OSDMENUFUNC003          -----    -----      -----    -----      -----    -----      -----    --
>> ---
  +--> ?PR?_BRIGHTADJUST?OSDMENUFUNC003

?PR?MBRIGHTNESSRETURNUPMENU?OSDMENUFU...         -----    -----      -----    -----      -----    -----      -----    --
>> ---
  +--> ?PR?_DRAWBRIGHT?OSDMENUFUNC003

?PR?MCONTRASTPROC?OSDMENUFUNC003                 -----    -----      -----    -----      -----    -----      -----    --
>> ---
  +--> ?PR?_MCONTRASTVALUEADJ?OSDMENUFUNC003
  +--> ?PR?MCONTRASTRETURNUPMENU?OSDMENUFUNC003
  +--> ?PR?_MCOLORMENUADJ?OSDMENUFUNC003
  +--> ?PR?MCOLORENTERSUBMENU?OSDMENUFUNC003

?PR?_MCONTRASTVALUEADJ?OSDMENUFUNC003            -----    -----      -----    -----      -----    -----      -----    --
>> ---
  +--> ?PR?_CONTRASTADJUST?OSDMENUFUNC003

?PR?MCONTRASTRETURNUPMENU?OSDMENUFUNC003         -----    -----      -----    -----      -----    -----      -----    --
>> ---
  +--> ?PR?_DRAWCONTRAST?OSDMENUFUNC003

?PR?MHUEPROC?OSDMENUFUNC003                      -----    -----      -----    -----      -----    -----      -----    --
>> ---
  +--> ?PR?_MHUEVALUEADJ?OSDMENUFUNC003
  +--> ?PR?MHUERETURNUPMENU?OSDMENUFUNC003
  +--> ?PR?_MCOLORMENUADJ?OSDMENUFUNC003
  +--> ?PR?MCOLORENTERSUBMENU?OSDMENUFUNC003

?PR?_MHUEVALUEADJ?OSDMENUFUNC003                 -----    -----      -----    -----      -----    -----      -----    --
>> ---
  +--> ?PR?_HUEADJUST?OSDMENUFUNC003

?PR?MHUERETURNUPMENU?OSDMENUFUNC003              -----    -----      -----    -----      -----    -----      -----    --
>> ---
BL51 BANKED LINKER/LOCATER V6.22                                                      01/17/2018  23:35:27  PAGE 59


  +--> ?PR?_DRAWHUE?OSDMENUFUNC003

?PR?MSATURATIONPROC?OSDMENUFUNC003               -----    -----      -----    -----      -----    -----      -----    --
>> ---
  +--> ?PR?_MSATURATIONVALUEADJ?OSDMENUFUNC003
  +--> ?PR?MSATURATIONRETURNUPMENU?OSDMENUFU...
  +--> ?PR?_MCOLORMENUADJ?OSDMENUFUNC003
  +--> ?PR?MCOLORENTERSUBMENU?OSDMENUFUNC003

?PR?_MSATURATIONVALUEADJ?OSDMENUFUNC003          -----    -----      -----    -----      -----    -----      -----    --
>> ---
  +--> ?PR?_SATURATIONADJUST?OSDMENUFUNC003

?PR?MSATURATIONRETURNUPMENU?OSDMENUFU...         -----    -----      -----    -----      -----    -----      -----    --
>> ---
  +--> ?PR?_DRAWSATURATION?OSDMENUFUNC003

?PR?MCOLORTEMPPROC?OSDMENUFUNC003                -----    -----      -----    -----      -----    -----      -----    --
>> ---
  +--> ?PR?_MCOLORTEMPMENUADJ?OSDMENUFUNC003
  +--> ?PR?MCOLORTEMPENTERSUBMENU?OSDMENUFUN...
  +--> ?PR?MCOLORTEMPRETURNUPMENU?OSDMENUFUN...

?PR?_MCOLORTEMPMENUADJ?OSDMENUFUNC003            -----    -----      -----    -----      -----    -----      FB85H    00
>> 01H
  +--> ?PR?_ADJUSTMENUITEM?OSDPROC003
  +--> ?PR?OSDMENUFUNC003
  +--> ?PR?_DRAWCOLORTEMPMENUITEM?OSDMENUFUN...
  +--> ?PR?CEEPROMLOADCOLORTEMPDATA?EEPROM
  +--> ?PR?CADJUSTCONTRAST?ADJUST_CUSTOMER

?PR?MCOLORTEMPENTERSUBMENU?OSDMENUFUN...         -----    -----      -----    -----      -----    -----      -----    --
>> ---
  +--> ?PR?OSDMENUFUNC003
  +--> ?PR?ENTERCOLORTEMPUSERMENU?OSDMENUFUN...
  +--> ?PR?MCOLORTEMPRETURNUPMENU?OSDMENUFUN...

?PR?ENTERCOLORTEMPUSERMENU?OSDMENUFUN...         -----    -----      -----    -----      -----    -----      FB85H    00
>> 02H
  +--> ?PR?_CREATEPOPUPMENU?OSDMENUFUNC003
  +--> ?PR?OSDMENUFUNC003
  +--> ?PR?_GOTOXY?GMIOSDFUNC
  +--> ?PR?_OUTPUTCHAR?GMIOSDFUNC
  +--> ?PR?_OSDLINE?GMIOSDFUNC
  +--> ?PR?_DRAWCOLORUSERMENUITEM?OSDMENUFUN...

?PR?_DRAWCOLORUSERMENUITEM?OSDMENUFUN...         -----    -----      -----    -----      -----    -----      FB87H    00
>> 03H
  +--> ?PR?_STATECOLOR?OSDMENUFUNC003
  +--> ?PR?_OSDSLIDER?OSDMENUFUNC003

?PR?MCOLORTEMPRETURNUPMENU?OSDMENUFUN...         -----    -----      -----    -----      -----    -----      -----    --
>> ---
  +--> ?PR?CLEARCOLORTEMPMENU?OSDMENUFUNC003
  +--> ?PR?DRAWCOLORPAGE?OSDMENUFUNC003

?PR?CLEARCOLORTEMPMENU?OSDMENUFUNC003            -----    -----      -----    -----      -----    -----      -----    --
BL51 BANKED LINKER/LOCATER V6.22                                                      01/17/2018  23:35:27  PAGE 60


>> ---
  +--> ?PR?_CLEARPOPUPMENU?OSDMENUFUNC003

?PR?_CLEARPOPUPMENU?OSDMENUFUNC003               -----    -----      -----    -----      -----    -----      FB86H    00
>> 05H
  +--> ?PR?OSDMENUFUNC003
  +--> ?PR?_OSDLINE?GMIOSDFUNC
  +--> ?PR?_COSDFXCLOSEWINDOW?GMIOSDFUNC

?PR?_COSDFXCLOSEWINDOW?GMIOSDFUNC                -----    -----      -----    -----      -----    -----      -----    --
>> ---
  +--> ?PR?GMIOSDFUNC
  +--> ?PR?_CSCALERWRITE?RTDACCESS

?PR?MCOLORUSERPROC?OSDMENUFUNC003                -----    -----      -----    -----      -----    -----      -----    --
>> ---
  +--> ?PR?_MCOLORUSERVALUEADJ?OSDMENUFUNC003
  +--> ?PR?_MCOLORUSERMENUADJ?OSDMENUFUNC003
  +--> ?PR?MCOLORUSERENTERSUBMENU?OSDMENUFUN...
  +--> ?PR?MCOLORUSERRETURNUPMENU?OSDMENUFUN...

?PR?_MCOLORUSERVALUEADJ?OSDMENUFUNC003           -----    -----      -----    -----      -----    -----      FB85H    00
>> 01H
  +--> ?PR?_COLORRADJUST?OSDMENUFUNC003
  +--> ?PR?_COLORGADJUST?OSDMENUFUNC003
  +--> ?PR?_COLORBADJUST?OSDMENUFUNC003
  +--> ?PR?OSDMENUFUNC003
  +--> ?PR?_DRAWCOLORUSERMENUITEM?OSDMENUFUN...
  +--> ?PR?CADJUSTCONTRAST?ADJUST_CUSTOMER

?PR?_COLORRADJUST?OSDMENUFUNC003                 -----    -----      -----    -----      -----    -----      -----    --
>> ---
  +--> ?PR?OSDMENUFUNC003
  +--> ?PR?_VALUEINRANGECHANGE?GMIOSDFUNC
  +--> ?PR?_DRAWCOLORUSERMENUITEM?OSDMENUFUN...

?PR?_COLORGADJUST?OSDMENUFUNC003                 -----    -----      -----    -----      -----    -----      -----    --
>> ---
  +--> ?PR?OSDMENUFUNC003
  +--> ?PR?_VALUEINRANGECHANGE?GMIOSDFUNC
  +--> ?PR?_DRAWCOLORUSERMENUITEM?OSDMENUFUN...

?PR?_COLORBADJUST?OSDMENUFUNC003                 -----    -----      -----    -----      -----    -----      -----    --
>> ---
  +--> ?PR?OSDMENUFUNC003
  +--> ?PR?_VALUEINRANGECHANGE?GMIOSDFUNC
  +--> ?PR?_DRAWCOLORUSERMENUITEM?OSDMENUFUN...

?PR?_MCOLORUSERMENUADJ?OSDMENUFUNC003            -----    -----      -----    -----      -----    -----      FB85H    00
>> 01H
  +--> ?PR?_ADJUSTMENUITEM?OSDPROC003
  +--> ?PR?OSDMENUFUNC003
  +--> ?PR?_DRAWCOLORUSERMENUITEM?OSDMENUFUN...

?PR?MCOLORUSERENTERSUBMENU?OSDMENUFUN...         -----    -----      -----    -----      -----    -----      -----    --
>> ---
  +--> ?PR?_DRAWCOLORUSERMENUITEM?OSDMENUFUN...
BL51 BANKED LINKER/LOCATER V6.22                                                      01/17/2018  23:35:27  PAGE 61



?PR?MCOLORUSERRETURNUPMENU?OSDMENUFUN...         -----    -----      -----    -----      -----    -----      -----    --
>> ---
  +--> ?PR?CLEARCOLORUSERMENU?OSDMENUFUNC003
  +--> ?PR?ENTERCOLORTEMPMENU?OSDMENUFUNC003

?PR?CLEARCOLORUSERMENU?OSDMENUFUNC003            -----    -----      -----    -----      -----    -----      -----    --
>> ---
  +--> ?PR?_CLEARPOPUPMENU?OSDMENUFUNC003

?PR?MRPROC?OSDMENUFUNC003                        -----    -----      -----    -----      -----    -----      -----    --
>> ---
  +--> ?PR?_MRVALUEADJ?OSDMENUFUNC003
  +--> ?PR?MRRETURNUPMENU?OSDMENUFUNC003
  +--> ?PR?_MCOLORUSERMENUADJ?OSDMENUFUNC003

?PR?_MRVALUEADJ?OSDMENUFUNC003                   -----    -----      -----    -----      -----    -----      -----    --
>> ---
  +--> ?PR?_COLORRADJUST?OSDMENUFUNC003
  +--> ?PR?CADJUSTCONTRAST?ADJUST_CUSTOMER

?PR?MRRETURNUPMENU?OSDMENUFUNC003                -----    -----      -----    -----      -----    -----      -----    --
>> ---
  +--> ?PR?_DRAWCOLORUSERMENUITEM?OSDMENUFUN...

?PR?MGPROC?OSDMENUFUNC003                        -----    -----      -----    -----      -----    -----      -----    --
>> ---
  +--> ?PR?_MGVALUEADJ?OSDMENUFUNC003
  +--> ?PR?MGRETURNUPMENU?OSDMENUFUNC003
  +--> ?PR?_MCOLORUSERMENUADJ?OSDMENUFUNC003

?PR?_MGVALUEADJ?OSDMENUFUNC003                   -----    -----      -----    -----      -----    -----      -----    --
>> ---
  +--> ?PR?_COLORGADJUST?OSDMENUFUNC003
  +--> ?PR?CADJUSTCONTRAST?ADJUST_CUSTOMER

?PR?MGRETURNUPMENU?OSDMENUFUNC003                -----    -----      -----    -----      -----    -----      -----    --
>> ---
  +--> ?PR?_DRAWCOLORUSERMENUITEM?OSDMENUFUN...

?PR?MBPROC?OSDMENUFUNC003                        -----    -----      -----    -----      -----    -----      -----    --
>> ---
  +--> ?PR?_MBVALUEADJ?OSDMENUFUNC003
  +--> ?PR?MBRETURNUPMENU?OSDMENUFUNC003
  +--> ?PR?_MCOLORUSERMENUADJ?OSDMENUFUNC003

?PR?_MBVALUEADJ?OSDMENUFUNC003                   -----    -----      -----    -----      -----    -----      -----    --
>> ---
  +--> ?PR?_COLORBADJUST?OSDMENUFUNC003
  +--> ?PR?CADJUSTCONTRAST?ADJUST_CUSTOMER

?PR?MBRETURNUPMENU?OSDMENUFUNC003                -----    -----      -----    -----      -----    -----      -----    --
>> ---
  +--> ?PR?_DRAWCOLORUSERMENUITEM?OSDMENUFUN...

?PR?MADJUSTPROC?OSDMENUFUNC003                   -----    -----      -----    -----      -----    -----      -----    --
>> ---
BL51 BANKED LINKER/LOCATER V6.22                                                      01/17/2018  23:35:27  PAGE 62


  +--> ?PR?_MADJUSTVALUEADJ?OSDMENUFUNC003
  +--> ?PR?_MADJUSTMENUADJ?OSDMENUFUNC003
  +--> ?PR?MADJUSTENTERSUBMENU?OSDMENUFUNC003
  +--> ?PR?MADJUSTRETURNUPMENU?OSDMENUFUNC003

?PR?_MADJUSTVALUEADJ?OSDMENUFUNC003              -----    -----      -----    -----      -----    -----      FB85H    00
>> 01H
  +--> ?PR?ENTERAUTOCONFIGMENU?OSDMENUFUNC003
  +--> ?PR?_HPOSITIONADJUST?OSDMENUFUNC003
  +--> ?PR?_VPOSITIONADJUST?OSDMENUFUNC003
  +--> ?PR?_PHASEADJUST?OSDMENUFUNC003
  +--> ?PR?_CLOCKADJUST?OSDMENUFUNC003

?PR?ENTERAUTOCONFIGMENU?OSDMENUFUNC003           -----    -----      -----    -----      -----    -----      -----    --
>> ---
  +--> ?PR?_CREATEPOPUPMENU?OSDMENUFUNC003
  +--> ?PR?_DRAWAUTOCONFIGMENUITEM?OSDMENUFU...

?PR?_DRAWAUTOCONFIGMENUITEM?OSDMENUFU...         -----    -----      -----    -----      -----    -----      FB86H    00
>> 06H
  +--> ?PR?OSDMENUFUNC003
  +--> ?PR?_GETSHOWINDEX?OSDPROC003
  +--> ?PR?_DRAWAPOPUPMENUITEM?OSDMENUFUNC003

?PR?_DRAWAPOPUPMENUITEM?OSDMENUFUNC003           -----    -----      -----    -----      -----    -----      FB8EH    00
>> 08H
  +--> ?PR?OSDMENUFUNC003
  +--> ?PR?_OSDLINE?GMIOSDFUNC
  +--> ?PR?_GOTOXY?GMIOSDFUNC
  +--> ?PR?_OUTPUTCHAR?GMIOSDFUNC
  +--> ?PR?_CTEXTOUTEX?GMIOSDFUNC

?PR?_HPOSITIONADJUST?OSDMENUFUNC003              -----    -----      -----    -----      -----    -----      FB86H    00
>> 02H
  +--> ?PR?OSDMENUFUNC003
  +--> ?PR?_ABS?ABS
  +--> ?PR?_VALUEINRANGECHANGE?GMIOSDFUNC
  +--> ?PR?CADJUSTHPOSITION?ADJUST
  +--> ?PR?_GETSHOWINDEX?OSDPROC003
  +--> ?PR?COSDCTRLGETHPOSITION?GMIOSDFUNC
  +--> ?PR?_OSDSLIDER?OSDMENUFUNC003

?PR?CADJUSTHPOSITION?ADJUST                      -----    -----      -----    -----      -----    -----      -----    --
>> ---
  +--> ?PR?_CADJUSTPHASE?ADJUST

?PR?_CADJUSTPHASE?ADJUST                         -----    -----      -----    -----      -----    -----      FB9FH    00
>> 03H
  +--> ?PR?_CADJUSTENABLEWATCHDOG?ADJUST
  +--> ?PR?ADJUST
  +--> ?PR?_CSCALERPAGESELECT?RTDACCESS
  +--> ?PR?_CSCALERSETBIT?RTDACCESS
  +--> ?PR?_CADJUSTIHSDELAY?ADJUST
  +--> ?PR?CMISCAPPLYDOUBLEBUFFER?MISC
  +--> ?PR?CMISCCLEARSTATUSREGISTER?MISC

?PR?_CADJUSTENABLEWATCHDOG?ADJUST                -----    -----      -----    -----      -----    -----      FBB6H    00
BL51 BANKED LINKER/LOCATER V6.22                                                      01/17/2018  23:35:27  PAGE 63


>> 01H
  +--> ?PR?BCNOCHECKSYNCMODE?SYNC
  +--> ?PR?_CSCALERSETBYTE?RTDACCESS
  +--> ?PR?CMISCCLEARSTATUSREGISTER?MISC
  +--> ?PR?_CSCALERSETBIT?RTDACCESS

?PR?_CADJUSTIHSDELAY?ADJUST                      -----    -----      -----    -----      -----    -----      FBA2H    00
>> 02H
  +--> ?PR?_CSCALERSETBIT?RTDACCESS
  +--> ?PR?_CSCALERSETBYTE?RTDACCESS

?PR?CMISCAPPLYDOUBLEBUFFER?MISC                  -----    -----      -----    -----      -----    -----      FBA2H    00
>> 01H
  +--> ?PR?_CSCALERGETBIT?RTDACCESS
  +--> ?PR?_CSCALERSETBIT?RTDACCESS
  +--> ?PR?_CTIMERDELAYXMS?TIMER
  +--> ?PR?CMISCAPPLYDOUBLEBUFFERPOLLINGEVEN...

?PR?CMISCAPPLYDOUBLEBUFFERPOLLINGEVEN...         -----    -----      -----    -----      -----    -----      -----    --
>> ---
  +--> ?PR?_CSCALERGETBIT?RTDACCESS

?PR?_VPOSITIONADJUST?OSDMENUFUNC003              -----    -----      -----    -----      -----    -----      FB86H    00
>> 02H
  +--> ?PR?OSDMENUFUNC003
  +--> ?PR?_VALUEINRANGECHANGE?GMIOSDFUNC
  +--> ?PR?CADJUSTVPOSITION?ADJUST
  +--> ?PR?_GETSHOWINDEX?OSDPROC003
  +--> ?PR?COSDCTRLGETVPOSITION?GMIOSDFUNC
  +--> ?PR?_OSDSLIDER?OSDMENUFUNC003
  +--> ?PR?_ABS?ABS

?PR?CADJUSTVPOSITION?ADJUST                      -----    -----      -----    -----      -----    -----      -----    --
>> ---
  +--> ?PR?_CADJUSTENABLEWATCHDOG?ADJUST
  +--> ?PR?ADJUST
  +--> ?PR?_CADJUSTIVSDELAY?ADJUST
  +--> ?PR?CMISCAPPLYDOUBLEBUFFER?MISC
  +--> ?PR?_CTIMERWAITFOREVENT?TIMER
  +--> ?PR?CMISCCLEARSTATUSREGISTER?MISC

?PR?_CADJUSTIVSDELAY?ADJUST                      -----    -----      -----    -----      -----    -----      FB92H    00
>> 02H
  +--> ?PR?_CSCALERSETBIT?RTDACCESS
  +--> ?PR?_CSCALERSETBYTE?RTDACCESS

?PR?_PHASEADJUST?OSDMENUFUNC003                  -----    -----      -----    -----      -----    -----      -----    --
>> ---
  +--> ?PR?OSDMENUFUNC003
  +--> ?PR?_VALUEINRANGECHANGE?GMIOSDFUNC
  +--> ?PR?_CADJUSTPHASE?ADJUST
  +--> ?PR?_GETSHOWINDEX?OSDPROC003
  +--> ?PR?_OSDSLIDER?OSDMENUFUNC003

?PR?_CLOCKADJUST?OSDMENUFUNC003                  -----    -----      -----    -----      -----    -----      FB86H    00
>> 02H
  +--> ?PR?OSDMENUFUNC003
BL51 BANKED LINKER/LOCATER V6.22                                                      01/17/2018  23:35:27  PAGE 64


  +--> ?PR?_COSDFXGETADCCLOCKRANGE?GMIOSDFUNC
  +--> ?PR?_VALUEINRANGECHANGE?GMIOSDFUNC
  +--> ?PR?_CADJUSTADCCLOCK?ADJUST
  +--> ?PR?_GETSHOWINDEX?OSDPROC003
  +--> ?PR?COSDCTRLGETCLOCK?GMIOSDFUNC
  +--> ?PR?_OSDSLIDER?OSDMENUFUNC003

?PR?_CADJUSTADCCLOCK?ADJUST                      -----    -----      -----    -----      -----    -----      FB98H    00
>> 10H
  +--> ?PR?ADJUST
  +--> ?PR?_CADJUSTAPLLFASTLOCK?ADJUST
  +--> ?PR?_CADJUSTADCCLOCK_OSD?ADJUST
  +--> ?PR?_CADJUSTENABLEWATCHDOG?ADJUST
  +--> ?PR?_CSCALERPAGESELECT?RTDACCESS
  +--> ?PR?_CSCALERSETBYTE?RTDACCESS
  +--> ?PR?_CSCALERSETBIT?RTDACCESS
  +--> ?PR?_CADJUSTGETAPLLSETTING?ADJUST
  +--> ?PR?_CTIMERDELAYXMS?TIMER
  +--> ?PR?_CSCALERREAD?RTDACCESS
  +--> ?PR?CPOWERADCAPLLON?POWER
  +--> ?PR?_CTIMERWAITFOREVENT?TIMER
  +--> ?PR?CMISCCLEARSTATUSREGISTER?MISC

?PR?_CADJUSTAPLLFASTLOCK?ADJUST                  -----    -----      -----    -----      -----    -----      FBA8H    00
>> 27H
  +--> ?CO?ADJUST
  +--> ?PR?ADJUST
  +--> ?PR?_CSCALERPAGESELECT?RTDACCESS
  +--> ?PR?_CSCALERSETBYTE?RTDACCESS
  +--> ?PR?_CTIMERDELAYXMS?TIMER
  +--> ?PR?_CSCALERREAD?RTDACCESS

?PR?_CADJUSTADCCLOCK_OSD?ADJUST                  -----    -----      -----    -----      -----    -----      FBA8H    00
>> 0EH
  +--> ?PR?_CSCALERPAGESELECT?RTDACCESS
  +--> ?PR?_CSCALERSETBIT?RTDACCESS
  +--> ?PR?ADJUST
  +--> ?PR?_CSCALERSETBYTE?RTDACCESS
  +--> ?PR?_CSCALERWRITE?RTDACCESS
  +--> ?PR?_CTIMERDELAYXMS?TIMER
  +--> ?PR?_CSCALERREAD?RTDACCESS
  +--> ?PR?_CADJUSTDISABLEWATCHDOG?ADJUST
  +--> ?PR?_CADJUSTENABLEWATCHDOG?ADJUST
  +--> ?PR?CMISCCLEARSTATUSREGISTER?MISC

?PR?_CADJUSTGETAPLLSETTING?ADJUST                -----    -----      -----    -----      -----    -----      FBA8H    00
>> 04H
  +--> ?PR?_CSCALERPAGESELECT?RTDACCESS
  +--> ?PR?_CSCALERREAD?RTDACCESS

?PR?_MADJUSTMENUADJ?OSDMENUFUNC003               -----    -----      -----    -----      -----    -----      FB85H    00
>> 01H
  +--> ?PR?_ADJUSTMENUITEM?OSDPROC003
  +--> ?PR?OSDMENUFUNC003
  +--> ?PR?_DRAWADJUSTPAGEMENUITEM?OSDMENUFU...

?PR?MADJUSTENTERSUBMENU?OSDMENUFUNC003           -----    -----      -----    -----      -----    -----      -----    --
BL51 BANKED LINKER/LOCATER V6.22                                                      01/17/2018  23:35:27  PAGE 65


>> ---
  +--> ?PR?_DRAWAUTOADJUST?OSDMENUFUNC003
  +--> ?PR?ENTERAUTOCONFIGMENU?OSDMENUFUNC003
  +--> ?PR?_DRAWHPOSITION?OSDMENUFUNC003
  +--> ?PR?_DRAWVPOSITION?OSDMENUFUNC003
  +--> ?PR?_DRAWPHASE?OSDMENUFUNC003
  +--> ?PR?_DRAWCLOCK?OSDMENUFUNC003

?PR?MADJUSTRETURNUPMENU?OSDMENUFUNC003           -----    -----      -----    -----      -----    -----      -----    --
>> ---
  +--> ?PR?OSDMENUFUNC003
  +--> ?PR?_DRAWADJUSTPAGEMENUITEM?OSDMENUFU...

?PR?MAUTOADJUSTPROC?OSDMENUFUNC003               -----    -----      -----    -----      -----    -----      -----    --
>> ---
  +--> ?PR?_MAUTOADJUSTVALUEADJ?OSDMENUFUNC003
  +--> ?PR?_MAUTOADJUSTMENUADJ?OSDMENUFUNC003
  +--> ?PR?MAUTOADJUSTENTERSUBMENU?OSDMENUFU...
  +--> ?PR?MAUTOADJUSTRETURNUPMENU?OSDMENUFU...

?PR?_MAUTOADJUSTMENUADJ?OSDMENUFUNC003           -----    -----      -----    -----      -----    -----      FB85H    00
>> 01H
  +--> ?PR?_ADJUSTMENUITEM?OSDPROC003
  +--> ?PR?OSDMENUFUNC003
  +--> ?PR?_DRAWAUTOCONFIGMENUITEM?OSDMENUFU...

?PR?MAUTOADJUSTENTERSUBMENU?OSDMENUFU...         0020H.2  0000H.1    -----    -----      -----    -----      -----    --
>> ---
  +--> ?PR?MAUTOADJUSTRETURNUPMENU?OSDMENUFU...
  +--> ?PR?CAUTODOAUTOCONFIG?AUTO
  +--> ?PR?CAUTODOWHITEBALANCE?AUTO
  +--> ?PR?_DRAWHPOSITION?OSDMENUFUNC003
  +--> ?PR?_DRAWVPOSITION?OSDMENUFUNC003
  +--> ?PR?_DRAWPHASE?OSDMENUFUNC003
  +--> ?PR?_DRAWCLOCK?OSDMENUFUNC003

?PR?MAUTOADJUSTRETURNUPMENU?OSDMENUFU...         -----    -----      -----    -----      -----    -----      -----    --
>> ---
  +--> ?PR?CLEARAUTOCONFIGMENU?OSDMENUFUNC003
  +--> ?PR?DRAWADJUSTPAGE?OSDMENUFUNC003

?PR?CLEARAUTOCONFIGMENU?OSDMENUFUNC003           -----    -----      -----    -----      -----    -----      -----    --
>> ---
  +--> ?PR?_CLEARPOPUPMENU?OSDMENUFUNC003

?PR?CAUTODOAUTOCONFIG?AUTO                       -----    -----      -----    -----      -----    -----      FB89H    00
>> 03H
  +--> ?PR?_CSCALERREAD?RTDACCESS
  +--> ?PR?_CSCALERSETBYTE?RTDACCESS
  +--> ?PR?CMISCCLEARSTATUSREGISTER?MISC
  +--> ?PR?CAUTODOAUTOPOSITION?AUTO
  +--> ?PR?CAUTODOAUTOCLOCK?AUTO
  +--> ?PR?CAUTODOAUTOPHASE?AUTO
  +--> ?PR?AUTO
  +--> ?PR?_CADJUSTPHASE?ADJUST
  +--> ?PR?_CADJUSTADCCLOCK?ADJUST
  +--> ?PR?CADJUSTHPOSITION?ADJUST
BL51 BANKED LINKER/LOCATER V6.22                                                      01/17/2018  23:35:27  PAGE 66


  +--> ?PR?CADJUSTVPOSITION?ADJUST
  +--> ?PR?_CEEPROMSAVEMODEDATA?EEPROM
  +--> ?PR?CADJUSTUPDATECENTERDATA?ADJUST
  +--> ?PR?_CEEPROMSAVECENTERMODEDATA?EEPROM

?PR?CAUTODOAUTOPOSITION?AUTO                     -----    -----      -----    -----      -----    -----      FB8CH    00
>> 06H
  +--> ?PR?_CAUTOMEASUREPOSITIONV?AUTO
  +--> ?PR?_CAUTOMEASUREPOSITIONH?AUTO
  +--> ?PR?AUTO
  +--> ?PR?_CSCALERREAD?RTDACCESS
  +--> ?PR?_ABS?ABS
  +--> ?PR?CADJUSTVPOSITION?ADJUST
  +--> ?PR?CADJUSTHPOSITION?ADJUST

?PR?_CAUTOMEASUREPOSITIONV?AUTO                  -----    -----      -----    -----      -----    -----      FB98H    00
>> 05H
  +--> ?PR?AUTO
  +--> ?PR?_CSCALERSETBIT?RTDACCESS
  +--> ?PR?_CSCALERWRITE?RTDACCESS
  +--> ?PR?CAUTOWAITFINISH?AUTO
  +--> ?PR?_CSCALERREAD?RTDACCESS

?PR?CAUTOWAITFINISH?AUTO                         -----    -----      -----    -----      -----    -----      FBACH    00
>> 03H
  +--> ?PR?CMISCCLEARSTATUSREGISTER?MISC
  +--> ?PR?_CSCALERREAD?RTDACCESS
  +--> ?PR?_CTIMERDELAYXMS?TIMER
  +--> ?PR?AUTO
  +--> ?PR?_CSCALERSETBYTE?RTDACCESS

?PR?_CAUTOMEASUREPOSITIONH?AUTO                  -----    -----      -----    -----      -----    -----      FB9FH    00
>> 05H
  +--> ?PR?AUTO
  +--> ?PR?_CSCALERSETBIT?RTDACCESS
  +--> ?PR?_CSCALERWRITE?RTDACCESS
  +--> ?PR?CAUTOWAITFINISH?AUTO
  +--> ?PR?_CSCALERREAD?RTDACCESS

?PR?CAUTODOAUTOCLOCK?AUTO                        -----    -----      -----    -----      -----    -----      FB8CH    00
>> 0CH
  +--> ?PR?AUTO
  +--> ?PR?_CADJUSTADCCLOCK?ADJUST
  +--> ?PR?_CAUTOMEASUREPOSITIONV?AUTO
  +--> ?PR?_CAUTOMEASUREPOSITIONH?AUTO
  +--> ?PR?_CSCALERSETBYTE?RTDACCESS
  +--> ?PR?_CAUTOPHASESEARCH?AUTO

?PR?_CAUTOPHASESEARCH?AUTO                       -----    -----      -----    -----      -----    -----      FB9FH    00
>> 0DH
  +--> ?PR?AUTO
  +--> ?PR?_CSCALERSETBYTE?RTDACCESS
  +--> ?PR?_CSCALERSETBIT?RTDACCESS
  +--> ?PR?_CSCALERPAGESELECT?RTDACCESS
  +--> ?PR?_CAUTOWAITFORIVS?AUTO
  +--> ?PR?_CSCALERGETBIT?RTDACCESS
  +--> ?PR?_CSCALERREAD?RTDACCESS
BL51 BANKED LINKER/LOCATER V6.22                                                      01/17/2018  23:35:27  PAGE 67


  +--> ?PR?_CTIMERWAITFOREVENT?TIMER
  +--> ?PR?CAUTOWAITFINISH?AUTO

?PR?_CAUTOWAITFORIVS?AUTO                        -----    -----      -----    -----      -----    -----      FBACH    00
>> 02H
  +--> ?PR?_CSCALERSETBYTE?RTDACCESS
  +--> ?PR?_CTIMERDELAYXMS?TIMER
  +--> ?PR?AUTO
  +--> ?PR?_CSCALERREAD?RTDACCESS

?PR?CAUTODOAUTOPHASE?AUTO                        -----    -----      -----    -----      -----    -----      FB8CH    00
>> 13H
  +--> ?PR?_CAUTOMEASUREPOSITIONH?AUTO
  +--> ?PR?AUTO
  +--> ?PR?_CAUTOPHASESEARCH?AUTO
  +--> ?PR?_CADJUSTPHASE?ADJUST
  +--> ?PR?_CAUTOREADPHASEINFO?AUTO
  +--> ?PR?_CSCALERSETBYTE?RTDACCESS

?PR?_CAUTOREADPHASEINFO?AUTO                     -----    -----      -----    -----      -----    -----      -----    --
>> ---
  +--> ?PR?_CSCALERSETBIT?RTDACCESS
  +--> ?PR?_CSCALERSETBYTE?RTDACCESS
  +--> ?PR?CAUTOWAITFINISH?AUTO
  +--> ?PR?AUTO
  +--> ?PR?_CSCALERREAD?RTDACCESS

?PR?CADJUSTUPDATECENTERDATA?ADJUST               -----    -----      -----    -----      -----    -----      FB8CH    00
>> 02H
  +--> ?PR?_CADJUSTCHECKADCCLOCKRANGE?ADJUST
  +--> ?PR?ADJUST

?PR?CAUTODOWHITEBALANCE?AUTO                     -----    -----      -----    -----      -----    -----      FB89H    00
>> 01H
  +--> ?PR?CAUTOTUNEBALANCE?AUTO
  +--> ?PR?CEEPROMSAVEADCDATA?EEPROM
  +--> ?PR?CEEPROMLOADADCDATADEFAULT?EEPROM
  +--> ?PR?CEEPROMLOADYPBPRDATADEFAULT?EEPROM
  +--> ?PR?BSOURCEVIDEO?SOURCE
  +--> ?PR?CEEPROMSAVESYSTEMDATA?EEPROM

?PR?CAUTOTUNEBALANCE?AUTO                        -----    -----      -----    -----      -----    -----      FB8AH    00
>> 07H
  +--> ?PR?AUTO
  +--> ?PR?CADJUSTADCGAINOFFSET?ADJUST
  +--> ?PR?BSOURCEVIDEO?SOURCE
  +--> ?PR?_CVIDEOSETVDCCONTRAST?VIDEO
  +--> ?PR?_CVIDEOSETVDCBRIGHTNESS?VIDEO
  +--> ?PR?_CVIDEOSETVDCSATURATION?VIDEO
  +--> ?PR?_CADJUSTSATURATIONHUE?ADJUST_CUST...
  +--> ?PR?_CAUTOMEASUREPOSITIONV?AUTO
  +--> ?PR?_CAUTOMEASUREPOSITIONH?AUTO
  +--> ?PR?_CAUTOMEASURECOLOR?AUTO
  +--> ?PR?_CGETTARGETVALUE?AUTO
  +--> ?PR?_CAUTOTUNEDEVICEGAIN?AUTO
  +--> ?PR?_CAUTOTUNEDEVICEOFFSET?AUTO

BL51 BANKED LINKER/LOCATER V6.22                                                      01/17/2018  23:35:27  PAGE 68


?PR?CADJUSTADCGAINOFFSET?ADJUST                  -----    -----      -----    -----      -----    -----      -----    --
>> ---
  +--> ?PR?CADJUSTADCGAIN?ADJUST
  +--> ?PR?CADJUSTADCOFFSET?ADJUST

?PR?CADJUSTADCGAIN?ADJUST                        -----    -----      -----    -----      -----    -----      -----    --
>> ---
  +--> ?PR?_CSCALERPAGESELECT?RTDACCESS
  +--> ?PR?ADJUST
  +--> ?PR?_CSCALERWRITE?RTDACCESS

?PR?CADJUSTADCOFFSET?ADJUST                      -----    -----      -----    -----      -----    -----      -----    --
>> ---
  +--> ?PR?_CSCALERPAGESELECT?RTDACCESS
  +--> ?PR?_CSCALERWRITE?RTDACCESS

?PR?_CVIDEOSETVDCCONTRAST?VIDEO                  -----    -----      -----    -----      -----    -----      FB9AH    00
>> 01H
  +--> ?PR?_CSCALERPAGESELECT?RTDACCESS
  +--> ?PR?_CSCALERSETBYTE?RTDACCESS

?PR?_CVIDEOSETVDCBRIGHTNESS?VIDEO                -----    -----      -----    -----      -----    -----      FB9AH    00
>> 01H
  +--> ?PR?_CSCALERPAGESELECT?RTDACCESS
  +--> ?PR?_CSCALERSETBYTE?RTDACCESS

?PR?_CAUTOMEASURECOLOR?AUTO                      -----    -----      -----    -----      -----    -----      FB97H    00
>> 04H
  +--> ?PR?AUTO
  +--> ?PR?_CSCALERSETBIT?RTDACCESS
  +--> ?PR?BSOURCEVIDEO?SOURCE
  +--> ?PR?_CSCALERWRITE?RTDACCESS
  +--> ?PR?_CSCALERSETBYTE?RTDACCESS
  +--> ?PR?CAUTOWAITFINISH?AUTO
  +--> ?PR?_CSCALERREAD?RTDACCESS

?PR?_CGETTARGETVALUE?AUTO                        -----    -----      -----    -----      -----    -----      FB91H    00
>> 07H
  +--> ?PR?AUTO

?PR?_CAUTOTUNEDEVICEGAIN?AUTO                    -----    -----      -----    -----      -----    -----      FB91H    00
>> 06H
  +--> ?PR?AUTO
  +--> ?PR?_CAUTOMEASURECOLOR?AUTO
  +--> ?PR?_CHANGE_DEVICE_GAIN?AUTO
  +--> ?PR?BSOURCEVIDEO?SOURCE
  +--> ?PR?_CHANGE_DEVICE_OFFSET?AUTO

?PR?_CHANGE_DEVICE_GAIN?AUTO                     -----    -----      -----    -----      -----    -----      FB97H    00
>> 03H
  +--> ?PR?AUTO
  +--> ?PR?BSOURCEVIDEO?SOURCE
  +--> ?PR?_CHANGE_VDC_GAIN?AUTO
  +--> ?PR?_CAUTOCHANGEADCGAIN?AUTO

?PR?_CHANGE_VDC_GAIN?AUTO                        -----    -----      -----    -----      -----    -----      -----    --
>> ---
BL51 BANKED LINKER/LOCATER V6.22                                                      01/17/2018  23:35:27  PAGE 69


  +--> ?PR?_CVIDEOSETVDCCONTRAST?VIDEO
  +--> ?PR?_CVIDEOSETVDCSATURATION?VIDEO

?PR?_CAUTOCHANGEADCGAIN?AUTO                     -----    -----      -----    -----      -----    -----      FB9AH    00
>> 02H
  +--> ?PR?AUTO
  +--> ?PR?CADJUSTADCGAIN?ADJUST

?PR?_CHANGE_DEVICE_OFFSET?AUTO                   -----    -----      -----    -----      -----    -----      FB97H    00
>> 03H
  +--> ?PR?AUTO
  +--> ?PR?BSOURCEVIDEO?SOURCE
  +--> ?PR?_CHANGE_VDC_OFFSET?AUTO
  +--> ?PR?_CAUTOCHANGEADCOFFSET?AUTO

?PR?_CHANGE_VDC_OFFSET?AUTO                      -----    -----      -----    -----      -----    -----      -----    --
>> ---
  +--> ?PR?_CVIDEOSETVDCBRIGHTNESS?VIDEO

?PR?_CAUTOCHANGEADCOFFSET?AUTO                   -----    -----      -----    -----      -----    -----      FB9AH    00
>> 02H
  +--> ?PR?AUTO
  +--> ?PR?CADJUSTADCOFFSET?ADJUST

?PR?_CAUTOTUNEDEVICEOFFSET?AUTO                  -----    -----      -----    -----      -----    -----      FB91H    00
>> 06H
  +--> ?PR?AUTO
  +--> ?PR?_CAUTOMEASURECOLOR?AUTO
  +--> ?PR?BSOURCEVIDEO?SOURCE
  +--> ?PR?_CHANGE_DEVICE_OFFSET?AUTO

